:0400000002003B328D
:01000B0032C2
:030013000270B0C8
:03001B00026E5919
:0100230032AA
:03002B0002705709
:03003300026FFE5B
:0300B30002003612
:030036000200B60F
:2000B600907D81E493FEA3E493FFC000A81C051C051CEFF208EEF2D0001200D4800CC00677
:1A00D600C00790100075F00EE422A81C18E218E2881C120FBB1214B780FBA0
:2000F00075820B126159AF8290010CEFF0C000EFA81C051CF2D000900064E4F5F012675891
:20011000A81C18E2FF151CC000EFA81C051CF2D00075820B126159AE82A81C18E2FF151C9F
:20013000EFB506BC90010CE0F5822290010FE5F5F0900110E5F6F090010FE0FE7F009001CF
:2001500010E0FD7C0090010DED2FF0EC3EA3F0E5F722907D91E493FEA3E493FFC000A81C11
:20017000051C051CEFF208EEF2D000A81C051C051CE4F208F20812018B800BC006C0079070
:20019000792775F08022151C151CA81C18E218E2881C907D85E493FEA3E493FF900109E050
:2001B000FD7C007B007A00C000A81C051C051CEFF208EEF2D000A81C051CE4F2081201D2BA
:2001D000800CC006C0078D828C838BF0EA22151CA81C18E218E2881C907D91E493FEA3E42A
:2001F00093FFC000A81C051C051CEFF208EEF2D000A81C051C051CE4F208F208120211807B
:200210000BC006C00790793975F08022151C151CA81C18E218E2881C907D91E493FEA3E495
:2002300093FF900109E075F003A424E2F582740935F0F583E0FBA3E0FCA3E0FDC000A81CA1
:20025000051C051CEFF208EEF2D000A81C051C051CE4F208F20812026B800BC006C0078BB3
:20027000828C838DF022151C151CA81C18E218E2881C907D91E493FEA3E493FFC000A81CD0
:20029000051C051CEFF208EEF2D000A81C051C051CE4F208F2081202AB800BC006C007902E
:2002B000793C75F08022151C151CA81C18E218E2881C22AF83E582900111F0EFA3F090094C
:2002D000E1E0FF7401C39FF0E0600D9008F8E4F075820D1260FE800B9008F8E4F075820F6D
:2002F0001260FE900111E0FEA3E0FF7D007C008E828F838DF0EC1267589008F87401F075BD
:20031000820D1260FE9008F87401F075820F0260FEAFF0AE83E582900113F0EEA3F0EFA395
:20033000F0900113E0FDA3E0FEA3E0FF8D828E838FF0127907900116F0E4A3F09001130452
:200350002DF0E43EA3F0EFA3F0900113E0FDA3E0FEA3E0FF8D828E838FF0127907FF7D0008
:20037000900116E0FCA3E0FE900116ED2CF0EF3EA3F0900116E0FEA3E08E82F58322AFF0A8
:20039000AE83E582900118F0EEA3F0EFA3F0900118E0FDA3E0FEA3E0FF8D828E838FF012DF
:2003B0000321AE82AF837D007C00900118E0F9A3E0FAA3E0FB900118740229F0E43AA3F048
:2003D000EBA3F0900118E0F9A3E0FAA3E0FBC000E51CF82404F51CEFF208EEF208EDF20868
:2003F000ECF2D00089828A838BF0120321AA82AB83A81C18E2FC18E2FD18E2FE18E2FF88F2
:200410001C8A008B0189038802E4F92EFEE93FFFEA3DFDEB3C8E828F838DF022AFF0AE8378
:20043000E58290031FF0EEA3F0EFA3F0900322E4F090031FE0FDA3E0FEA3E0FF90031BE0F7
:20045000F508A3E0F509A3E0F50A90031EE0F9900322E0F8C39940030204F0C0019003226A
:20047000E0F82DF9E43EFB8F0489828B838CF0127907F9900323F0E82508F8E43509FCAB22
:200490000A88828C838BF0127907F8900324F0B96100D0014011900323E0FC24854008902E
:2004B0000323E0FC24E0F0900324E0FCBC61004011900324E0FC24854008900324E0FC24FA
:2004D000E0F0900323E0FC900324E0FBECB50302800475820122900322E02401F002045FC5
:2004F00075820022E582900328F0E0FF7E0090032BEFF0EEA3F0900329F0A3F0907D59930E
:20051000FCA3E493FDC000EDA81C051CF2D000E51CF82403F51C7429F2087403F208E4F255
:2005300008A81C051C051CEFF208EEF208120542800BC004C00590011B75F00022AC82E519
:200550001C24FBF51CA81C18E2FD151CEC701A90032BE0FEA3E0FF900329E0FCA3E0FDEEB9
:20057000B50406EFB505028044907D91E493FEA3E493FFC000A81C051C051CEFF208EEF282
:20059000D000A81C051C051CE4F208F2081205A2800BC006C00790793E75F08022151C1538
:2005B0001CA81C18E218E2881C7582FF22900325E0F5F0A3E045F06033900325E0FDA3E0BB
:2005D000FEA3E0FF90032BE0FBA3E090031BEDF0EEA3F0EFA3F090031EEBF090011B75F044
:2005F0000012042CE58260047582FF2275820022A81C051CC51AF208E8C51AC01BE581F5F2
:200610001B2404F581E51C2408F51C900325744EF07479A3F07480A3F07582041204F490CD
:200630000325E4F0A3F0A3F07582041204F49003257453F07479A3F07480A3F07582041200
:2006500004F49003257458F07479A3F07480A3F07582041204F4900325E4F0A3F0A3F075EB
:2006700082041204F490011B75F00012038EAC82AD83AEF0FFE51A2403F8ECF208EDF20840
:20069000EEF208EFF2900325E4F0A3F0A3F07582021204F4900325E4F0A3F0A3F075820221
:2006B0001204F4E51A2407F87418F290011B75F000120321AE82AF8390032FEEF0EFA3F0B5
:2006D000BE0105BF000280067582FF0209A5900325E4F0A3F0A3F07582041204F4E51A247F
:2006F00007F8E2FFE51A2407F874042FF290011B75F00012038EAC82AD83AEF0FFBC400B99
:20071000BD1F08BE0005BF000280067582FF0209A5900325E4F0A3F0A3F07582041204F47E
:20073000E51A2407F8E2FFE51A2407F874042FF2900325E4F0A3F0A3F07582021204F4E551
:200750001A2407F8E2FFE51A2407F874022FF290011B75F000120321E5828583F090032D4C
:20077000F0E5F0A3F0900325E4F0A3F0A3F07582021204F4E51A2407F8E2FFE51A2407F837
:2007900074022FF2E51A2403F8E2FC08E2FD08E2FE08E2FFA81B0874142CF6E43D08F6E486
:2007B0003E08F6E43F08F6E51A2407F8E2FA7B007E007F00A81B08C3EA96EB0896EE089633
:2007D000EF08965032E51A2403F8E2FC08E2FD08E208E274142CFCE43DFDE51A2407F8E271
:2007F000FFE4FEECC39FFCED9E900325E4F0A3F0A3F08C821204F4A81A7404F208E4F290CF
:200810000325745DF07479A3F07480A3F07582041204F4AF82A81A0808EFF2E51A2407F8CD
:20083000E2FEE51A2407F874042EF2900325E4F0A3F0A3F0C000EFA81C051CF2D00075820F
:20085000041204F4A81C18E2FF151CE51A2407F8E2FEE51A2407F874042EF2C000EFA81C5D
:20087000051CF2D00090011B75F00012038EAB82AC83ADF0FEA81C18E2FF151CE51A2403C6
:20089000F8EBF208ECF208EDF208EEF2EF603CE51A2403F8E2FC08E208E208E2900325E4DD
:2008B000F0A3F0A3F0C000ECA81C051CF2D0008C821204F4A81C18E2FC151CE51A2407F89A
:2008D000E2FF2CFCE51A2407F8ECF2A81AE224FFFE08E234FFFFA81AEEF208EFF2A81A08C9
:2008F00008E2600EA81AE2F5F008E245F0600302080FA81AE2F5F008E245F07047907D916F
:20091000E493FEA3E493FFC000A81C051C051CEFF208EEF2D000A81C051C051CE4F208F204
:2009300008120936800BC006C00790796275F08022151C151CA81C18E2FE18E2FF881C7594
:2009500082FF8051E51A2407F8E2900335F090032DE0FEA3E0FFE51A2403F8E2FA08E2FB7A
:2009700008E2FC08E2FD9009A9EEF0EFA3F0E4A3F0A3F08A828B838CF0ED1273C2AC82AD49
:2009900083AEF0FF900331ECF0EDA3F0EEA3F0EFA3F0758200851B81D01BC51AF818E2C56B
:2009B0001A881C22A81C051CC51AF208E8C51AC01BE581F51B2407F581E51C240CF51C90FE
:2009D0000331E0FCA3E0FDA3E0FEA3E0FFC3E49CE49D74019EE49F5011E51A2404F8E4F2C4
:2009F00008F20804F208E4F2801E900331E0FCA3E0FDA3E0FEA3E0FFE51A2404F8ECF2084B
:200A1000EDF208EEF208EFF2E51A2408F8E4F208F208F208F2A81AF208F208F208F2E51A8E
:200A30002404F8A91B09E2F708E209F708E209F708E209F7A81AE2FA08E2FB08E2FE08E2CD
:200A5000FFA81B08C3EA96EB0896EE0896EF08964003020BC190032DE0FEA3E0900325E409
:200A7000F0A3F0A3F08E821204F4E5826003020BC190011B75F000120321AE82AF83E51BF5
:200A90002405F8A606907D5FE51B2406F8E493F6A3E49308F6E51A2408F8E2FA08E2FB087A
:200AB000E2FC08E2FDC000E51CF82406F51CEFF208EEF208EDF208ECF208EBF208EAF2D03E
:200AD00000E51B2405F8A91C051CE6F309120AE28014E51B2406F8E6C0E008E6C0E08A8249
:200AF0008B838CF0ED22151CA81C18E2FA18E2FB18E2FC18E2FD18E218E2FF881CE51B24C7
:200B100006F8A607E51A2408F874012AF2E43B08F2E43C08F2E43D08F2907D5FE493FDA395
:200B3000E493FFE51A2408F8E2FA08E2FB08E2FC08E2FEC000E51CF82406F51CEFF208EEB2
:200B5000F208EDF208ECF208EBF208EAF2D000E51B2406F8A91C051CE6F309120B70800C2A
:200B7000C005C0078A828B838CF0EE22151CA81C18E2FA18E2FB18E2FC18E2FD18E2FE1858
:200B9000E2FF881CE51A2408F874012AF2E43B08F2E43C08F2E43E08F2A81AE22401F208FA
:200BB000E23400F208E23400F208E23400F2020A44851B81D01BC51AF818E2C51A881C222B
:200BD000A81C051CC51AF208E8C51AC01BE581F51B2406F581E51C240CF51C900331E0FCAD
:200BF000A3E0FDA3E0FEA3E0FFC3E49CE49D74019EE49F5011E51A2404F8E4F208F20804AC
:200C1000F208E4F2801E900331E0FCA3E0FDA3E0FEA3E0FFE51A2404F8ECF208EDF208EE59
:200C3000F208EFF2E51A2408F8E4F208F208F208F2A81AF208F208F208F2E51A2404F8A978
:200C50001B09E2F708E209F708E209F708E209F7A81AE2FA08E2FB08E2FE08E2FFA81B08AA
:200C7000C3EA96EB0896EE0896EF08964003020DBE907D61E493FEA3E493FFE51A2408F850
:200C9000E2FA08E2FB08E2FC08E2FDC000E51CF82405F51CEFF208EDF208ECF208EBF20828
:200CB000EAF2D000120CB9800CC006C0078A828B838CF0ED22AE82A81C18E2FA18E2FB18EE
:200CD000E2FC18E2FD18E2881CE51B2405F8A606087600E51A2408F874012AF2E43B08F279
:200CF000E43C08F2E43D08F2907D61E493FFA3E493FEE51A2408F8E2FA08E2FB08E2FC08E1
:200D1000E2FDC000E51CF82405F51CEEF208EDF208ECF208EBF208EAF2D000120D30800CD0
:200D3000C007C0068A828B838CF0ED22AF82A81C18E2FA18E2FB18E2FC18E2FD18E2881C08
:200D50008F067F00E51B2405F8EF26FFEE0836FEE51A2408F874012AF2E43B08F2E43C081B
:200D7000F2E43D08F2907D6BE493FCA3E493FDC000A81C051C051CEDF208ECF2D000120DDA
:200D9000938009C004C0058F828E8322A81C18E2FC18E2FD881CA81AE22401F208E234002C
:200DB000F208E23400F208E23400F2020C60851B81D01BC51AF818E2C51A881C22AFF0AED4
:200DD00083E582900336F0EEA3F0EFA3F090010BE0700122907D91E493FEA3E493FFC00062
:200DF000A81C051C051CEFF208EEF2D000A81C051C051CE4F208F208120E0D800BC006C028
:200E10000790797E75F08022151C151CA81C18E218E2881C907D91E493FEA3E493FF9003B0
:200E300036E0FBA3E0FCA3E0FDC000A81C051C051CEFF208EEF2D000A81C051C051CE4F257
:200E500008F208120E58800BC006C0078B828C838DF022151C151CA81C18E218E2881C90E7
:200E70007D57E493FEA3E493FF900336E0FBA3E0FCA3E0FDC000EFA81C051CF2D000120EE7
:200E900093800BC006C0078B828C838DF022AE82A81C18E2FF151CEE6042907D91E493FE1B
:200EB000A3E493FFC000A81C051C051CEFF208EEF2D000A81C051C051CE4F208F208120EAC
:200ED000D3800BC006C00790798775F08022151C151CA81C18E2FE18E2FF881C120600E5C8
:200EF000826041907D91E493FEA3E493FFC000A81C051C051CEFF208EEF2D000A81C051C4F
:200F1000051CE4F208F208120F1C800BC006C00790799775F08022151C151CA81C18E21894
:200F3000E2881C22907D91E493FEA3E493FFC000A81C051C051CEFF208EEF2D000A81C05A5
:200F50001C051CE4F208F208120F5D800BC006C0079079AE75F08022151C151CA81C18E2F8
:200F700018E2881C1209B4120BD0907D91E493FEA3E493FFC000A81C051C051CEFF208EE3E
:200F9000F2D000A81C051C051CE4F208F208120FA3800BC006C0079079B375F08022151CD1
:200FB000151CA81C18E218E2881C22907D81E493FEA3E493FFC000A81C051C051CEFF208A7
:200FD000EEF2D000120FD9800CC006C00790C20075F001E422A81C18E218E2881C9007D0BD
:200FF000E4F5F0126758907D83E493FEA3E493FFC000EFA81C051CF2D0008E828F8312009F
:2010100039AE82A81C18E2FF151CEE602C907D8DE493FEA3E493FFC000A81C051C051CEF12
:20103000F208EEF2D0008E828F83120039A81C18E2FE18E2FF881C80AD907D91E493FEA34D
:20105000E493FFC000A81C051C051CEFF208EEF2D000A81C051C051CE4F208F20812107239
:20107000800BC006C0079079BA75F08022151C151CA81C18E218E2881C907D91E493FEA30A
:20109000E493FFC000A81C051C051CEFF208EEF2D000A81C051C051CE4F208F2081210B2B9
:2010B000800BC006C0079079F475F08022151C151CA81C18E218E2881C907D91E493FEA390
:2010D000E493FFC000A81C051C051CEFF208EEF2D000A81C051C051CE4F208F2081210F239
:2010F000800BC006C007907A1075F08022151C151CA81C18E218E2881C907D91E493FEA333
:20111000E493FFC000A81C051C051CEFF208EEF2D000A81C051C051CE4F208F208121132B7
:20113000800BC006C007907A4C75F08022151C151CA81C18E218E2881C75EDFF126F699091
:20115000033AE4F0900339E5EDF090033AE02401FFE43401FE900339E0FD8F828E83F0BD80
:2011700010005042907D91E493FEA3E493FFC000A81C051C051CEFF208EEF2D000A81C0569
:201190001C051CE4F208F20812119D800BC006C007907A5A75F08022151C151CA81C18E2C7
:2011B000FE18E2FF881C907D85E493FEA3E493FF900339E0FD7C007B007A00C000A81C05C1
:2011D0001C051CEFF208EEF2D000A81C051C7403F2081211E7800CC006C0078D828C838B07
:2011F000F0EA22151CA81C18E2FE18E2881C90033AE0FFBF07005042907D91E493FEA3E4BA
:2012100093FFC000A81C051C051CEFF208EEF2D000A81C051C051CE4F208F208121231801A
:201230000BC006C007907A5C75F08022151C151CA81C18E2FE18E2FF881C90033AE024010C
:20125000F0E0FFBF08005003021154900339E5E6F0907D91E493FEA3E493FFC000A81C05F2
:201270001C051CEFF208EEF2D000A81C051C051CE4F208F20812128A800BC006C007907ADA
:201290006075F08022151C151CA81C18E218E2881C907D89E493FEA3E493FF900339E0FD4C
:2012B0007C007B007A00C000A81C051C051CEFF208EEF2D000A81C051C7403F2081212D202
:2012D000800CC006C0078D828C838BF0EA22151CA81C18E218E2881C907D73E493FEA3E437
:2012F00093FFC000A81C051C051CEFF208EEF2D0008E828F83120039A81C18E218E2881C24
:2013100075820012535890098D743BF07401A3F074FFA3F0758205126F95907D63E493FE3F
:20133000A3E493FFC000A81C051C051CEFF208EEF2D0008E828F83120039A81C18E218E200
:20135000881C907D5DE493FEA3E493FFC000A81C051C051CEFF208EEF2D0008E828F83124E
:201370000039A81C18E218E2881C907D71E493FEA3E493FFC000A81C051C051CEFF208EE1F
:20139000F2D0001213988008C006C00775821C22A81C18E218E2881C9008F47401F0758230
:2013B0000D1260A39008F47401F075820F1260A39008F4E4F075820B1260A3907D55E4939F
:2013D000FEA3E493FFC000EFA81C051CF2D0008E828F83120039AE82A81C18E2FF151CEE17
:2013F0006049907D91E493FEA3E493FFC000A81C051C051CEFF208EEF2D000A81C051C05BF
:201410001CE4F208F20812141B800BC006C007907A7075F08022151C151CA81C18E2FE18B8
:20143000E2FF881C90010BE4F08048907D91E493FEA3E493FFC000A81C051C051CEFF20804
:20145000EEF2D000A81C051C051CE4F208F208121464800BC006C007907A8B75F08022159B
:201470001C151CA81C18E2FE18E2FF881C90010B7401F0907D7BE493FEA3E493FFC000A837
:201490001C051C051CEFF208EEF2D0008E828F83120039A81C18E218E2881C90010A74016C
:2014B000F0900109E4F02290010AE090033BF0900109E0FFBF0102800FBF02030215BDBF42
:2014D00005030217D2021802126F9290010DE0FEA3E0FF90033EEEF0EFA3F0126F8F907D8E
:2014F00091E493FEA3E493FFC000A81C051C051CEFF208EEF2D000A81C051C051CE4F2087A
:20151000F208121517800BC006C007907AA475F08022151C151CA81C18E218E2881C907DEB
:2015300089E493F50BA3E493F50C90033EE0FCA3E0FD8C028D037E007F00C000A81C051C93
:20155000051CEDF208ECF2D000A81C051CE4F208121565800CC00BC00C8A828B838EF0EFCC
:2015700022151CA81C18E2FC18E2881CC313CC13CCC313CC13CCFD90033EECF0EDA3F090F4
:20159000033EE0FEA3E0FF90033E74C82EF0E43FA3F090033EE0FEA3E0FF8E828F83120252
:2015B000C31200F0E58290033BF002182175820B126159E58290033CF0907D7FE493FEA35E
:2015D000E493FFC000EFA81C051CF2D0008E828F83120039AE82A81C18E2FF151C90033DD4
:2015F000EEF0EE30E70302171390033DE0FFC374898FF063F08095F05003021713907D9166
:20161000E493FEA3E493FFC000A81C051C051CEFF208EEF2D000A81C051C051CE4F208F2F7
:2016300008121636800BC006C007907AAC75F08022151C151CA81C18E2FE18E2881C907D96
:2016500085E493F50BA3E493F50C90033DE0FDFA3395E0FBFCFFC000EDA81C051CF2D000CA
:20167000A81C051CE4F20812167C800CC00BC00C8A828B838CF0EF22151CA81C18E2FD1528
:201690001C907D91E493FEA3E493FFC000E51CF82403F51CEFF208EEF208EDF2D000A81CBD
:2016B000051C051CE4F208F2081216BE800BC006C007907AB675F08022151C151CA81C18FD
:2016D000E2FD18E2FE18E2FF881CC2D575F003ED30E704B2D5F404A430D50AF42401C5F07F
:2016F000F43400C5F024EBF582740935F0F583E0FDA3E0FEA3E0FF8D828E838FF0120DCDF2
:201710000217B790033DE0FFBF0E4B907D91E493FEA3E493FFC000A81C051C051CEFF20847
:20173000EEF2D000A81C051C051CE4F208F208121744800BC006C007907AB975F0802215A7
:201750001C151CA81C18E218E2881C907AC675F080120DCD805190033DE0FFBF0F49907D8B
:2017700091E493FEA3E493FFC000A81C051C051CEFF208EEF2D000A81C051C051CE4F208F7
:20179000F208121797800BC006C007907AD075F08022151C151CA81C18E218E2881C907ABE
:2017B000DD75F080120DCD75820B126159AF8290033CE0FEB5075A90033CE0FF90033BF03D
:2017D000804F75820B126159907D7FE493FEA3E493FFC000A81C051C051CEFF208EEF2D0E3
:2017F000008E828F83120039A81C18E2FE18E2FF881C9008F8E4F075820D1260FE9008F8AB
:20181000E4F075820F1260FE1200F0E58290033BF090033BE0702C90010AE0602690010962
:20183000E0FF7E000FBF00010E9009CD7403F0E4A3F08F828E831276CEAE82900109EEF0FA
:0C18500012016290033BE090010AF022BC
:207927000A0A20546573742053746570203D3D3E20002020000A0077617620726561642044
:207947006572726F720A0052494646005741564500666D742000646174610063616E206ED1
:207967006F742066696E642064617461207375627472756E6B0A00506C6179696E67200006
:207987000A205344206F70656E206661696C0A000A207761762066696C65206F70656E205D
:2079A7006572726F720A00202E2E2E0020446F6E650A003D3D3D3D3D3D3D3D3D3D3D3D3D19
:2079C7003D3D3D3D3D3D3D3D3D3D3D3D3D3D3D3D3D3D3D3D3D3D3D3D3D3D3D3D3D3D3D3D00
:2079E7003D3D3D3D3D3D3D3D3D3D3D0A003D3D204249535420666F722050756C73655261C8
:207A0700696E204D3130200A003D3D3D3D3D3D3D3D3D3D3D3D3D3D3D3D3D3D3D3D3D3D3D15
:207A27003D3D3D3D3D3D3D3D3D3D3D3D3D3D3D3D3D3D3D3D3D3D3D3D3D3D3D3D3D3D3D3D9F
:207A47003D0A0A200043686970204944203D3D3E2020003000202D20000A204D4355205247
:207A67006576203D3D3E2020000A20534420696E6974206661696C21212121212121212192
:207A870021210A000A20534420696E697420737563636573732121212121210A0020414470
:207AA70043203D200044544D46204B657920002C200044544D46204B6579202A2C200048CD
:207AC700454C4C4F2E5741560044544D46204B657920232C20004259452E574156004944CB
:207AE7004C452C20416C6C204C4544206F6E004C454420616E642041444320546573740ABD
:207B07000A205468697320746573742077696C6C2061646A75737420746865204C454420C3
:207B2700666C617368696E6720696E74657276616C206261736564206F6E2074686520418F
:207B47004443206368616E6E656C20302E0A2053657420494F204A756D70657220284A509D
:207B6700312920746F2035562C20616E64207573652061207769726520746F20636F6E6EE1
:207B870065637420494F52454620746F2041302E0A205475726E2074686520706F74656ED1
:207BA70074696F6D6574657220746F206F62736572766520746865204144432076616C751B
:207BC7006520646973706C61796564206F6E207468652053657269616C20436F6E736F6CEE
:207BE700652E0A20546865204C45442077696C6C20666C61736820736C6F77206F72206639
:207C0700617374206163636F7264696E676C792E0A0044544D462C20537065616B65722CC0
:207C2700205352414D2C206D6963726F534420546573740A0A205468697320746573742061
:207C470077696C6C206465746563742044544D4620746F6E65207468726F7567682074688E
:207C670065206F6E626F617264206D6963726F70686F6E652E0A20416E64206974207769D7
:207C87006C6C206C6F61642074686520636F72726573706F6E64656E7420776176206669E1
:207CA7006C652066726F6D206D6963726F5344206361726420746F205352414D2C2074680F
:207CC700656E20706C61792074686520617564696F206F7574207468726F75676820616ED9
:207CE7002065787465726E616C20737065616B65722E0A005A45524F2E574156004F4E4579
:207D07002E5741560054574F2E5741560054485245452E57415600464F55522E574156003E
:207D2700464956452E574156005349582E57415600534556454E2E574156004549474854D8
:0E7D47002E574156004E494E452E57415600CC
:207D970000E57A80F67A80197C80FB7C80047D800C7D80147D801E7D80277D80307D803832
:087DB7007D80427D804C7D803F
:1300A00090036B74FFF0A3F0A3F0A3F090036FE4F0A3F0CA
:20185C00E582900347F075DD00E0F5D8900341E0FCA3E0FDA3E0FEA3E0FF8CD98DDA8EDBD4
:20187C008FDC900346E0035480FF900345E0FE74024E4FF5D7900348E5D8F0E0FF53073FBD
:20189C00BF3FF2900348E023235403FF74035FF0E0F58222AF83E58290034AF0EFA3F0902E
:2018BC000349E0601290034AE0FEA3E0FF90034AEEF074022FA3F090034AE0FEA3E05403A9
:2018DC00030354C0F5D78EDD126F69126F6990034CE5DEF0E0F58222900352E4F090034D23
:2018FC0014F0A3F0A3F0A3F0900341E4F0A3F0A3F0A3F0900345F0900346F07582001218FC
:20191C005CAF82BF010475820222900349E4F09000001218B0AF82BF010280047582022293
:20193C0075D72190034174AAF07401A3F0E4A3F0A3F09003457410F0900346E4F075820832
:20195C0012185C900349E4F09000001218B0E58230E2089003407401F0801C90034074022D
:20197C00F0900349E4F09000041218B0AF82BFAA02800475820222900340E0FFBF023790C8
:20199C000341E4F0A3F0A3F0A3F0900345F0900346F075823712185C900341E4F0A3F0A337
:2019BC00F07440A3F0900345E4F0900346F075822912185C8032900341E4F0A3F0A3F0A396
:2019DC00F0900345F0900346F075823712185C900341E4F0A3F0A3F0A3F0900345F09003FA
:2019FC0046F075822912185C900349E4F09000001218B0E582900351F0900352E02401F0C0
:201A1C00E0600990000AE4F5F0126758900351E06003021993900351E06004758201229086
:201A3C000340E0FFBF0248900341E4F0A3F0A3F0A3F09003457410F0900346E4F075823AD4
:201A5C0012185C900349E4F09000001218B0E582600475820122900349E4F090000112187A
:201A7C00B0E5825440FFBF4006900340740CF075820022AFF0AE83E58290035BF0EEA3F0A9
:201A9C00EFA3F090035BE0F5F0A3E045F07003F58222900353E0FCA3E0FDA3E0FEA3E0FFEC
:201ABC0090034DE0F8A3E0F9A3E0FAA3E0FBECB5000EEDB5010AEEB50206EFB50302805358
:201ADC00900353E0FCA3E0FDA3E0FEA3E0FF900341ECF0EDA3F0EEA3F0EFA3F0900345E4B6
:201AFC00F090034604F075821112185CAF82BF0302800475820122900353E0FCA3E0FDA307
:201B1C00E0FEA3E0FF90034DECF0EDA3F0EEA3F0EFA3F0900357E0FEA3E0FF90035EEEF0F1
:201B3C00EFA3F0900359E0FEA3E0FF900357E0FCA3E0FDEE2CFEEF3DFF90035EE0FCA3E0E2
:201B5C00FDC3EC9EED9F4003021BEB90035BE0FBA3E0FCA3E0FD90035EE0F9A3E0FA9003A6
:201B7C00497401F0C000E51CF82407F51CEFF208EEF208EDF208ECF208EBF208EAF208E956
:201B9C00F2D00089828A831218B0A882C000A81C18E2F918E2FA18E2FB18E2FC18E2FD18E6
:201BBC00E2FE18E2FF881CD0008B828C838DF0E81274D490035B74012BF0E43CA3F0EDA320
:201BDC00F090035E740129F0E43AA3F0021B5575820022AFF0AE83E582900364F0EEA3F09F
:201BFC00EFA3F0900364E0F5F0A3E045F07003021C9B900360E0FCA3E0FDA3E0A3E09003BF
:201C1C0067ECF0EDA3F0900369E4F0A3F0900367E0FEA3E0FF900369E0FCA3E0FDC3EC9E83
:201C3C00ED9F4003021D5490036FE0FCA3E0FD8C02C313CA13CAC313CA13CA74405AF5D786
:201C5C008CDD900364E0F9A3E0FAA3E0FB89828A838BF0127907F5DF900364740129F0E4D2
:201C7C003AA3F0EBA3F090036F74012CF0E43DA3F0900369E02401F0A3E03400F080969078
:201C9C000360E0F5F0A3E042F0A3E042F0A3E045F06026900360E0FCA3E0FDA3E0FEA3E005
:201CBC00FF90036BECF0EDA3F0EEA3F0EFA3F090036FE4F0A3F0021D5490036FE0FEA3E06D
:201CDC00FF900369EEF0EFA3F0900369E0FEA3E0FFC39402502C900369E0FEA3E0FF8E046E
:201CFC00C313CC13CCC313CC13CCFD74405CF5D78EDD75DF0090036974012EF0E43FA3F0E9
:201D1C0080C790036BE0FCA3E0FDA3E0FEA3E0FF900341ECF0EDA3F0EEA3F0EFA3F090033D
:201D3C0045E4F0900346F075821812185CAF82BF030280047582012275820022AFF0AE8394
:201D5C00E582900371F0EEA3F0EFA3F0900371E0FDA3E0FEA3E0FF8D828E838FF0127907F4
:201D7C00900374F0E4A3F0900371042DF0E43EA3F0EFA3F0900371E0FDA3E0FEA3E0FF8D0C
:201D9C00828E838FF0127907FF7D00900374E0FCA3E0FE900374ED2CF0EF3EA3F0900374CC
:201DBC00E0FEA3E08E82F58322AFF0AE83E582900376F0EEA3F0EFA3F0900376E0FDA3E060
:201DDC00FEA3E0FF8D828E838FF0121D58AE82AF837D007C00900376E0F9A3E0FAA3E0FB09
:201DFC00900376740229F0E43AA3F0EBA3F0900376E0F9A3E0FAA3E0FBC000E51CF8240442
:201E1C00F51CEFF208EEF208EDF208ECF2D00089828A838BF0121D58AA82AB83A81C18E2FD
:201E3C00FC18E2FD18E2FE18E2FF881C8A008B0189038802E4F92EFEE93FFFEA3DFDEB3C57
:201E5C008E828F838DF022AFF0AE83E58290037BF0EEA3F0EFA3F090037BE0FDA3E0FEA35E
:201E7C00E0FF900379E0FBA3E0FC8B028D828E838FF0EA1274D490037B74012DF0E43EA32C
:201E9C00F0EFA3F08C037C00900379EBF0ECA3F090037BE0FDA3E0FEA3E0FF900379E0FB6E
:201EBC00A3E08D828E838FF0EB1274D490037B74012DF0E43EA3F0EFA3F022AFF0AE83E5F1
:201EDC0082900382F0EEA3F0EFA3F090037EE0FCA3E0FDA3E0FEA3E0FF8C0D8D0E900382A3
:201EFC00E0F8A3E0F9A3E0FB900379E50DF0E50EA3F0C000E51CF82404F51CEFF208EEF2C5
:201F1C0008EDF208ECF2D000888289838BF0121E63A81C18E218E218E2FE18E2FF881C9007
:201F3C000382E0F9A3E0FAA3E0FB900382740229F0E43AA3F0EBA3F08E048F05900382E03E
:201F5C00FBA3E0FEA3E0FF900379ECF0EDA3F08B828E838FF0021E63A81C051CC51AF20821
:201F7C00E8C51AE51C2406F51CAFF0AE83E582A81AF208EEF208EFF2A81AE2FD08E2FE08F5
:201F9C00E2FFE51A2403F8EDF208EEF208EFF2A81A1818E2FFE51A24FCF8E2FD08E2FEEDD8
:201FBC0024FFFBEE34FFFCE51A24FCF8EBF208ECF2ED4E6029E51A2403F8E2FC08E2FD0841
:201FDC00E2FE8C828D838EF0EF1274D4E51A2403F874012CF2E43D08F208EEF280B7C51A56
:201FFC00F818E2C51A881C22AFF0AE83E58290038DF0EEA3F0EFA3F090038DE0FDA3E0FE66
:20201C00A3E0FF900390EDF0EEA3F0EFA3F0900388E0FDA3E0FEA3E0FF900393EDF0EEA390
:20203C00F0EFA3F0900396E4F090038BE0FEA3E0FFEE24FFFCEF34FFFD90038BECF0EDA3E1
:20205C00F0EE4F6051900390E0FDA3E0FEA3E0FF8D828E838FF0127907FC90039074012D91
:20207C00F0E43EA3F0EFA3F0900393E0FDA3E0FEA3E0FF8D828E838FF0127907FB900393C5
:20209C0074012DF0E43EA3F0EFA3F0ECC39BFC900396F0EC6093900396E0F58222A81C05B2
:2020BC001CC51AF208E8C51AC01B85811BC8E581240CF581E51C240BF51CC8AF82AE83AD60
:2020DC00F0FCA81AEFF208EEF208EDF208ECF2900385E0FDA3E0FEA3E0FFE51A2408F8ED98
:2020FC00F208EEF208EFF2A81AE2FC08E2FD08E2FE08E2FFC3EC9402ED9400EE9400EF94DE
:20211C00004055E51A2408F8E2FD08E2FE08E2FF74062DFDE43EFE8D828E838FF0E51B24B4
:20213C0009F8127907F6A312790708F6A312790708F6A312790708F6A81AE2FA08E2FB08D6
:20215C00E2FE08E2FFE51B2409F8C3EA96EB0896EE0896EF08964009900001E4F5F00222C9
:20217C009EE51A2408F8E2FD08E2FE08E2FF8D828E838FF0127907FDBD03028003022298A3
:20219C00E51A2404FFE51B2409F8A607087600087660E51A2408F8E2FA08E2FB08E2FC7491
:2021BC000A2AFAE43BFB8A828B838CF0A81B08127907F6A312790708F6A312790708F6A3C9
:2021DC0012790708F6A81AE51B2405F9E2F708E209F708E209F708E209F7E51B2405F88631
:2021FC000208E6A2E7CA33CA33CA5401FB08E625E04BFB860608E6A2E7CE33CE33CE5401D5
:20221C00FFA81B08900353EA26F0EB0836A3F0EE0836A3F0EF0836A3F0E51B2405F886040C
:20223C0008860553047FE4CC25E0CC33CC25E0CC33FD900357ECF0EDA3F09003597404F0FE
:20225C00E4A3F0E51B2409F886820886830886F0121A8FE5827025E51A2404FF7E007D60F7
:20227C008F828E838DF0121DC5AC82AD83AEF0FF53070F8C828D838EF0EF8006900001E4C5
:20229C00F5F0851B81D01BC51AF818E2C51A881C22A81C051CC51AF208E8C51AC01B858155
:2022BC001BC8E5812407F581E51C2407F51CC8AF82AE83ADF0FCA81AEFF208EEF208EDF2A6
:2022DC0008ECF2900385A81B08E0F6A3E008F6A3E008F6A81B08E51A2404F9E6F30809E686
:2022FC00F30809E6F3A81AE2FA08E2FB08E2FC08E2FFEA24FEFAEB34FFFBEC34FFFCEF3436
:20231C00FFFFA81AEAF208EBF208ECF208EFF2A81B08740626FDE40836FE0886078D828E97
:20233C00838FF0127907FDA3127907FEA3127907FFA3127907FCE51B2404F8ED24FEF6EE45
:20235C0034FF08F6EF34FF08F6EC34FF08F6A81AE2FA08E2FB08E2FE08E2FFE51B2404F87F
:20237C00C3EA96EB0896EE0896EF08964009900000E4F5F002244EA81AE51B2404F9E2F78A
:20239C0008E209F708E209F708E209F7E51A2404F8E2FA08E2FB08E2FF74022AFCE43BFDE2
:2023BC008F068C828D838EF01279079009BDF0E4A3F0A3F0A3F0C000E51CF82403F51CEF7B
:2023DC00F208EBF208EAF2D000E51B2404F886820886830886F008E612754DC8E51B2404ED
:2023FC00C8A68208A68308A6F008F6A81C18E2FA18E2FB18E2FF881C74122AFAE43BFB8A6C
:20241C00828B838FF0127907FAA3127907FBA3127907FFA3127907FEE51B2404F8EA26FA44
:20243C00EB0836FBEF0836FFEE0836FE8A828B838FF0851B81D01BC51AF818E2C51A881C0D
:20245C0022A81C051CC51AF208E8C51AC01BE581F51B2407F581051C051C051CAFF0AE8394
:20247C00E582A81AF208EEF208EFF2A81AA91B09E2F708E209F708E209F7A81B087414269F
:20249C00FAE40836FB0886048A828B838CF0121D58AB82AC838C02E4E51B2404F808080854
:2024BC00A60218A603187600187600A81B08741A26FDE40836FE0886078D828E838FF01299
:2024DC001D58AE82AF83E4FDFCE51B2404F8E6420608E6420708E6420508E642048E828F9F
:2024FC00838DF0EC851B81D01BC51AF818E2C51A881C22A81C051CC51AF208E8C51AC01BF2
:20251C00E581F51B240BF581E51C240AF51CAFF0AE83E582A81AF208EEF208EFF290038570
:20253C00E0FDA3E0FEA3E0FFE51A2407F8EDF208EEF208EFF2A81AE2FD08E2FE08E2FF8DCE
:20255C00828E838FF0E41274D4A31274D474052DFDE43EFE8D828E838FF0127907FDA3126C
:20257C007907FEA3127907FFA3127907FCE51A2403F8EDF208EEF208EFF208ECF2BD010BDF
:20259C00BE0008BF0005BC00028058E51A2407F8E2FD08E2FE08E2FF74062DFDE43EFE8DDC
:2025BC00828E838FF0E51B2404F8127907F6A312790708F6A312790708F6A312790708F6AC
:2025DC00E51A2403F8E2FA08E2FB08E2FE08E2FFE51B2404F8C3EA96EB0896EE0896EF08C0
:2025FC009640067582010226ECE51A2403F8E2F5F008E242F008E242F008E245F0703DE509
:20261C001A2407F8E2FD08E2FE08E2FF740E2DFDE43EFE8D828E838FF0127907FDA3127989
:20263C0007FEA3127907FFA3127907FCE51A2403F8EDF208EEF208EFF208ECF2A81AE2FDBF
:20265C0008E2FE08E2FF74092DFCE43EFB8F02E51A2403F8E51B2408F9E2F708E209F7082B
:20267C00E209F708E209F78C828B838AF0E51B2408F8E61274D4A308E61274D4A308E612EA
:20269C0074D4A308E61274D4A81B08740D2DF6E43E08F608A607E51B2408F886820886836A
:2026BC000886F008E61222ADAA82AB83ACF0FFA81B0886820886830886F0EA1274D4A3EB88
:2026DC001274D4A3EC1274D4A3EF1274D4758200851B81D01BC51AF818E2C51A881C22A88E
:2026FC001C051CC51AF208E8C51AC01BE581F51B240EF581E51C240CF51CAFF0AE83E5826F
:20271C00A81AF208EEF208EFF2900385E0FDA3E0FEA3E0FFE51A2409F8EDF208EEF208EF3E
:20273C00F2A81AE2FD08E2FE08E2FF8D828E838FF0127907FDA3127907FE0DBD00010EE5FA
:20275C001A2407F8EDF208EEF2ED4E6030A81AE2FD08E2FE08E2FF740D2DFDE43EFE8D8242
:20277C008E838FF0127907FDA3127907FEA3127907FFA3127907FCED4E4F4C700675820340
:20279C00022A48E51A2407F8E2FE08E2FFEE540F6003022A22A81AE51B240CF9E2F708E20E
:2027BC0009F708E209F7E51B240CF8E51B2409F9740D26F7E4083609F70809E6F7E51B24F3
:2027DC0009F886820886830886F0127907FAA3127907FBA3127907FCA3127907FF0ABA0060
:2027FC00090BBB00050CBC00010FE51B2409F886820886830886F0EA1274D4A3EB1274D429
:20281C00A3EC1274D4A3EF1274D4E51B240CF8740926FDE40836FE0886078D828E838FF0AB
:20283C00127907FDA3127907FEA3127907FFA3127907FCED4E4F4C703DE51A2409F8E2FDCF
:20285C0008E2FE08E2FF74042DFDE43EFE8D828E838FF0127907FDA3127907FEE51A24073E
:20287C00F8E2FC08E2FFC3EC9DEF9E5003022A22758203022A48E51A2407F8E2FE08E2C4E5
:20289C00CEC4540F6ECE540FCE6ECEFFE51A2409F8E2FB08E2FC08E2FD74022BFBE43CFCF9
:2028BC008B828C838DF0127907FB7D001BBBFF011DEB5206ED5207EE4F6003022A22A81A2D
:2028DC00E2FD08E2FE08E2FF74092DFDE43EFE8D828E838FF0127907FDA3127907FEA3124F
:2028FC007907FFA31279078D828E838FF01220B9AC82AD83AEF0FFE51A2403F8ECF208ED92
:20291C00F208EEF208EFF2C374019CE49DE49EE49F4006758201022A48E51A2409F8E2FDC9
:20293C0008E2FE08E2FF74062DFDE43EFE8D828E838FF0E51B2405F8127907F6A312790769
:20295C0008F6A312790708F6A312790708F6E51A2403F8E2FA08E2FB08E2FE08E2FFE51B47
:20297C002405F8C3EA96EB0896EE0896EF08964006758203022A48A81AE2FD08E2FE08E20E
:20299C00FF74092DFCE43EFB8F02E51A2403F8A91B09E2F708E209F708E209F708E209F746
:2029BC008C828B838AF0A81B08E61274D4A308E61274D4A308E61274D4A308E61274D4E5B4
:2029DC001B2405F8740D2DF6E43E08F608A607A81B0886820886830886F008E61222ADAA4B
:2029FC0082AB83ACF0FFE51B2405F886820886830886F0EA1274D4A3EB1274D4A3EC127477
:202A1C00D4A3EF1274D4A81AE2FD08E2FE08E2FFE51A2407F8E2FB08E2FC8D828E838FF0E4
:202A3C00EB1274D4A3EC1274D4758200851B81D01BC51AF818E2C51A881C22A81C051CC529
:202A5C001AF208E8C51AC01BE581F51B240FF581E51C2404F51CAFF0AE83E582A81AF20858
:202A7C00EEF208EFF2A81AE2FD08E2FE08E2FF8D828E838FF012250FAF82E51A2403F8EFDC
:202A9C00F2EF600CE51A2403F8E2FFF582022C3BE51A24FCF8E51B240AF9E2F708E209F7ED
:202ABC0008E209F7A81AE51B240DF9E2F708E209F708E209F7E51B240DF8E51B2407F974B6
:202ADC000226F7E4083609F70809E6F7E51B240AF8A91B09740B26F7E4083609F70809E603
:202AFC00F7E51B240DF8E51B2404F9740D26F7E4083609F70809E6F7E51B2404F88682089B
:202B1C0086830886F0127907FAA3127907FBA3127907FCA3127907FFE51B240DF8868208B8
:202B3C0086830886F0127907FDA312790753050FE4C42354E0CDC423CD6DCD54E0CD6DFEA1
:202B5C00900353EAF0EBA3F0ECA3F0EFA3F0900357EDF0EEA3F09003597420F0E4A3F0E506
:202B7C001B240AF886820886830886F0121A8FE58260047F0180027F00E51A2403F8EFF25B
:202B9C00EF6003022C32E51B240AF886820886830886F0127907700AE51A2403F87403F217
:202BBC008074A81B0886820886830886F0127907FF20E343E51B2407F88682088683088602
:202BDC00F0127907FDA3127907FEA3127907FF900388EDF0EEA3F0EFA3F090038B740BF06B
:202BFC00E4A3F0E51B240AF886820886830886F0122004E582601FE51B240DF886820886AA
:202C1C00830886F01226FBAF82E51A2403F8EFF2EF7003022B14E51A2403F8E2FFF5828596
:202C3C001B81D01BC51AF818E2C51A881C22A81C051CC51AF208E8C51AC01B85811B058174
:202C5C0005810581E51C240DF51CAFF0AE83E582A81AF208EEF208EFF2A81AE2FD08E2FEC4
:202C7C0008E2FF74022DFDE43EFE8D828E838FF0127907FDA3127907FEA3127907FFE51AFB
:202C9C002407F8EDF208EEF208EFF2A81C051C051C740BF208E4F208A81C051C7420F20875
:202CBC008D828E838FF0121F74151C151C151CE51A2406F8E4F2E51A2405F8E4F2E51A2411
:202CDC0004F87408F2E51A24FCF8E2FD08E2FE08E2FF8D828E838FF0127907FDA312790744
:202CFC00FEA3127907FFE51A240AF8EDF208EEF208EFF2E51A240AF8E2FD08E2FE08E2FFDC
:202D1C00E51A2407F8E2FA08E2FB08E2FCC002C003C004E51A2405F8E2FCE51A2405F8EC7B
:202D3C0004F2EC2DFCE43EFB8F028C828B838AF0127907FCE51A2403F8ECF2C374209CD0DB
:202D5C0004D003D0024003022E4AC002C003C004E51A2403F8E2FCBC2F09D004D003D0023F
:202D7C00022E4AD004D003D002C002C003C004E51A2403F8E2FCBC2E08D004D003D0028014
:202D9C0019E51A2406F8E2FCE51A2404F8E2FBC3EC9BD004D003D0024053C002C003C00464
:202DBC00E51A2404F8E2FCBC08028008D004D003D002807AD004D003D002C002C003C00477
:202DDC00E51A2403F8E2FCBC2E028008D004D003D002805AD004D003D002E51A2406F87406
:202DFC0008F2E51A2404F8740BF2022D29C005C006C007E51A2406F8E2FFE51A2406F8EF71
:202E1C0004F2A81B08EF2AF6E43B08F608A604E51A2403F8E2FFA81B088682088683088686
:202E3C00F0EF1274D4D007D006D005022D29E51A24FCF8E2FD08E2FE08E2FFE51A240AF877
:202E5C00A91B09E2F708E209F708E209F7E51A2405F8E2FCA81B08EC26FCE40836FB08865A
:202E7C00028D828E838FF0EC1274D4A3EB1274D4A3EA1274D4E51A2407F8E2FD08E2FE088F
:202E9C00E2FF740B2DFDE43EFEE51A2403F8E2FC24DF920040047C0180027C008D828E83FC
:202EBC008FF0EC1274D4758200851B81D01BC51AF818E2C51A881C22A81C051CC51AF208FA
:202EDC00E8C51AC01BE581F51B240FF581E51C2404F51CAFF0AE83E582A81AF208EEF20800
:202EFC00EFF2E51A24F9F8E2FD08E2FE08E2FF8D828E838FF0127907FDBD2010E51A24F9DA
:202F1C00F8E22401F208E23400F280D6E51A24F9F8E2FD08E2FE08E2FF8D828E838FF012C9
:202F3C007907FDBD2F0EE51A24F9F8E22401F208E23400F2A81AE2FD08E2FE08E2FF7405F6
:202F5C002DFDE43EFE8D828E838FF0E41274D4A31274D4A31274D4A31274D4E51A24F9F823
:202F7C00E2FD08E2FE08E2FF8D828E838FF0127907FDBD20005036A81AE2FD08E2FE08E281
:202F9C00FF8D828E838FF012250FAF82E51A2403F8EFF2E51A24FCF8E2FD08E2FE08E2FF3A
:202FBC008D828E838FF0E41274D402312AA81AE51B240AF9E2F708E209F708E209F7E51B25
:202FDC00240AF8E51B240DF9740226F7E4083609F70809E6F7E51A24FCF8A91B09E2F7081D
:202FFC00E209F708E209F7A81B08E51B2404F9740B26F7E4083609F70809E6F7E51A24F935
:20301C00FC7B007A60E51CF82403F51CECF208EBF208EAF208E51B240AF88682088683081C
:20303C0086F0122C4AAC82151C151C151CE51A2403F8ECF2EC600302312AA81B08E51CF948
:20305C002403F51CE6F30908E6F30908E6F309E51B240AF886820886830886F0122A57AC6A
:20307C0082151C151C151CE51A2403F8ECF2EC600302312AE51B240DF886820886830886A7
:20309C00F0127907FAA3127907FBA3127907FC740B2AFAE43BFB8A828B838CF012790770E2
:2030BC006DE51B2404F886820886830886F0127907FC20E40AE51A2403F87403F2804FE5F9
:2030DC001B240AF8E51B2407F9740526F7E4083609F70809E6F7A81B088682088683088657
:2030FC00F012245DAA82AB83ACF0FFE51B2407F886820886830886F0EA1274D4A3EB12742A
:20311C00D4A3EC1274D4A3EF1274D4023018E51A2403F8E2F582851B81D01BC51AF818E24C
:20313C00C51A881C22A81C051CC51AF208E8C51AC01B85811B058105810581051C051C0574
:20315C001CAFF0AE83E582A81AF208EEF208EFF2A81AA91B09E2F708E209F708E209F7E55A
:20317C001A24FBF8E2FA08E2FB08E2FC08E2FF900353EAF0EBA3F0ECA3F0EFA3F090035749
:20319C0074FEF0F4A3F090035904F0E4A3F0A81B0886820886830886F0121A8FE5826006E9
:2031BC0075820302325DA81AE2FD08E2FE08E2FF8D828E838FF0121D58AE82AF83BE550556
:2031DC00BFAA02800675820202325DA81AA91B09E2F708E209F708E209F7E51A24FBF8E224
:2031FC00FA08E2FB08E2FC08E2FF900353EAF0EBA3F0ECA3F0EFA3F09003577452F0E4A39F
:20321C00F09003597402F0E4A3F0A81B0886820886830886F0121A8FE5827022A81AE2FD22
:20323C0008E2FE08E2FF8D828E838FF0121D58AE82AF83BE4608BF41057582008003758297
:20325C0001851B81D01BC51AF818E2C51A881C22A81C051CC51AF208E8C51AC01BE581F514
:20327C001B240EF581E51C2434F51CAFF0AE83E582A81AF208EEF208EFF2900385E4F0A3BA
:20329C00F0A3F01218F4E58230E00675820202395EE51A2428F8E4F208F208F208F2E51A5C
:2032BC002404FF7E007D60E51CF82404F51CE4F208F208F208F2088F828E838DF01231414F
:2032DC00AF82E51C24FCF51CE51A2403F8EFF2BF010280030233E8E51A2404FFE51B2408BC
:2032FC00F8A607087600087660E51A2428F8E2FA08E2FB08E2FC08E2FF900353EAF0EBA390
:20331C00F0ECA3F0EFA3F090035774BEF07401A3F0900359C4F0E4A3F0E51B2408F8868249
:20333C000886830886F0121A8FE582600BE51A2403F87403F20233E8E51A24042404F9E386
:20335C0070030233E8E51A2404FF2408FE7D007C60C000EFA81C051CF2D0008E828D838C16
:20337C00F0121DC5C8E51B240BC8A68208A68308A6F008F6A81C18E2FF151CE51B240BF884
:20339C00E51A2428F9E6F30809E6F30809E6F30809E6F38F027E007F60E51B240BF8E51C20
:2033BC00F92404F51CE6F30908E6F30908E6F30908E6F3098A828E838FF0123141AF82E5E9
:2033DC001C24FCF51CE51A2403F8EFF2E51A2403F8E2FFBF030675820102395EE51A240307
:2033FC00F8E2600675820602395EE51A2404FFE51B240BF8A607087600087660E51A24283A
:20341C00F8E2FA08E2FB08E2FC08E2FF900353EAF0EBA3F0ECA3F0EFA3F0900357740DF06E
:20343C00E4A3F09003597424F0E4A3F0E51B240BF886820886830886F0121A8FE5826006C8
:20345C0075820102395EE51A24042409FF7E007D608F828E838DF0121D58AE82AF83E4FDA8
:20347C00FCE51A242CF8EEF208EFF208EDF208ECF2EE4F4D4C702BE51A24042417FF7E0007
:20349C007D608F828E838DF0121DC5AC82AD83AEF0FFE51A242CF8ECF208EDF208EEF208A9
:2034BC00EFF2E51A2404F92403F8E2FFE51A242CF8E2FB08E2FC08E2FD08E2FE9009BDEFD1
:2034DC00F0E4A3F0A3F0A3F0C000E9A81C051CF2D0008B828C838DF0EE12754DAC82AD833A
:2034FC00AEF0FFA81C18E2F9151CE51A242CF8ECF208EDF208EEF208EFF2A81AC001A91B07
:20351C0009E2F708E209F708E209F7A81B08E51B240BF9740A26F7E4083609F70809E6F73B
:20353C00D001E92401FC7B007A60C000E9A81C051CF2D0008C828B838AF0121D58AE82AFF3
:20355C0083A81C18E2F9151CE51A2428F8C001E51B2404F9E2F708E209F708E209F708E228
:20357C0009F7D0018F05E4FCFFE51B2404F8EE26FEED0836FDEC0836FCEF0836FFE51B241B
:20359C000BF886820886830886F0EE1274D4A3ED1274D4A3EC1274D4A3EF1274D4A81B08A3
:2035BC00740226FDE40836FE088607E38D828E838FF01274D4A81B08740426FDE40836FE3F
:2035DC00088607E92404FC7B007A60C000E51CF82404F51CEFF208EEF208EDF208E9F2D083
:2035FC00008C828B838AF0121D58AB82AC83A81C18E2F918E2FD18E2FE18E2FF881C8D82E4
:20361C008E838FF0EB1274D4A3EC1274D4E92406FF7E007D608F828E838DF0121D58AE820D
:20363C00AF83E4FDFCE51A2430F8EEF208EFF208EDF208ECF2EE4F4D4C702BE51A240424C2
:20365C0013FF7E007D608F828E838DF0121DC5AC82AD83AEF0FFE51A2430F8ECF208EDF243
:20367C0008EEF208EFF2E51A24042401FF7E007D608F828E838DF0121D58AE82AF83E51A30
:20369C002430F8E51B2404F9E2F708E209F708E209F708E209F78E048F05E4FEFFE51B24DF
:2036BC0004F8E6C39CF608E69DF608E69EF608E69FF6E51A242CF8E2FA08E2FB08E2FE0839
:2036DC00E2FFE51B2404F8E6C39AF608E69BF608E69EF608E69FF6A81AA91B09E2F708E2BE
:2036FC0009F708E209F7A81B08740426FAE40836FB0886068A828B838EF0127907FAA312D7
:20371C007907C4CAC4540F6ACA540FCA6ACAFBE4FEFFE51B2404F8E6C39AF608E69BF60807
:20373C00E69EF608E69FF6A81B08740226FCE40836FD0886078C828D838FF0127907900991
:20375C00A9F0E4A3F0A3F0A3F0E51B2404F886820886830886F008E61273C2AC82AD83AE1F
:20377C00F0FFE51B2404F874022CF6E43D08F6E43E08F6E43F08F6A81B08740626FAE408D5
:20379C0036FB0886078A828B838FF0E51B2404F8E61274D4A308E61274D4A308E61274D478
:2037BC00A308E61274D4E51A2403F8E4F2E51B2404F8C3E694F708E694FF08E6940008E6C9
:2037DC0094004008E51A2403F87403F2E51A2403F8E2700675820602395EA81AA91B09E2ED
:2037FC00F708E209F708E209F7E51A2403F8E2FCA81B0886820886830886F0EC1274D4A896
:20381C001B08E51B2404F9740E26F7E4083609F70809E6F7E51A2404241FFC7B007A608C52
:20383C00828B838AF0121DC5AA82AB83ACF0FFE51B2404F886820886830886F0EA1274D47E
:20385C00A3EB1274D4A3EC1274D4A3EF1274D4A81B08E51B2404F9741226F7E4083609F7DE
:20387C000809E6F7A81B08740A26FAE40836FB0886048A828B838CF0E51B240BF8127907D7
:20389C00F6A312790708F6A312790708F6A312790708F6E51A242CF8E2FC08E2FD08E2FE89
:2038BC0008E2FFE51B240BF8EC26F6ED0836F6EE0836F6EF0836F6A81B08740426FAE4081F
:2038DC0036FB0886078A828B838FF0127907FAA3127907C4CAC4540F6ACA540FCA6ACAFB67
:2038FC00E4FFFEE51B240BF8EA26FAEB0836FBEF0836FFEE0836FEE51B2404F8868208866A
:20391C00830886F0EA1274D4A3EB1274D4A3EF1274D4A3EE1274D4A81B08740126FDE40838
:20393C0036FE0886078D828E838FF0E41274D4A81B08900385E6F008E6A3F008E6A3F07595
:20395C008200851B81D01BC51AF818E2C51A881C22A81C051CC51AF208E8C51AC01BE58181
:20397C00F51B2406F581E51C2444F51CAFF0AE83E582A81AF208EEF208EFF2900385E0FD50
:20399C00A3E0FEA3E0FFE51A2441F8EDF208EEF208EFF2ED4E7006758205023B61E51A248E
:2039BC0041F8E2FD08E2FE08E2FF0DBD00010E8D828E838FF0E41274D4E51A2404FF240200
:2039DC00F9E51A2415FE7D007C60EEF309EDF309ECF3E51A2421FE7D007C607B007A60A8F9
:2039FC001AE51CF92403F51CE2F30908E2F30908E2F309E51CF82403F51CEEF208EDF208B5
:203A1C00ECF2088F828B838AF0122ED4AF82E51C24FAF51CE51A2403F8EFF2EF600CE51A3D
:203A3C002403F8E2FFF582023B61E51A2421F9E3600CE51A2421240BF9E3FF30E40675826A
:203A5C0003023B61E51A2441F8E51B2404F9E2F708E209F708E209F7E51B2404F8A91B0992
:203A7C00741E26F7E4083609F70809E6F7E51A2421FEFA7B007C60C000EEA81C051CF2D083
:203A9C00008A828B838CF012245DAA82AB83ACF0FFA81C18E2FE151CA81B0886820886831B
:203ABC000886F0EA1274D4A3EB1274D4A3EC1274D4A3EF1274D4E51B2404F8A91B09741AF0
:203ADC0026F7E4083609F70809E6F7741C2EFC7B007A608C828B838AF0121DC5AA82AB83AA
:203AFC00ACF0FFA81B0886820886830886F0EA1274D4A3EB1274D4A3EC1274D4A3EF127480
:203B1C00D4E51B2404F8741626FDE40836FE0886078D828E838FF0E41274D4A31274D4A3B6
:203B3C001274D4A31274D4E51B2404F8740126FDE40836FE0886078D828E838FF07401127F
:203B5C0074D4758200851B81D01BC51AF818E2C51A881C22A81C051CC51AF208E8C51AC043
:203B7C001BE581F51B2418F581E51C2418F51CAFF0AE83E582A81AF208EEF208EFF2A81A1A
:203B9C00E2FD08E2FE08E2FFE51A2412F8EDF208EEF208EFF2900385E0FDA3E0FEA3E0FF84
:203BBC00E51A2415F8EDF208EEF208EFF2E51A24FAF8E2FD08E2FE08E2FF8D828E838FF0A5
:203BDC00E41274D4A31274D4E51A2415F8E2F5F008E245F070067582050241BBE51A2415D0
:203BFC00F8E2FD08E2FE08E2FF0DBD00010E8D828E838FF0127907FD20E0067582040241B6
:203C1C00BBE51A2415F8E2FD08E2FE08E2FF741A2DFAE43EFB8F048A828B838CF0E51B24CE
:203C3C000FF8127907F6A312790708F6A312790708F6A312790708F674162DFDE43EFE8DDF
:203C5C00828E838FF0127907FDA3127907FEA3127907FFA3127907FCE51B240FF8E6C39D9E
:203C7C00F608E69EF608E69FF608E69CF6E51B240FF8E51A240BF9E6F30809E6F30809E6A1
:203C9C00F30809E6F3E51A24FDF8E2FA08E2FBE4FEFFE51B240FF8C3E69A08E69B08E69EEE
:203CBC0008E69F501AE51A240BF8E2FC08E2FD08E2FE08E2FFE51A24FDF8ECF208EDF2E573
:203CDC001A2415F8E2FD08E2FE08E2FFE51B240CF874162DF6E43E08F608A607E51B240FF0
:203CFC00F874222DF6E43E08F608A607E51B2413F8741E2DF6E43E08F608A607E51B24162F
:203D1C00F874022DF6E43E08F608A607E51B2405F874262DF6E43E08F608A607E51A24FD4E
:203D3C00F8E2F5F008E245F070030241B8E51B240CF886820886830886F0127907FCA31219
:203D5C007907FDA3127907FEA3127907FFEC7004ED30E003023F99E51B240CF8868208866B
:203D7C00830886F0127907A3127907FBA3127907FCA3127907FFA81B08EF0808087600C3F4
:203D9C001318F6EC1318F6EB1318F6E51B2416F886820886830886F0127907FE1E8E047D47
:203DBC00007E007F00A81B088602EC5202E51A2411F8EAF2EA6003023EDBE51B240CF88639
:203DDC00820886830886F0127907FAA3127907FBA3127907FCA3127907FFEA4B4C4F703223
:203DFC00E51B2413F886820886830886F0127907FCA3127907FDA3127907FEA3127907FFBA
:203E1C00E51A2403F8ECF208EDF208EEF208EFF2803FE51B240FF886820886830886F0123F
:203E3C007907FCA3127907FDA3127907FEA31279078C828D838EF01220B9AC82AD83AEF0CD
:203E5C00FFE51A2403F8ECF208EDF208EEF208EFF2E51A2403F8E2FC08E2FD08E2FE08E2DE
:203E7C00FFC374019CE49DE49EE49F4022E51A2415F8E2FD08E2FE08E2FF0DBD00010E8D25
:203E9C00828E838FF0E41274D47582010241BBE51A2403F8E2FC08E2FD08E2FE08E2FFE527
:203EBC001B240FF886820886830886F0EC1274D4A3ED1274D4A3EE1274D4A3EF1274D4E51D
:203EDC001B240FF886820886830886F0127907FCA3127907FDA3127907FEA31279078C82B3
:203EFC008D838EF01222ADAC82AD83AEF0FFE51A2407F8ECF208EDF208EEF208EFF2EC4D4B
:203F1C004E4F7022E51A2415F8E2FD08E2FE08E2FF0DBD00010E8D828E838FF0E41274D4C0
:203F3C007582010241BBE51A2411F8E2FFE51A2407F8A91B09E2F708E209F708E209F708BE
:203F5C00E209F78F057E007A007F00A81B08ED26FDEE0836FEEA0836FAEF0836FFE51B24E1
:203F7C0005F886820886830886F0ED1274D4A3EE1274D4A3EA1274D4A3EF1274D4E51B2468
:203F9C000CF886820886830886F0127907FCA3127907FDA3127907A3127907530501E4C340
:203FBC009CFC74029DFDE51A240FF8ECF208EDF2E51A24FDF8E2FE08E2FFC3EE9CEF9D5044
:203FDC0014E51A24FDF8E2FE08E2FFE51A240FF8EEF208EFF2A81AE2F5F008E245F0700CB9
:203FFC00A81B08E4F608F60876008012E51A2412F8A91B09E2F708E209F708E209F7E51B4B
:20401C002405F886820886830886F0E51B2408F9127907F7A312790709F7A312790709F7B4
:20403C00A312790709F7E51B240CF886820886830886F0127907FCA3127907FDA31279077B
:20405C00A3127907530501E51A240FF8E2FE08E2FFE51B2408F8900353E6F008E6A3F0085A
:20407C00E6A3F008E6A3F0900357ECF0EDA3F0900359EEF0EFA3F0A81B08868208868308AC
:20409C0086F0121A8FE5826022E51A2415F8E2FD08E2FE08E2FF0DBD00010E8D828E838F82
:2040BC00F0E41274D47582010241BBE51B240CF886820886830886F0E51B2408F91279074A
:2040DC00F7A312790709F7A312790709F7A312790709F7E51A240FF8E2FA08E2FB8A068B28
:2040FC0005E4FCFFE51B2408F8EE26FEED0836FDEC0836FCEF0836FFE51B240CF8868208D8
:20411C0086830886F0EE1274D4A3ED1274D4A3EC1274D4A3EF1274D4E51A2412F8E2FD08E1
:20413C00E2FE08E2FFEA2DFDEB3EFEE51A2412F8EDF208EEF208EFF2E51A24FDF8E2FE0882
:20415C00E2FFEEC39AFEEF9BFFE51A24FDF8EEF208EFF2E51A24FAF8E51B2408F9E2F70894
:20417C00E209F708E209F7E51B2408F886820886830886F0127907FCA3127907FFEA2CFACA
:20419C00EB3FFBE51B2408F886820886830886F0EA1274D4A3EB1274D4023D387582008504
:2041BC001B81D01BC51AF818E2C51A881C22A81C051CC51AF208E8C51AC01BE581F51B24EC
:2041DC001BF581E51C2418F51CAFF0AE83E582A81AF208EEF208EFF2A81AE2FD08E2FE0897
:2041FC00E2FFE51A240FF8EDF208EEF208EFF2900385E0FDA3E0FEA3E0FFE51A2415F8EDD3
:20421C00F208EEF208EFF2E51A24FAF8E2FD08E2FE08E2FF8D828E838FF0E41274D4A31268
:20423C0074D4E51A2415F8E2F5F008E245F070067582050249AFE51A2415F8E2FD08E2FEA1
:20425C0008E2FF0DBD00010E8D828E838FF0127907FD20E0067582040249AFE51A24FDF83F
:20427C00E2F5F008E245F06003024310E51A2415F8E2FD08E2FE08E2FF0DBD00010E8D82BC
:20429C008E838FF0127907FD30E63A900360E4F0A3F0A3F0A3F090000075F000121BEFE51D
:2042BC00826022E51A2415F8E2FD08E2FE08E2FF0DBD00010E8D828E838FF0E41274D475D3
:2042DC0082010249AFE51A2415F8E2FD08E2FE08E2FF0DBD00010E8D828E838FF01279075B
:2042FC00FC5304BF8D828E838FF0EC1274D47582000249AFE51A2415F8E2FD08E2FE08E2D9
:20431C00FF0DBD00010E8D828E838FF0127907FD20E65BE51A2415F8E2FD08E2FE08E2FF3A
:20433C00A81B0874162DF6E43E08F608A607A81B0886820886830886F0127907A3127907EB
:20435C00FBA3127907FCA3127907FF7A005303FEA81B0886820886830886F0EA1274D4A3CA
:20437C00EB1274D4A3EC1274D4A3EF1274D4E51A2415F8E2FD08E2FE08E2FF741A2DFAE48E
:20439C003EFB8F048A828B838CF0E51B2404F8127907F6A312790708F6A312790708F6A3EE
:2043BC0012790708F674162DFDE43EFE8D828E838FF0127907FDA3127907FEA3127907FFE8
:2043DC00A3127907FCE51B2404F8E6C39DF608E69EF608E69FF608E69CF6E51B2404F8E5AA
:2043FC001A240BF9E6F30809E6F30809E6F30809E6F3E51A24FDF8E2FA08E2FBE4FEFFE529
:20441C001B2404F8C3E69A08E69B08E69E08E69F501AE51A240BF8E2FC08E2FD08E2FE081B
:20443C00E2FFE51A24FDF8ECF208EDF2E51A2415F8E51B2412F9E2F708E209F708E209F796
:20445C00E51B2412F8E51B240BF9741626F7E4083609F70809E6F7E51B2412F8E51B2404DD
:20447C00F9742226F7E4083609F70809E6F7E51B2412F8A91B09741E26F7E4083609F70890
:20449C0009E6F7E51B2412F8E51B2408F9740226F7E4083609F70809E6F7E51A24FDF8E22A
:2044BC00F5F008E245F070030249ACE51B240BF886820886830886F0127907FCA3127907F1
:2044DC00FDA3127907FEA3127907FFEC7004ED30E003024794E51B240BF8868208868308D7
:2044FC0086F0127907A3127907FBA3127907FCA3127907FFE51B240EF8EF0808087600C399
:20451C001318F6EC1318F6EB1318F6E51B2408F886820886830886F0127907FE1E8E04E466
:20453C00FDFEFFE51B240EF88602EC5202E51A2412F8EAF2EA6003024659E51B240BF886CF
:20455C00820886830886F0127907FAA3127907FBA3127907FCA3127907FFEA4B4C4F70309D
:20457C00A81B0886820886830886F0127907FCA3127907FDA3127907FEA3127907FFE51A97
:20459C002403F8ECF208EDF208EEF208EFF2803FE51B2404F886820886830886F012790742
:2045BC00FCA3127907FDA3127907FEA31279078C828D838EF01220B9AC82AD83AEF0FFE5E2
:2045DC001A2403F8ECF208EDF208EEF208EFF2E51A2403F8E2FC08E2FD08E2FE08E2FFC379
:2045FC0074019CE49DE49EE49F4022E51A2415F8E2FD08E2FE08E2FF0DBD00010E8D828E50
:20461C00838FF0E41274D47582010249AFE51A2403F8E2FC08E2FD08E2FE08E2FFE51B2474
:20463C0004F886820886830886F0EC1274D4A3ED1274D4A3EE1274D4A3EF1274D4E51B24A0
:20465C0004F886820886830886F0127907FCA3127907FDA3127907FEA31279078C828D8365
:20467C008EF01222ADAC82AD83AEF0FFE51A2407F8ECF208EDF208EEF208EFF2EC4D4E4F36
:20469C007022E51A2415F8E2FD08E2FE08E2FF0DBD00010E8D828E838FF0E41274D47582DF
:2046BC00010249AFE51B2412F8E51B2415F9742626F7E4083609F70809E6F7E51A2412F88F
:2046DC00E2FFE51A2407F8E51B2418F9E2F708E209F708E209F708E209F78F05E4FEFCFF7E
:2046FC00E51B2418F8ED26FDEE0836FEEC0836FCEF0836FFE51B2415F88682088683088606
:20471C00F0ED1274D4A3EE1274D4A3EC1274D4A3EF1274D4900360EDF0EEA3F0ECA3F0EFC7
:20473C00A3F090000075F000121BEFE5826022E51A2415F8E2FD08E2FE08E2FF0DBD000125
:20475C000E8D828E838FF0E41274D47582010249AFE51B2412F8740126FDE40836FE0886EC
:20477C00078D828E838FF0127907FC4304408D828E838FF0EC1274D4E51B240BF886820846
:20479C0086830886F0127907FCA3127907FDA3127907A3127907530501E4C39CFC74029DA1
:2047BC00FDE51A2413F8ECF208EDF2E51A24FDF8E2FE08E2FFC3EE9CEF9D5014E51A24FDAF
:2047DC00F8E2FE08E2FFE51A2413F8EEF208EFF2E51A240FF8E2FD08E2FE08E2FFE51A2408
:2047FC0013F8E2FB08E2FC900360EBF0ECA3F0E4A3F0A3F08D828E838FF0121BEFE58260F6
:20481C0022E51A2415F8E2FD08E2FE08E2FF0DBD00010E8D828E838FF0E41274D4758201CC
:20483C000249AFE51B240BF886820886830886F0E51B2418F9127907F7A312790709F7A30E
:20485C0012790709F7A312790709F7E51A2413F8E2FA08E2FB8A048B05E4FEFFE51B24184B
:20487C00F8EC26F6ED0836F6EE0836F6EF0836F6E51B240BF886820886830886F0E51B24D4
:20489C0018F9E71274D4A309E71274D4A309E71274D4A309E71274D4E51A240FF8E2FD08D2
:2048BC00E2FE08E2FFEA2DFDEB3EFEE51A240FF8EDF208EEF208EFF2E51A24FDF8E2FE08FE
:2048DC00E2FFEEC39AFEEF9BFFE51A24FDF8EEF208EFF2E51A24FAF8E51B2415F9E2F70800
:2048FC00E209F708E209F7E51B2415F886820886830886F0127907FCA3127907FFEA2CFA36
:20491C00EB3FFBE51B2415F886820886830886F0EA1274D4A3EB1274D4E51B2418F88604A4
:20493C00088605EC7004ED30E0030244B6900360E4F0A3F0A3F0A3F090000075F000121BCA
:20495C00EFE5826021E51A2415F8E2FD08E2FE08E2FF0DBD00010E8D828E838FF0E41274A2
:20497C00D4758201802DE51B2412F8740126FDE40836FE0886078D828E838FF0127907FCFA
:20499C005304BF8D828E838FF0EC1274D40244B6758200851B81D01BC51AF818E2C51A88C9
:2049BC001C2290039775F00012326CE582600475820222900397E0FFBF030280047582012F
:0549DC0022758200229B
:087D5500BE496D39703BCA41C3
:2049E100A81C051CC51AF208E8C51A051C75FE01126F6975FA0075F901126F69A81AE5FE45
:204A0100F2A81AE2FF20E3F4C51AF818E2C51A881C22A81C051CC51AF208E8C51AC8E51C45
:204A21002405F51CC8AF82AE83ADF0FCA81AEFF208EEF208EDF208ECF2E51A2404F8E5FE1E
:204A4100F2E51A2404F8E2FF20E3EEA81A1818E2F5FAA81AE2FC08E2FD08E2FE08E2E51A57
:204A61002404F8ECF2E51A2404F8E2F5FDE51A2404F8EDF2E51A2404F8E2F5FCE51A24042D
:204A8100F8EEF2E51A2404F8E2F5FB75F902126F69C51AF818E2C51A881C22A81C051CC5D2
:204AA1001AF208E8C51AC8E51C2405F51CC8AF82AE83ADF0FCA81AEFF208EEF208EDF208DA
:204AC100ECF2E51A2404F8E5FEF2E51A2404F8E2FF20E3EEA81AE2FC08E2FD08E2FE08E2B9
:204AE100E51A2404F8ECF2E51A2404F8E2F5FDE51A2404F8EDF2E51A2404F8E2F5FCE51AD6
:204B01002404F8EEF2E51A2404F8E2F5FB75F903126F69E51A2404F8E5FEF2E51A2404F835
:204B2100E2FF20E3EE126F69126F69126F69E51A2404F8E5FAF2E51A2404F8E2F582C51A9D
:084B4100F818E2C51A881C22D5
:067D5D00E149134A9C4AB3
:204B4900A81C051CC51AF208E8C51A051C051C051CE582A81AF2E5EAA81AE2FF741F5F44A1
:204B690020F5E9000000E5EC30E3FB000000E5EC20E2FB00000075E8010000E5EAE5EC2063
:204B8900E2FB75E800E5EC30E3FB000000E5EA000000E5EC30E3FB000000A81A0808E5EBA3
:204BA900F2A81A08E5EAF2A81A0808E2FE7F00A81A08E27C002FFFEC3EFE8F828E83C51ABF
:204BC900F818E2C51A881C22A81C051CC51AF208E8C51A051CE582A81AF2E5EC20E2FBA8FE
:204BE9001AE2FF741F5FF5E975E801000000E5EC20E2FBE51A24FDF8E2FE08E2FF8EE8005E
:204C09000000E5EC20E2FB00000075E90075E800000000E5EC20E2FBC51AF818E2C51A88FC
:204C29001C2275EC82900064E4F5F012675875EC02900064E4F5F012675875EC82900064F4
:204C4900E4F5F012675875EC82A81C051C051C7418F208E4F208758203124BD1151C151CDA
:204C6900A81C051C051C74FFF208E4F208758204124BD1151C151CA81C051C051C7410F2D3
:204C890008E4F208758201124BD1151C151CA81C051C051CE4F208F208758202124BD11583
:204CA9001C151CA81C051C051C743AF208E4F208758205124BD1151C151CA81C051C051C80
:204CC900747CF208E4F208758206124BD1151C151CA81C051C051C746FF208E4F2087582BE
:204CE90007124BD1151C151CA81C051C051C740FF208E4F208758209124BD1151C151C2201
:204D0900A81C051CC51AF208E8C51A051CE582A81AF2A81AE27017A81C051C051CE4F208BA
:204D2900F208758207124BD1151C151C803EA81AE214FFA81AF2A81AE2FF24E05005A81AFB
:204D4900741FF2A81AE225E025E0A81AF2A81AE2FF4307037E00A81C051C051CEFF208EE18
:204D6900F208758207124BD1151C151CC51AF818E2C51A881C22A81C051CC51AF208E8C5C1
:204D89001A051C051CAF83E582A81AF208EFF2E5EC20E2FBA81AE2FE08E2FF8FE974FE5ED7
:204DA900F5E8C51AF818E2C51A881C22A81C051CC51AF208E8C51A051C051CE5EC30E3FBF1
:204DC900A81AE5EBF2A81A08E5EAF2A81AE2FE7F00A81A08E27C002FFFEC3EFE8F828E83FA
:204DE900C51AF818E2C51A881C22A81C051CC51AF208E8C51AE51C2407F51CAF83E582A831
:204E09001AF208EFF2A81AE2FE08E2A2E713CE13CEA2E713CE13CEFFA81AEEF208EFF2A840
:204E29001AE2FE08E2FF30E721A81AE2FE08E2FFC3E49EFEE49FFFA81AEEF208EFF2A81AB1
:204E49000808747FF208E4F2800AA81A080874FFF208E4F2A81AE2FE08E2FFC374DF9E7424
:204E69009F8FF063F08095F05009A81A74DFF208741FF2A81AE2FE08E2FFA81A74212EF2C4
:204E8900E43F08F2E51A2406F8E4F2A81AE2FE08E2FFE51A2406F8E275F002A42409F582B8
:204EA900740A35F0F583E0FCA3E0FDC3EE9CEF64808DF063F08095F04015E51A2406F8E225
:204EC9002401F2E51A2406F8E2FDBD080040C3E51A2406F8E2FF24F85008E51A2406F874DF
:204EE90007F2E51A2406F8E2FFE51A2404F8EFF208E4F2900A17E0FEA3E0FFA81AE2FC0817
:204F0900E2FDC3EE9CEF64808DF063F08095F05010A81A0808E2FE08E2FF63067F8E828041
:204F290055E51A2404F8E2FE08E2FF8E05EDC454F0FD0EBE00010FA81AE2FB08E2FC8EF0C7
:204F490005F0AE03AF04EC3392D28008A2D2EF13FFEE13FED5F0F553060FE4FFFCED42063A
:204F6900EC4207A81A0808E2FD08E2FF7C00EE6205EC62078D82C51AF818E2C51A881C22AE
:204F8900A81C051CC51AF208E8C51A051C051C051CE582A81AF2A81AE2F4A81AF2A81AE215
:204FA900FF740F5FFEE40354F8CEC403CE6ECE54F8CE6EFD74842EFEE43DFD74705FFCE44D
:204FC900CCC4540F6CCC540FCC6CCCFB8CF005F08006EE2EFEED33FDD5F0F7A81A08EEF2A7
:204FE90008EDF2EF30E716A81A08E2FE08E2FF7484C39EFEE49FFF8E828F838014A81A08B9
:20500900E2FE08E2FFEE247CFEEF34FFFF8E828F83C51AF818E2C51A881C22A81C051CC5CF
:205029001AF208E8C51AE51C2406F51CAF83E582A81AF208EFF2A81AE2FE08E2FF9009D620
:205049007408F0E4A3F08E828F831277E5AE82AF83A81AEEF208EFF2A81AE2FE08E2FF203C
:20506900E709A81A080874D5F28021A81A08087455F2A81AE2FE08E2FFC3E49EFEE49FFFAC
:205089001EBEFF011FA81AEEF208EFF2E51A2405F8E4F2A81AE2FE08E2FFE51A2405F8E2FE
:2050A90075F002A42419F582740A35F0F583E0FCA3E0FDC3EE9CEF64808DF063F08095F0BC
:2050C9004015E51A2405F8E22401F2E51A2405F8E2FDBD080040C3E51A2405F8E2FF24F875
:2050E9005008E51A2405F87407F2E51A2405F8E2FFE51A2403F8EFF2900A27E0FEA3E0FFA1
:20510900A81AE2FC08E2FDC3EE9CEF64808DF063F08095F0500EA81A0808E2FF63077F8F81
:20512900820251D9E51A2403F8E2FFC454F0FEE51A2404F8EEF2BF02005036A81AE2FE08C3
:20514900E2A2E713CE13CEFFA81AEEF208EFF2A81AE2FE08E253060F7F00E51A2404F8E21B
:20516900FD7C004206EC4207E51A2404F8EEF2804EE51A2403F8E2FFA81AE2FD08E2FE8F4C
:20518900F005F0AF05AC06EE3392D28008A2D2EC13FCEF13FFD5F0F5A81AEFF208ECF2A853
:2051A9001AE2FE08E253060F7F00E51A2404F8E2FD7C004206EC4207E51A2404F8EEF2A87D
:2051C9001A0808E2FFE51A2404F8E2FE62078F82C51AF818E2C51A881C22A81C051CC51A08
:2051E900F208E8C51AE51C2404F51CE582A81AF2A81AE2FFA81A74556FF2A81AE2FF740FDB
:205209005FFEE4C454F0CEC4CE6ECE54F0CE6EFDA81A08EEF208EDF2530770EFC4540FFFB3
:2052290053070FE51A2403F8EFF2EF7015A81A08E2FE08E2FFA81A0874082EF2E43F08F273
:205249008065E51A2403F8E2FFBF0116A81A08E2FE08E2FFA81A0874082EF274013F08F2E4
:205269008045A81A08E2FE08E2FFA81A0874082EF274013F08F2E51A2403F8E2FF7E001F1D
:20528900BFFF011EA81A08E2FC08E2FD8FF005F0AF04AE058006EF2FFFEE33FED5F0F7A899
:2052A9001A08EFF208EEF2A81AE2FF30E70EA81A08E2FE08E2FF8E828F838013A81A08E23E
:1952C900FE08E2FFC3E49EFEE49FFF8E828F83C51AF818E2C51A881C2288
:107D63002B4C494BD14BB54D7F4DF34D894F094DAD
:207DBF003F007F00FF00FF01FF03FF07FF0FFF1F1F003F007F00FF00FF01FF03FF07FF0FC1
:2052E200A81C051CC51AF208E8C51A051CE582A81AF2A81AE2C40354F8FF04F5F700000045
:20530200000000C51AF818E2C51A881C2275F70022E5F7000000E5F730E1FBE5F7000000E7
:20532200E5F730E1FB0000009003C1E5F5F09003C2E5F6F09003C1E0FE7F009003C2E07CE3
:20534200002FFFEC3E8F82F5832275821E1252E212531302530FA81C051CC51AF208E8C5A6
:205362001A051CE582A81AF2A81AE2FF0F8F821252E2125313C51AF818E2C51A881C227569
:2053820082111252E20000009003C774FFF0A3F0009003C7E0FEA3E0FF1EBEFF011F90039A
:2053A200C7EEF0EFA3F09003C7E0F5F0A3E045F070DE000000125313E5828583F09003CB6A
:2053C200F0E5F0A3F000000075F7009003C3E4F0A3F09003C574A5F0E4A3F09003CBE0FE36
:2053E200A3E0FF9003C5E0FCA3E0FD9003C3E0FAA3E0FBEC2AFCED3BFD0CBC00010DEDC30A
:2054020013CC13CCFD9003C7ECF0EDA3F0EDCC25E0CC33FDEC2429F582ED340AF583E0FC30
:20542200A3E0FD9003C9ECF0EDA3F0C3EE9CEF9D50129003C7E0FCA3E0FD9003C3ECF0ED22
:20544200A3F0801F9003C9E0FCA3E0FDC3EC9EED9F502F9003C7E0FCA3E0FD9003C5ECF01E
:20546200EDA3F09003C3E0FCA3E0FD0CBC00010D9003C5E0FAA3E0FBC3EC9AED9B5003024C
:1654820053E59003C7E0FEA3E0FFEE24D8FEEF34FF8E82F583226E
:087D73004C53585381530F5388
:207DDF00D60ED40ED30ED10ED00ECE0ECC0ECA0EC90EC60EC50EC40EC30EC10EBF0EBD0E0A
:207DFF00BB0EBA0EB80EB60EB50EB40EB20EAF0EAC0EAA0EA80EA70EA60EA40EA20EA00EA6
:207E1F009E0E9C0E9A0E980E950E940E930E920E8F0E8D0E890E880E870E850E830E810E6C
:207E3F007F0E7D0E7B0E780E770E760E740E730E720E710E700E6F0E680E640E620E600E30
:207E5F005E0E5D0E5C0E590E560E530E520E500E4E0E4C0E4A0E480E460E430E400E3D0E36
:207E7F003B0E3A0E390E380E360E340E320E300E2E0E2C0E290E260E230E200E1D0E1A0E2E
:207E9F00170E140E110E0E0E0B0E0A0E090E080E070E060E050E010EFE0DFB0DF80DF50D7E
:207EBF00F20DEF0DEC0DE90DE60DE30DE00DDF0DDE0DDD0DDC0DDB0DDA0DD60DD20DCE0DD3
:207EDF00CA0DC60DC50DC40DC20DBF0DBC0DB90DB60DB30DB00DAD0DAC0DAA0DA80DA60D3A
:207EFF00A40DA20DA10D9E0D9B0D980D950D920D8F0D8C0D890D850D840D830D800D7B0D89
:0C7F1F007A0D790D750D700D680D670D61
:20549800900B77E0FF0F900B76E0FEB50701229008F2E5EBF09008F3E5EAF09008F2E0FE2A
:2054B8007F009008F3E07C002FFFEC3EFE900B77E0FD04F0ED75F002A424CDF58274033529
:2054D800F0F583EFF0EEA3F022A81C051CC51AF208E8C51AC01BE581F51B2404F581051C35
:2054F800E582A81AF2A81AE2FF75F004A4248DF582740835F0F583E0FBA3E0FCA3E0FDA30B
:20551800E0FE9008CFEBF0ECA3F0EDA3F0EEA3F09008D4EBF0ECA3F0EDA3F0EEA3F0900874
:20553800D3EFF09008DCEF04F0A81A1818E2FF9008DCE0FEC3EF9E500302562AC0079008A1
:20555800DCE075F004A4248DF582740835F0F583A81B08E0F6A3E008F6A3E008F6A3E008FB
:20557800F69008CFE0FAA3E0FDA3E0FEA3E0FFA81B08C3EA96ED0896EE0896EF64800886D3
:20559800F063F08095F0D00750319008DCE0FE75F004A4248DF582740835F0F583E0FAA336
:2055B800E0FBA3E0FCA3E0FD9008CFEAF0EBA3F0ECA3F0EDA3F09008D3EEF0C0079008DCB7
:2055D800E0FE75F004A4248DF582740835F0F583A81B08E0F6A3E008F6A3E008F6A3E00859
:2055F800F69008D4E0FBA3E0FCA3E0FDA3E0FFA81B089008D4E62BF008E63CA3F008E63DB5
:20561800A3F008E63FA3F09008DCEE04F0D0070255479008CFA81B08E0F6A3E008F6A3E048
:2056380008F6A3E008F69008D4E0FAA3E0FBA3E0FEA3E0FFA81B089008D4EAC396F0EB08AF
:2056580096A3F0EE0896A3F0EF0896A3F0851B81D01BC51AF818E2C51A881C2290098D74AE
:2056780098F07454A3F07480A3F0758206126F95907D63E493FEA3E493FFC000A81C051CF2
:20569800051CEFF208EEF2D0008E828F83120039A81C18E218E2881C22126F92900B77E048
:2056B800FF0F900B76E0FEB507329008DCE4F09008DCE0FF04F0EF75F002A424CDF5827482
:2056D8000335F0F583E4F0A3F09008DCE070E0900B76E4F0900B77F0900B75F0026F8FC060
:2056F8001BE581F51B2414F581900B77E0FF900B76E0FEEFB5060302609A126F92900B75A7
:20571800E0FF04F0EF75F002A424CDFE740535F0FF900B76E0FD04F0ED75F002A424CDF558
:2057380082740335F0F583E0FCA3E0FD8E828F83ECF0EDA3F0126F8F900B75E070AB90082E
:20575800DCE4F09008DDE4F09008DCE075F00CA424CDFE740735F0FF9008DDE025E025E0E2
:20577800FD2EF582E43FF583E4F0A3F0A3F0A3F09008DDE02401F0E0FFBF030040CA90089A
:20579800DCE02401F0E0FFBF100040B79008E174FFF0747FA3F09008E37401F003A3F09013
:2057B80008DCE4F09008DCE075F002A424CDF582740535F0F583E0FEA3E0FF9008DFEEF087
:2057D800EFA3F09008E1E0FCA3E0FDC3EE9CEF64808DF063F08095F050109008DFE0FEA30D
:2057F800E0FF9008E1EEF0EFA3F09008E3E0FEA3E0FF9008DFE0FCA3E0FDC3EE9CEF64800B
:205818008DF063F08095F050109008DFE0FEA3E0FF9008E3EEF0EFA3F09008DCE02401F020
:20583800E070819008E3E0FEA3E0FF9008E1E0FCA3E0FDEE2CFCEF3DA2E713CC13CCFD90B9
:2058580008E5ECF0EDA3F09008E77401F0E4A3F0C3EF6480948140169008E1E0FEA3E0FFB2
:20587800C3E49E747F8FF063F08095F050079008E7E4F0A3F09008E3E0FEA3E0FFC3E49EA4
:2058980074C08FF063F08095F0400F9008E1E0FEA3E0FFC36480944050089008DE7402F00E
:2058B80080059008DEE4F09008DCE4F09008DCE075F002A424CDFE740535F0FF8E828F83AC
:2058D800E0FCA3E0FD9008E5E0FAA3E0FBECC39AFCED9BFD8E828F83ECF0EDA3F09008DCC3
:2058F800E075F002A424CDFE740535F0FF8E828F83E0FCA3E0FD9008E7E0FAA3E0FB90092B
:20591800B7EAF0EBA3F0C000A81C051C051CEFF208EEF2D0008C828D831274EFAC82AD8310
:20593800A81C18E2FE18E2FF881C8E828F83ECF0EDA3F09008DCE075F002A424CDFE7405B1
:2059580035F0FF8E828F83E0FCA3E0FD9008DEE0FB8BF005F0ED3392D28008A2D2ED13FD4F
:20597800EC13FCD5F0F58E828F83ECF0EDA3F09008DCE02401F0E060030258C49008DCE4BA
:20599800F09008DCE075F002A424CDF582740535F0F583E0FEA3E0FF9008EAEEF0EFA3F0E0
:2059B800EF3395E0A3F0A3F09008DDE4F09008DDE0FF75F002A42478F582740B35F0F5833B
:2059D800E0FDA3E0FEA81B08A60508A606EE3395E008F608F6EF75F00CA424CDFF740735F1
:2059F800F0FA8F828A83A3A3A3A3E0FBA3E0FCA3E0FDA3E0FE9009BDEBF0ECA3F0EDA3F070
:205A1800EEA3F0C000A81C051C051CEFF208EAF2D000A81B0886820886830886F008E61230
:205A3800754DAB82AC83ADF0FEA81C18E2FA18E2FF881C74202CFCE43DFDE43EFEA81B087B
:205A5800A604EDA2E7C633C633A2E7C633C633C6540308F6EE2E25E046F6EE23235403306E
:205A7800E10244FC08F63395E008F6A81B089008EEE6F008E6A3F008E6A3F008E6A3F0E5B8
:205A98001B2405F874082FF6E43A08F69008EAE0FBA3E0FCA3E0FDA3E0FEA81B08E62BF646
:205AB80008E63CF608E63DF608E63EF68F828A83E0FDA3E0FAA3E0FEA3E0FFA81B08E6C37C
:205AD8009DFD08E69AFA08E69EFE08E69FFFE51B2405F88682088683EDF0EAA3F0EEA3F067
:205AF800EFA3F09008DDE075F00CA424CDFE740735F0FF8E828F83A3A3A3A3E0FAA3E0FB0E
:205B1800A3E0FCA3E0FD8E828F83EAF0EBA3F0ECA3F0EDA3F09008DDE075F00CA424CDFE9C
:205B3800740735F0FF74042EFCE43FFD74082EF582E43FF583E0FAA3E0FBA3E0FEA3E0FFD5
:205B58008C828D83EAF0EBA3F0EEA3F0EFA3F09008DDE02401F0E0FFBF100050030259C529
:205B78009008DCE02401F0E060030259999008DCE4F09008DCE075F00CA424CDFE7407351D
:205B9800F0FF74042EFEE43FFF8E828F83E0FAA3E0FBA3E0FCA3E0FDEBA2E7CA33CA33CA87
:205BB8005401FBEC2C4BFBEDA2E7CC33CC33CC540130E00244FEFD8E828F83EAF0EBA3F0BF
:205BD800ECA3F0EDA3F09008DCE075F00CA424CDFE740735F0FF8E828F83E0FAA3E0FBA39A
:205BF800E0FCA3E0FDEBA2E7CA33CA33CA5401FBEC2C4BFBEDA2E7CC33CC33CC540130E0A6
:205C18000244FEFD8E828F83EAF0EBA3F0ECA3F0EDA3F09008DCE02401F0E0FFBF1000504B
:205C380003025B8A9008DCE4F09008DCE0FF75F002A42478F582740B35F0F583E0FDA3E02D
:205C5800FEA81B08A60508A606EE3395E008F608F6EF75F00CA4C8E51B2407C824CDF67458
:205C78000735F008F6E51B2407F8E51B2405F9740426F7E4083609F7E51B2405F8868208B5
:205C98008683E0FBA3E0FCA3E0FDA3E0FE9009BDEBF0ECA3F0EDA3F0EEA3F0C000EFA81C64
:205CB800051CF2D000A81B0886820886830886F008E612754DAB82AC83ADF0FEA81C18E210
:205CD800FF151C74202CFCE43DFDE43EFEE51B2409F8A604EDA2E7C633C633A2E7C633C603
:205CF80033C6540308F6EE2E25E046F6EE2323540330E10244FC08F63395E008F6E51B243B
:205D180009F89008EEE6F008E6A3F008E6A3F008E6A3F0EF75F004A4A81B08248DF67408A1
:205D380035F008F6E51B2405F88682088683E0FAA3E0FDA3E0FEA3E0FF9009BDEAF0EDA3D1
:205D5800F0EEA3F0EFA3F08A828D838EF0EF12754DC8E51B240DC8A68208A68308A6F0081B
:205D7800F6E51B2407F88682088683E51B2411F9E0F7A3E009F7A3E009F7A3E009F7E51B4B
:205D98002411F89009BDE6F008E6A3F008E6A3F008E6A3F0E51B2411F8868208868308863B
:205DB800F008E612754DAC82AD83AEF0FFE51B240DF8EC26F6ED0836F6EE0836F6EF08367D
:205DD800F6E51B2411F89009BDE6F008E6A3F008E6A3F008E6A3F0E51B2409F8868208861E
:205DF800830886F008E612754DAA82AB83AEF0FFE51B240DF8E6C39AFA08E69BFB08E69E5B
:205E1800FE08E69FFFA81B088682088683EAF0EBA3F0EEA3F0EFA3F09008DCE02401F0E058
:205E3800FFBF10005003025C419008DC7404F09008DCE075F004A4248DFE740835F0FF8E70
:205E5800828F83E0FAA3E0FBA3E0FCA3E0FDEBA2E7CA33CA33A2E7CA33CA33CA5403FBEC46
:205E78002C25E04BFBEDA2E7CC33CC33A2E7CC33CC33CC540330E10244FCFD8E828F83EA19
:205E9800F0EBA3F0ECA3F0EDA3F09008DCE02401F0E0FF24F850989008DC740CF09008DCD9
:205EB800E075F004A4248DFE740835F0FF8E828F83E0FAA3E0FBA3E0FCA3E0FDEBA2E7CAD7
:205ED80033CA33A2E7CA33CA33CA5403FBEC2C25E04BFBEDA2E7CC33CC33A2E7CC33CC337D
:205EF800CC540330E10244FCFD8E828F83EAF0EBA3F0ECA3F0EDA3F09008DCE02401F0E055
:205F1800FF24F050989008D8E4F09008D9F0A81C051C7407F2087582001254E1151C900868
:205F3800D4E0FCA3E0FDA3E0FEA3E0FF9009BDECF0EDA3F0EEA3F0EFA3F090000CE4F5F0FC
:205F580012754DC8E51B2411C8A68208A68308A6F008F69008CFE0FAA3E0FBA3E0FEA3E0D8
:205F7800FFE51B2411F8C3E69A08E69B08E69E08E664808FF063F08095F0501A9008D3E027
:205F9800FFBF040050109008D8E02401F09008D3E0FF9008DAF0A81C051C740FF20875825D
:205FB800081254E1151C9008D4E0FCA3E0FDA3E0FEA3E0FF9009BDECF0EDA3F0EEA3F0EF5C
:205FD800A3F090000CE4F5F012754DC8E51B2411C8A68208A68308A6F008F69008CFE0FAE2
:205FF800A3E0FBA3E0FEA3E0FFE51B2411F8C3E69A08E69B08E69E08E664808FF063F0805F
:2060180095F0501C9008D3E0FFBF0C0050129008D9E02401F09008D3E0FF24F89008DBF0D1
:206038009008D8E060459008D9E0603F9008DAE025E025E0FF9008DBE0FE9008E92FF09087
:2060580008CEE4F09008D8F09008D9F09008CDE0702B9008CD7401F09008E9E02498F5827F
:20607800E4340BF583E0FFF582801A9008CEE02401F0E0FF24FE50059008CDE4F07582FF9D
:0B60980080037582FE851B81D01B2257
:067D7B007456B156F756E4
:207F2B00000000CA6DA768E964D75E8D39112E0C1C8C0CB449173FDF332825D9D732BEBD9A
:137F4B00A7DC930102030A0405060B0708090C0E000F0D95
:2060A300E5829008F5F0E0FFC423541FFE9008F6F074075FF5F005F07401800225E0D5F0CF
:2060C300FB9008F7F0EE70159008F4E060079008F7E042F1229008F7E0F452F1229008F6E3
:2060E300E0FFBF01159008F4E060079008F7E042F2229008F7E0F4FF52F222E5829008F991
:20610300F0E0FFC423541FFE9008FAF074075FF5F005F07401800225E0D5F0FB9008FBF0E0
:20612300EE70159008F8E060079008FBE04280229008FBE0F45280229008FAE0FFBF01151A
:206143009008F8E060079008FBE04290229008FBE0F4FF529022E5829008FCF0E0FFC423E3
:20616300541FFE9008FDF074075FF5F005F07401800225E0D5F0FB9008FEF0EE7012900828
:20618300FEE0FF558060047F0180027F008F82229008FDE0FFBF01129008FEE0FF55906032
:2061A300047F0180027F008F82227582FF22E5829008FFF0C29C9008FFE0F5991099028090
:2061C300FB22E582900900F0E0FFBF0A005009900900E02430F58222900900E024F6244150
:2061E300F58222E582900901F0E0FF30E71175822D1261B1900901E0FFF4F0E02401F090E1
:206203000901E0FFC2D575F064EF30E704B2D5F4048430D502F404FF900902F0EF600C90B1
:206223000902E0F5821261C51261B1900901E0FF3395E0FE900902E075F064A4D39FF4B37D
:20624300FFEE95F0FE9009D6740AF0E4A3F08F828E831277E5AE82AF83900902EEF0E060CC
:206263000C900902E0F5821261C51261B1900901E0FF75F00AC2D530E704D2D5F40484E51F
:20628300F030D502F404F5821261C50261B1AF82AE83ADF0FC900903EFF0EEA3F0EDA3F0D2
:2062A300ECA3F0900903E0FCA3E0FDA3E0FEA3E0FF30E73C75822D1261B1900903E0FCA3AB
:2062C300E0FDA3E0FEA3E0FF900903ECF4F0EDF4A3F0EEF4A3F0EFF4A3F0900903E024016F
:2062E300F0A3E03400F0A3E03400F0A3E03400F0900907E4F0900907E02408F50FE4340971
:20630300F510900903E0FAA3E0FBA3E0FCA3E0FD900990740AF0E4A3F0A3F0A3F0C000E5A9
:206323001CF82404F51CEDF208ECF208EBF208EAF2D0008A828B838CF0ED127109A882C0B6
