:0400000002003B328D
:01000B0032C2
:03001300026FFA7F
:03001B00026DA3D0
:0100230032AA
:03002B00026FA1C0
:03003300026F4811
:0300B30002003612
:030036000200B60F
:2000B600907D63E493FEA3E493FFC000A82805280528EFF208EEF2D0001200D4800CC00671
:1A00D600C00790100075F00EE422A82818E218E28828120F001213FC80FBFF
:2000F00075820B1260A3AF8290010CEFF0C000EFA8280528F2D000900064E4F5F01266A2E7
:20011000A82818E2FF1528C000EFA8280528F2D00075820B1260A3AE82A82818E2FF15280E
:20013000EFB506BC90010CE0F5822290010FE5F5F0900110E5F6F090010FE0FE7F009001CF
:2001500010E0FD7C0090010DED2FF0EC3EA3F0E5F722907D73E493FEA3E493FFC000A82823
:2001700005280528EFF208EEF2D000A82805280528E4F208F20812018B800BC006C0079034
:20019000787175F0802215281528A82818E218E28828907D67E493FEA3E493FF900109E0F5
:2001B000FD7C007B007A00C000A82805280528EFF208EEF2D000A8280528E4F2081201D27E
:2001D000800CC006C0078D828C838BF0EA221528A82818E218E28828907D73E493FEA3E424
:2001F00093FFC000A82805280528EFF208EEF2D000A82805280528E4F208F2081202118033
:200210000BC006C00790788375F0802215281528A82818E218E28828907D73E493FEA3E43A
:2002300093FF900109E075F003A42402F582740A35F0F583E0FBA3E0FCA3E0FDC000A82874
:2002500005280528EFF208EEF2D000A82805280528E4F208F20812026B800BC006C0078B77
:20027000828C838DF02215281528A82818E218E28828907D73E493FEA3E493FFC000A828B2
:2002900005280528EFF208EEF2D000A82805280528E4F208F2081202AB800BC006C00790F2
:2002B000788675F0802215281528A82818E218E2882822AF83E582900111F0EFA3F0900AD2
:2002D00001E0FF7401C39FF0E0600D900918E4F075820D126048800B900918E4F075820FC1
:2002F000126048900111E0FEA3E0FF7D007C008E828F838DF0EC1266A29009187401F07509
:20031000820D1260489009187401F075820F026048AFF0AE83E582900113F0EEA3F0EFA3E0
:20033000F0900113E0FDA3E0FEA3E0FF8D828E838FF0127851900116F0E4A3F09001130409
:200350002DF0E43EA3F0EFA3F0900113E0FDA3E0FEA3E0FF8D828E838FF0127851FF7D00BF
:20037000900116E0FCA3E0FE900116ED2CF0EF3EA3F0900116E0FEA3E08E82F58322AFF0A8
:20039000AE83E582900118F0EEA3F0EFA3F0900118E0FDA3E0FEA3E0FF8D828E838FF012DF
:2003B0000321AE82AF837D007C00900118E0F9A3E0FAA3E0FB900118740229F0E43AA3F048
:2003D000EBA3F0900118E0F9A3E0FAA3E0FBC000E528F82404F528EFF208EEF208EDF20850
:2003F000ECF2D00089828A838BF0120321AA82AB83A82818E2FC18E2FD18E2FE18E2FF88E6
:20041000288A008B0189038802E4F92EFEE93FFFEA3DFDEB3C8E828F838DF022AFF0AE836C
:20043000E58290031FF0EEA3F0EFA3F0900322E4F090031FE0FDA3E0FEA3E0FF90031BE0F7
:20045000F508A3E0F509A3E0F50A90031EE0F9900322E0F8C39940030204F0C0019003226A
:20047000E0F82DF9E43EFB8F0489828B838CF0127851F9900323F0E82508F8E43509FCABD9
:200490000A88828C838BF0127851F8900324F0B96100D0014011900323E0FC2485400890E5
:2004B0000323E0FC24E0F0900324E0FCBC61004011900324E0FC24854008900324E0FC24FA
:2004D000E0F0900323E0FC900324E0FBECB50302800475820122900322E02401F002045FC5
:2004F00075820022E582900328F0E0FF7E0090032BEFF0EEA3F0900329F0A3F0907D3B932C
:20051000FCA3E493FDC000EDA8280528F2D000E528F82403F5287429F2087403F208E4F225
:2005300008A82805280528EFF208EEF208120542800BC004C00590011B75F00022AC82E5F5
:200550002824FBF528A82818E2FD1528EC701A90032BE0FEA3E0FF900329E0FCA3E0FDEE89
:20057000B50406EFB505028044907D73E493FEA3E493FFC000A82805280528EFF208EEF27C
:20059000D000A82805280528E4F208F2081205A2800BC006C00790788875F08022152815BF
:2005B00028A82818E218E288287582FF22900325E0F5F0A3E045F06033900325E0FDA3E097
:2005D000FEA3E0FF90032BE0FBA3E090031BEDF0EEA3F0EFA3F090031EEBF090011B75F044
:2005F0000012042CE58260047582FF22758200229003257498F07478A3F07480A3F07582FC
:20061000041204F4900325E4F0A3F0A3F07582041204F4900325749DF07478A3F07480A336
:20063000F07582041204F490032574A2F07478A3F07480A3F07582041204F4900325E4F060
:20065000A3F0A3F07582041204F490011B75F00012038EAC82AD83AEF0FF900339ECF0ED1B
:20067000A3F0EEA3F0EFA3F0900325E4F0A3F0A3F07582021204F4900325E4F0A3F0A3F06D
:200690007582021204F490033D7418F090011B75F000120321AE82AF8390032FEEF0EFA320
:2006B000F0BE0105BF000280047582FF22900325E4F0A3F0A3F07582041204F490033DE0B2
:2006D0002404F090011B75F00012038EAC82AD83AEF0FFBC400BBD1F08BE0005BF00028054
:2006F000047582FF22900325E4F0A3F0A3F07582041204F490033DE02404F0900325E4F0C3
:20071000A3F0A3F07582021204F490033DE02402F090011B75F000120321E5828583F090A4
:20073000032DF0E5F0A3F0900325E4F0A3F0A3F07582021204F490033DE02402F0900339DA
:20075000E0FCA3E0FDA3E0FEA3E0FF74142CF50BE43DF50CE43EF50DE43FF50E90033DE05A
:20077000FA7B007E007F00C3EA950BEB950CEE950DEF950E502E900339E0FCA3E0FDA3E0D3
:20079000A3E074142CFCE43DFD90033DE0FFE4FEECC39FFCED9E900325E4F0A3F0A3F08C54
:2007B000821204F49003367404F0E4A3F090032574A7F07478A3F07480A3F075820412041B
:2007D000F4AF82900338EFF090033DE02404F0900325E4F0A3F0A3F0C000EFA8280528F222
:2007F000D0007582041204F4A82818E2FF152890033DE02404F0C000EFA8280528F2D000D8
:2008100090011B75F00012038EAB82AC83ADF0FEA82818E2FF1528900339EBF0ECA3F0ED04
:20083000A3F0EEA3F0EF6031900339E0FCA3E0A3E0A3E0900325E4F0A3F0A3F0C000ECA8DD
:20085000280528F2D0008C821204F4A82818E2FC152890033DE0FF2CF0900336E024FFFEC1
:20087000A3E034FFFF900336EEF0EFA3F0900338E0600F900336E0F5F0A3E045F0600302C5
:2008900007BD900336E0F5F0A3E045F07044907D73E493FEA3E493FFC000A8280528052892
:2008B000EFF208EEF2D000A82805280528E4F208F2081208C7800BC006C0079078AC75F07B
:2008D000802215281528A82818E218E288287582FF2290033DE0900335F090032DE0FEA3B7
:2008F000E0FF900339E0FAA3E0FBA3E0FCA3E0FD9009C9EEF0EFA3F0E4A3F0A3F08A828B83
:20091000838CF0ED12730CAC82AD83AEF0FF900331ECF0EDA3F0EEA3F0EFA3F07582002213
:20093000900331E0FCA3E0FDA3E0FEA3E0FFC3E49CE49D74019EE49F500F900342E4F0A37F
:20095000F004A3F0E4A3F0801C900331E0FCA3E0FDA3E0FEA3E0FF900342ECF0EDA3F0EEAB
:20097000A3F0EFA3F0900346E4F0A3F0A3F0A3F090033EF0A3F0A3F0A3F0900342E0F50FB9
:20099000A3E0F510A3E0F511A3E0F51290033EE0FAA3E0FBA3E0FEA3E0FFC3EA950FEB95AF
:2009B00010EE9511EF951240012290032DE0FEA3E0900325E4F0A3F0A3F08E821204F4E5B8
:2009D0008260012290011B75F000120321AE82AF838E13907D41E493F514A3E493F5159036
:2009F0000346E0FAA3E0FBA3E0FCA3E0FDC000E528F82406F528EFF208EEF208EDF208EC97
:200A1000F208EBF208EAF2D000A8280528E513F208120A26800CC014C0158A828B838CF03F
:200A3000ED221528A82818E2FA18E2FB18E2FC18E2FD18E218E2FF88288F14900346740120
:200A50002AF0E43BA3F0E43CA3F0E43DA3F0907D41E493FDA3E493FF900346E0FAA3E0FB47
:200A7000A3E0FCA3E0FEC000E528F82406F528EFF208EEF208EDF208ECF208EBF208EAF2FB
:200A9000D000A8280528E514F208120A9F800CC005C0078A828B838CF0EE221528A82818E8
:200AB000E2FA18E2FB18E2FC18E2FD18E2FE18E2FF882890034674012AF0E43BA3F0E43C8D
:200AD000A3F0E43EA3F090033EE02401F0A3E03400F0A3E03400F0A3E03400F002099C90CC
:200AF0000331E0FCA3E0FDA3E0FEA3E0FFC3E49CE49D74019EE49F500F90034EE4F0A3F052
:200B100004A3F0E4A3F0801C900331E0FCA3E0FDA3E0FEA3E0FF90034EECF0EDA3F0EEA32A
:200B3000F0EFA3F0900352E4F0A3F0A3F0A3F090034AF0A3F0A3F0A3F090034EE0FCA3E0FB
:200B5000FDA3E0FEA3E0FF90034AE0F8A3E0F9A3E0FAA3E0FBC3E89CE99DEA9EEB9F400139
:200B700022C004C005C006C007907D43E493FAA3E493FB900352E0F8A3E0F9A3E0FEA3E01A
:200B9000FFC000E528F82407F528EFF208EEF208EDF208ECF208EBF208E9F208D0E0C0E083
:200BB000F2D000120BB8800CC002C003888289838EF0EF22AA82A82818E2C0E018E2F91837
:200BD000E218E218E218E2FE18E2FF8828D0007D00900352740128F0E439A3F0E43EA3F06A
:200BF000E43FA3F0907D43E493FEA3E493FF900352E0F8A3E0F9A3E0FBA3E0FCC000E5284E
:200C1000F82407F528EFF208EDF208ECF208EBF208EAF208E9F208D0E0C0E0F2D000120CF2
:200C300033800CC006C007888289838BF0EC22AE82A82818E2C0E018E2F918E2FA18E2FB43
:200C500018E2FC18E2FD18E28828D0008E07E42AFAEF3DFD900352740128F0E439A3F0E451
:200C70003BA3F0E43CA3F0907D4DE493FEA3E493FFC000E528F82404F528EFF208EEF20820
:200C9000EDF208ECF2D000120C9C8009C006C0078A828D8322A82818E218E218E218E28861
:200CB0002890034AE02401F0A3E03400F0A3E03400F0A3E03400F0D007D006D005D00402DD
:200CD0000B57AFF0AE83E582900356F0EEA3F0EFA3F090010BE07041907D73E493FEA3E4E6
:200CF00093FFC000A82805280528EFF208EEF2D000A82805280528E4F208F208120D11801D
:200D10000BC006C0079078C875F0802215281528A82818E218E2882822907D73E493FEA3AC
:200D3000E493FFC000A82805280528EFF208EEF2D000A82805280528E4F208F208120D5237
:200D5000800BC006C0079078E375F0802215281528A82818E218E28828907D73E493FEA3F3
:200D7000E493FF900356E0FBA3E0FCA3E0FDC000A82805280528EFF208EEF2D000A82805D2
:200D9000280528E4F208F208120D9D800BC006C0078B828C838DF02215281528A82818E243
:200DB00018E28828907D39E493FEA3E493FF900356E0FBA3E0FCA3E0FDC000EFA828052836
:200DD000F2D000120DD8800BC006C0078B828C838DF022AE82A82818E2FF1528EE60429021
:200DF0007D73E493FEA3E493FFC000A82805280528EFF208EEF2D000A82805280528E4F2E2
:200E100008F208120E18800BC006C0079078EC75F0802215281528A82818E2FE18E2FF88B2
:200E300028120600E5826041907D73E493FEA3E493FFC000A82805280528EFF208EEF2D0C9
:200E500000A82805280528E4F208F208120E61800BC006C0079078FC75F080221528152862
:200E7000A82818E218E2882822907D73E493FEA3E493FFC000A82805280528EFF208EEF20B
:200E9000D000A82805280528E4F208F208120EA2800BC006C00790791375F0802215281521
:200EB00028A82818E218E28828120930120AEF907D73E493FEA3E493FFC000A82805280560
:200ED00028EFF208EEF2D000A82805280528E4F208F208120EE8800BC006C0079079187589
:200EF000F0802215281528A82818E218E2882822907D63E493FEA3E493FFC000A828052885
:200F10000528EFF208EEF2D000120F1E800CC006C00790C20075F001E422A82818E218E221
:200F300088289007D0E4F5F01266A2907D65E493FEA3E493FFC000EFA8280528F2D0008EAB
:200F5000828F83120039AE82A82818E2FF1528EE602C907D6FE493FEA3E493FFC000A82858
:200F700005280528EFF208EEF2D0008E828F83120039A82818E2FE18E2FF882880AD907D56
:200F900073E493FEA3E493FFC000A82805280528EFF208EEF2D000A82805280528E4F208B5
:200FB000F208120FB7800BC006C00790791F75F0802215281528A82818E218E28828907D0D
:200FD00073E493FEA3E493FFC000A82805280528EFF208EEF2D000A82805280528E4F20875
:200FF000F208120FF7800BC006C00790795975F0802215281528A82818E218E28828907D53
:2010100073E493FEA3E493FFC000A82805280528EFF208EEF2D000A82805280528E4F20834
:20103000F208121037800BC006C00790797B75F0802215281528A82818E218E28828907DAF
:2010500073E493FEA3E493FFC000A82805280528EFF208EEF2D000A82805280528E4F208F4
:20107000F208121077800BC006C0079079B775F0802215281528A82818E218E2882875ED9E
:20109000FF126EB390035AE4F0900359E5EDF090035AE02401FFE43401FE900359E0FD8F3F
:2010B000828E83F0BD10005042907D73E493FEA3E493FFC000A82805280528EFF208EEF27D
:2010D000D000A82805280528E4F208F2081210E2800BC006C0079079C575F08022152815EB
:2010F00028A82818E2FE18E2FF8828907D67E493FEA3E493FF900359E0FD7C007B007A000B
:20111000C000A82805280528EFF208EEF2D000A82805287403F20812112C800CC006C00766
:201130008D828C838BF0EA221528A82818E2FE18E2882890035AE0FFBF07005042907D73A7
:20115000E493FEA3E493FFC000A82805280528EFF208EEF2D000A82805280528E4F208F274
:2011700008121176800BC006C0079079C775F0802215281528A82818E2FE18E2FF88289054
:20119000035AE02401F0E0FFBF08005003021099900359E5E6F0907D73E493FEA3E493FF94
:2011B000C000A82805280528EFF208EEF2D000A82805280528E4F208F2081211CF800BC05D
:2011D00006C0079079C975F0802215281528A82818E218E28828907D6BE493FEA3E493FF65
:2011F000900359E0FD7C007B007A00C000A82805280528EFF208EEF2D000A82805287403AE
:20121000F208121217800CC006C0078D828C838BF0EA221528A82818E218E28828907D55B8
:20123000E493FEA3E493FFC000A82805280528EFF208EEF2D0008E828F83120039A8281838
:20125000E218E288287582001252949009AD743BF07401A3F074FFA3F0758205126EDF9025
:201270007D45E493FEA3E493FFC000A82805280528EFF208EEF2D0008E828F83120039A876
:201290002818E218E28828907D3FE493FEA3E493FFC000A82805280528EFF208EEF2D00015
:2012B0008E828F83120039A82818E218E28828907D53E493FEA3E493FFC000A8280528058D
:2012D00028EFF208EEF2D0001212DD8008C006C00775821C22A82818E218E28828900914D1
:2012F0007401F075820D125FED9009147401F075820F125FED900914E4F075820B125FEDC0
:20131000907D37E493FEA3E493FFC000EFA8280528F2D0008E828F83120039AE82A82818F8
:20133000E2FF1528EE6049907D73E493FEA3E493FFC000A82805280528EFF208EEF2D00057
:20135000A82805280528E4F208F208121360800BC006C0079079D975F0802215281528A8D3
:201370002818E2FE18E2FF882890010BE4F08048907D73E493FEA3E493FFC000A828052891
:201390000528EFF208EEF2D000A82805280528E4F208F2081213A9800BC006C0079079FB8B
:2013B00075F0802215281528A82818E2FE18E2FF882890010B7401F0907D5DE493FEA3E4C4
:2013D00093FFC000A82805280528EFF208EEF2D0008E828F83120039A82818E218E2882807
:2013F00090010A7401F0900109E4F02290010AE090035BF0900109E0FFBF0102800FBF0269
:2014100003021502BF0503021717021747126EDC90010DE0FEA3E0FF90035EEEF0EFA3F09E
:20143000126ED9907D73E493FEA3E493FFC000A82805280528EFF208EEF2D000A8280528B5
:201450000528E4F208F20812145C800BC006C007907A1B75F0802215281528A82818E21855
:20147000E28828907D6BE493F516A3E493F51790035EE0FCA3E0FD8C028D037E007F00C082
:2014900000A82805280528EDF208ECF2D000A8280528E4F2081214AA800CC016C0178A828D
:2014B0008B838EF0EF221528A82818E2FC18E28828C313CC13CCC313CC13CCFD90035EECF6
:2014D000F0EDA3F090035EE0FEA3E0FF90035E74C82EF0E43FA3F090035EE0FEA3E0FF8E5B
:2014F000828F831202C31200F0E58290035BF002176675820B1260A3E58290035CF0907D41
:2015100061E493FEA3E493FFC000EFA8280528F2D0008E828F83120039AE82A82818E2FFF8
:20153000152890035DEEF0EE30E70302165890035DE0FFC374898FF063F08095F05003025D
:201550001658907D73E493FEA3E493FFC000A82805280528EFF208EEF2D000A8280528057A
:2015700028E4F208F20812157B800BC006C007907A2375F0802215281528A82818E2FE1813
:20159000E28828907D67E493F516A3E493F51790035DE0FDFA3395E0FBFCFFC000EDA828AB
:2015B0000528F2D000A8280528E4F2081215C1800CC016C0178A828B838CF0EF221528A8A4
:2015D0002818E2FD1528907D73E493FEA3E493FFC000E528F82403F528EFF208EEF208EDCA
:2015F000F2D000A82805280528E4F208F208121603800BC006C007907A2D75F08022152859
:201610001528A82818E2FD18E2FE18E2FF8828C2D575F003ED30E704B2D5F404A430D50ADC
:20163000F42401C5F0F43400C5F0240BF582740A35F0F583E0FDA3E0FEA3E0FF8D828E832E
:201650008FF0120CD20216FC90035DE0FFBF0E4B907D73E493FEA3E493FFC000A828052845
:201670000528EFF208EEF2D000A82805280528E4F208F208121689800BC006C007907A308F
:2016900075F0802215281528A82818E218E28828907A3D75F080120CD2805190035DE0FF89
:2016B000BF0F49907D73E493FEA3E493FFC000A82805280528EFF208EEF2D000A828052875
:2016D0000528E4F208F2081216DC800BC006C007907A4775F0802215281528A82818E21825
:2016F000E28828907A5475F080120CD275820B1260A3AF8290035CE0FEB5075A90035CE01B
:20171000FF90035BF0804F75820B1260A3907D61E493FEA3E493FFC000A82805280528EF21
:20173000F208EEF2D0008E828F83120039A82818E2FE18E2FF8828900918E4F075820D1276
:201750006048900918E4F075820F1260481200F0E58290035BF090035BE0702C90010AE060
:201770006026900109E0FF7E000FBF00010E9009ED7403F0E4A3F08F828E83127618AE82A9
:11179000900109EEF012016290035BE090010AF022E0
:207871000A0A20546573742053746570203D3D3E20002020000A00776176207265616420FB
:207891006572726F720A0052494646005741564500666D742000646174610063616E206E88
:2078B1006F742066696E642064617461207375627472756E6B0A00206D6963726F534420C0
:2078D1006973206E6F7420617661696C61626C650A00506C6179696E6720000A20534420AA
:2078F1006F70656E206661696C0A000A207761762066696C65206F70656E206572726F72AB
:207911000A00202E2E2E0020446F6E650A003D3D3D3D3D3D3D3D3D3D3D3D3D3D3D3D3D3DA8
:207931003D3D3D3D3D3D3D3D3D3D3D3D3D3D3D3D3D3D3D3D3D3D3D3D3D3D3D3D3D3D3D3D96
:207951003D3D3D3D3D3D0A003D3D20424953542056312E303120666F722050756C736552BA
:2079710061696E204D3130200A003D3D3D3D3D3D3D3D3D3D3D3D3D3D3D3D3D3D3D3D3D3D88
:207991003D3D3D3D3D3D3D3D3D3D3D3D3D3D3D3D3D3D3D3D3D3D3D3D3D3D3D3D3D3D3D3D36
:2079B1003D3D0A0A200043686970204944203D3D3E20200030002D000A204D43552052657C
:2079D10076203D3D3E2020000A206D6963726F534420696E6974206661696C656421212171
:2079F10021212121212121210A000A206D6963726F534420696E69742073756363656564B9
:207A110065642121212121210A0020414443203D200044544D46204B657920002C20004433
:207A3100544D46204B6579202A2C200048454C4C4F2E5741560044544D46204B6579202328
:207A51002C20004259452E5741560049444C452C20416C6C204C4544206F6E004C45442063
:207A7100616E642041444320546573740A0A205468697320746573742077696C6C206164B1
:207A91006A75737420746865204C454420666C617368696E6720696E74657276616C206246
:207AB10061736564206F6E2074686520414443206368616E6E656C20302E0A2053657420E5
:207AD100494F204A756D70657220284A50312920746F2035562C20616E6420757365206113
:207AF100207769726520746F20636F6E6E65637420494F52454620746F2041302E0A2054BC
:207B110075726E2074686520706F74656E74696F6D6574657220746F206F627365727665D6
:207B310020746865204144432076616C756520646973706C61796564206F6E207468652051
:207B510053657269616C20436F6E736F6C652E0A20546865204C45442077696C6C20666C89
:207B710061736820736C6F77206F722066617374206163636F7264696E676C792E0A0044D9
:207B9100544D462C20537065616B65722C205352414D2C206D6963726F534420546573749A
:207BB1000A0A205468697320746573742077696C6C206465746563742044544D4620746F49
:207BD1006E65207468726F75676820746865206F6E626F617264206D6963726F70686F6E4B
:207BF100652E0A20416E642069742077696C6C206C6F61642074686520636F727265737090
:207C11006F6E64656E74207761762066696C652066726F6D206D6963726F534420636172A2
:207C31006420746F205352414D2C207468656E20706C61792074686520617564696F206F86
:207C51007574207468726F75676820616E2065787465726E616C20737065616B65722E0A54
:207C710020546865207761762066696C657320746F2062652073746F726564206F6E2074E5
:207C91006865206D6963726F534420636172642063616E20626520666F756E6420696E20EF
:207CB10074686520617564696F20666F6C646572206E65787420746F207468697320736BEC
:207CD100657463682066696C652E0A005A45524F2E574156004F4E452E5741560054574FA3
:207CF1002E5741560054485245452E57415600464F55522E57415600464956452E57415625
:207D1100005349582E57415600534556454E2E5741560045494748542E574156004E494E33
:067D3100452E57415600EB
:207D7900005C7A806D7A80907B80DD7C80E67C80EE7C80F67C80007D80097D80127D801ADF
:087D99007D80247D802E7D8099
:1300A00090038B74FFF0A3F0A3F0A3F090038FE4F0A3F08A
:2017A100E582900367F075DD00E0F5D8900361E0FCA3E0FDA3E0FEA3E0FF8CD98DDA8EDB50
:2017C1008FDC900366E0035480FF900365E0FE74024E4FF5D7900368E5D8F0E0FF53073F19
:2017E100BF3FF2900368E023235403FF74035FF0E0F58222AF83E58290036AF0EFA3F090AA
:201801000369E0601290036AE0FEA3E0FF90036AEEF074022FA3F090036AE0FEA3E05403E4
:20182100030354C0F5D78EDD126EB3126EB390036CE5DEF0E0F58222900372E4F090036DEC
:2018410014F0A3F0A3F0A3F0900361E4F0A3F0A3F0A3F0900365F0900366F0758200121758
:20186100A1AF82BF010475820222900369E4F09000001217F5AF82BF0102800475820222A6
:2018810075D72190036174AAF07401A3F0E4A3F0A3F09003657410F0900366E4F07582088E
:2018A1001217A1900369E4F09000001217F5E58230E2089003607401F0801C900360740201
:2018C100F0900369E4F09000041217F5AF82BFAA02800475820222900360E0FFBF02379000
:2018E1000361E4F0A3F0A3F0A3F0900365F0900366F07582371217A1900361E4F0A3F0A32F
:20190100F07440A3F0900365E4F0900366F07582291217A18032900361E4F0A3F0A3F0A3AD
:20192100F0900365F0900366F07582371217A1900361E4F0A3F0A3F0A3F0900365F09003F1
:2019410066F07582291217A1900369E4F09000001217F5E582900371F0900372E02401F073
:20196100E0600990000AE4F5F01266A2900371E060030218D8900371E06004758201229075
:201981000360E0FFBF0248900361E4F0A3F0A3F0A3F09003657410F0900366E4F075823A10
:2019A1001217A1900369E4F09000001217F5E582600475820122900369E4F090000112176F
:2019C100F5E5825440FFBF4006900360740CF075820022AFF0AE83E58290037BF0EEA3F0E0
:2019E100EFA3F090037BE0F5F0A3E045F07003F58222900373E0FCA3E0FDA3E0FEA3E0FF68
:201A010090036DE0F8A3E0F9A3E0FAA3E0FBECB5000EEDB5010AEEB50206EFB503028053F3
:201A2100900373E0FCA3E0FDA3E0FEA3E0FF900361ECF0EDA3F0EEA3F0EFA3F0900365E411
:201A4100F090036604F07582111217A1AF82BF0302800475820122900373E0FCA3E0FDA33E
:201A6100E0FEA3E0FF90036DECF0EDA3F0EEA3F0EFA3F0900377E0FEA3E0FF90037EEEF04D
:201A8100EFA3F0900379E0FEA3E0FF900377E0FCA3E0FDEE2CFEEF3DFF90037EE0FCA3E03E
:201AA100FDC3EC9EED9F4003021B3090037BE0FBA3E0FCA3E0FD90037EE0F9A3E0FA9003DD
:201AC100697401F0C000E528F82407F528EFF208EEF208EDF208ECF208EBF208EAF208E9DA
:201AE100F2D00089828A831217F5A882C000A82818E2F918E2FA18E2FB18E2FC18E2FD1852
:201B0100E2FE18E2FF8828D0008B828C838DF0E812741E90037B74012BF0E43CA3F0EDA365
:201B2100F090037E740129F0E43AA3F0021A9A75820022AFF0AE83E582900384F0EEA3F0D6
:201B4100EFA3F0900384E0F5F0A3E045F07003021BE0900380E0FCA3E0FDA3E0A3E09003F6
:201B610087ECF0EDA3F0900389E4F0A3F0900387E0FEA3E0FF900389E0FCA3E0FDC3EC9EBF
:201B8100ED9F4003021C9990038FE0FCA3E0FD8C02C313CA13CAC313CA13CA74405AF5D7DE
:201BA1008CDD900384E0F9A3E0FAA3E0FB89828A838BF0127851F5DF900384740129F0E405
:201BC1003AA3F0EBA3F090038F74012CF0E43DA3F0900389E02401F0A3E03400F0809690F4
:201BE1000380E0F5F0A3E042F0A3E042F0A3E045F06026900380E0FCA3E0FDA3E0FEA3E081
:201C0100FF90038BECF0EDA3F0EEA3F0EFA3F090038FE4F0A3F0021C9990038FE0FEA3E084
:201C2100FF900389EEF0EFA3F0900389E0FEA3E0FFC39402502C900389E0FEA3E0FF8E04C9
:201C4100C313CC13CCC313CC13CCFD74405CF5D78EDD75DF0090038974012EF0E43FA3F084
:201C610080C790038BE0FCA3E0FDA3E0FEA3E0FF900361ECF0EDA3F0EEA3F0EFA3F09003B9
:201C810065E4F0900366F07582181217A1AF82BF030280047582012275820022AFF0AE83CC
:201CA100E582900391F0EEA3F0EFA3F0900391E0FDA3E0FEA3E0FF8D828E838FF012785127
:201CC100900394F0E4A3F0900391042DF0E43EA3F0EFA3F0900391E0FDA3E0FEA3E0FF8D68
:201CE100828E838FF0127851FF7D00900394E0FCA3E0FE900394ED2CF0EF3EA3F0900394DF
:201D0100E0FEA3E08E82F58322AFF0AE83E582900396F0EEA3F0EFA3F0900396E0FDA3E0DB
:201D2100FEA3E0FF8D828E838FF0121C9DAE82AF837D007C00900396E0F9A3E0FAA3E0FB60
:201D4100900396740229F0E43AA3F0EBA3F0900396E0F9A3E0FAA3E0FBC000E528F82404B1
:201D6100F528EFF208EEF208EDF208ECF2D00089828A838BF0121C9DAA82AB83A82818E25D
:201D8100FC18E2FD18E2FE18E2FF88288A008B0189038802E4F92EFEE93FFFEA3DFDEB3C07
:201DA1008E828F838DF022AFF0AE83E58290039BF0EEA3F0EFA3F090039BE0FDA3E0FEA3DA
:201DC100E0FF900399E0FBA3E0FC8B028D828E838FF0EA12741E90039B74012DF0E43EA35E
:201DE100F0EFA3F08C037C00900399EBF0ECA3F090039BE0FDA3E0FEA3E0FF900399E0FBCA
:201E0100A3E08D828E838FF0EB12741E90039B74012DF0E43EA3F0EFA3F022AFF0AE83E542
:201E2100829003A2F0EEA3F0EFA3F090039EE0FCA3E0FDA3E0FEA3E0FF8C188D199003A2E8
:201E4100E0F8A3E0F9A3E0FB900399E518F0E519A3F0C000E528F82404F528EFF208EEF232
:201E610008EDF208ECF2D000888289838BF0121DA8A82818E218E218E2FE18E2FF88289067
:201E810003A2E0F9A3E0FAA3E0FB9003A2740229F0E43AA3F0EBA3F08E048F059003A2E09A
:201EA100FBA3E0FEA3E0FF900399ECF0EDA3F08B828E838FF0021DA8A8280528C526F20855
:201EC100E8C526E5282406F528AFF0AE83E582A826F208EEF208EFF2A826E2FD08E2FE0875
:201EE100E2FFE5262403F8EDF208EEF208EFF2A8261818E2FFE52624FCF8E2FD08E2FEED70
:201F010024FFFBEE34FFFCE52624FCF8EBF208ECF2ED4E6029E5262403F8E2FC08E2FD08E4
:201F2100E2FE8C828D838EF0EF12741EE5262403F874012CF2E43D08F208EEF280B7C526AF
:201F4100F818E2C526882822AFF0AE83E5829003ADF0EEA3F0EFA3F09003ADE0FDA3E0FEC9
:201F6100A3E0FF9003B0EDF0EEA3F0EFA3F09003A8E0FDA3E0FEA3E0FF9003B3EDF0EEA3EC
:201F8100F0EFA3F09003B6E4F09003ABE0FEA3E0FFEE24FFFCEF34FFFD9003ABECF0EDA33D
:201FA100F0EE4F60519003B0E0FDA3E0FEA3E0FF8D828E838FF0127851FC9003B074012DC4
:201FC100F0E43EA3F0EFA3F09003B3E0FDA3E0FEA3E0FF8D828E838FF0127851FB9003B3F8
:201FE10074012DF0E43EA3F0EFA3F0ECC39BFC9003B6F0EC60939003B6E0F58222A8280522
:2020010028C526F208E8C526C027858127C8E581240CF581E528240BF528C8AF82AE83ADC7
:20202100F0FCA826EFF208EEF208EDF208ECF29003A5E0FDA3E0FEA3E0FFE5262408F8ED1B
:20204100F208EEF208EFF2A826E2FC08E2FD08E2FE08E2FFC3EC9402ED9400EE9400EF948D
:20206100004055E5262408F8E2FD08E2FE08E2FF74062DFDE43EFE8D828E838FF0E5272458
:2020810005F8127851F6A312785108F6A312785108F6A312785108F6A826E2FA08E2FB0866
:2020A100E2FE08E2FFE5272405F8C3EA96EB0896EE0896EF08964009900001E4F5F002217E
:2020C100E3E5262408F8E2FD08E2FE08E2FF8D828E838FF0127851FDBD030280030221DD81
:2020E100E5262404FFE5272405F8A607087600087660E5262408F8E2FA08E2FB08E2FC742D
:202101000A2AFAE43BFB8A828B838CF0A82708127851F6A312785108F6A312785108F6A39D
:2021210012785108F6A826E5272409F9E2F708E209F708E209F708E209F7E5272409F88677
:202141000208E6A2E7CA33CA33CA5401FB08E625E04BFB860608E6A2E7CE33CE33CE540190
:20216100FFA82708900373EA26F0EB0836A3F0EE0836A3F0EF0836A3F0E5272409F886048C
:2021810008860553047FE4CC25E0CC33CC25E0CC33FD900377ECF0EDA3F09003797404F07A
:2021A100E4A3F0E5272405F886820886830886F01219D4E5827025E5262404FF7E007D605B
:2021C1008F828E838DF0121D0AAC82AD83AEF0FF53070F8C828D838EF0EF8006900001E43C
:2021E100F5F0852781D027C526F818E2C526882822A8280528C526F208E8C526C027858199
:2022010027C8E5812407F581E5282407F528C8AF82AE83ADF0FCA826EFF208EEF208EDF231
:2022210008ECF29003A5E5272405F8E0F6A3E008F6A3E008F6E5272405F8E5262404F9E63B
:20224100F30809E6F30809E6F3A826E2FA08E2FB08E2FC08E2FFEA24FEFAEB34FFFBEC3419
:20226100FFFCEF34FFFFA826EAF208EBF208ECF208EFF2E5272405F8740626FDE40836FEF9
:202281000886078D828E838FF0127851FDA3127851FEA3127851FFA3127851FCA82708EDFA
:2022A10024FEF6EE34FF08F6EF34FF08F6EC34FF08F6A826E2FA08E2FB08E2FE08E2FFA8A1
:2022C1002708C3EA96EB0896EE0896EF08964009900000E4F5F002238CA826A92709E2F716
:2022E10008E209F708E209F708E209F7E5262404F8E2FA08E2FB08E2FF74022AFCE43BFD92
:202301008F068C828D838EF01278519009DDF0E4A3F0A3F0A3F0C000E528F82403F528EFB5
:20232100F208EBF208EAF2D000A8270886820886830886F008E6127497A82708A68208A6EB
:202341008308A6F008F6A82818E2FA18E2FB18E2FF882874122AFAE43BFB8A828B838FF09E
:20236100127851FAA3127851FBA3127851FFA3127851FEA82708EA26FAEB0836FBEF0836E3
:20238100FFEE0836FE8A828B838FF0852781D027C526F818E2C526882822A8280528C526D4
:2023A100F208E8C526C027E581F5272407F581052805280528AFF0AE83E582A826F208EED1
:2023C100F208EFF2A826A92709E2F708E209F708E209F7A82708741426FAE40836FB0886A3
:2023E100048A828B838CF0121C9DAB82AC838C02E4E5272404F8080808A60218A60318766E
:2024010000187600A82708741A26FDE40836FE0886078D828E838FF0121C9DAE82AF83E440
:20242100FDFCE5272404F8E6420608E6420708E6420508E642048E828F838DF0EC852781F0
:20244100D027C526F818E2C526882822A8280528C526F208E8C526C027E581F527240BF5A8
:2024610081E528240AF528AFF0AE83E582A826F208EEF208EFF29003A5E0FDA3E0FEA3E0A1
:20248100FFE5262407F8EDF208EEF208EFF2A826E2FD08E2FE08E2FF8D828E838FF0E4124B
:2024A100741EA312741E74052DFDE43EFE8D828E838FF0127851FDA3127851FEA31278510E
:2024C100FFA3127851FCE5262403F8EDF208EEF208EFF208ECF2BD010BBE0008BF0005BCB3
:2024E10000028054E5262407F8E2FD08E2FE08E2FF74062DFDE43EFE8D828E838FF0A827F5
:2025010008127851F6A312785108F6A312785108F6A312785108F6E5262403F8E2FA08E27D
:20252100FB08E2FE08E2FFA82708C3EA96EB0896EE0896EF0896400675820102262AE52677
:202541002403F8E2F5F008E242F008E242F008E245F0703DE5262407F8E2FD08E2FE08E2B1
:20256100FF740E2DFDE43EFE8D828E838FF0127851FDA3127851FEA3127851FFA3127851A1
:20258100FCE5262403F8EDF208EEF208EFF208ECF2A826E2FD08E2FE08E2FF74092DFCE476
:2025A1003EFB8F02E5262403F8E5272408F9E2F708E209F708E209F708E209F78C828B8342
:2025C1008AF0E5272408F8E612741EA308E612741EA308E612741EA308E612741EE52724F7
:2025E10005F8740D2DF6E43E08F608A607E5272408F886820886830886F008E61221F2AAE0
:2026010082AB83ACF0FFE5272405F886820886830886F0EA12741EA3EB12741EA3EC1274D5
:202621001EA3EF12741E758200852781D027C526F818E2C526882822A8280528C526F208AE
:20264100E8C526C027E581F527240EF581E528240CF528AFF0AE83E582A826F208EEF20854
:20266100EFF29003A5E0FDA3E0FEA3E0FFE5262409F8EDF208EEF208EFF2A826E2FD08E2E9
:20268100FE08E2FF8D828E838FF0127851FDA3127851FE0DBD00010EE5262407F8EDF20871
:2026A100EEF2ED4E6030A826E2FD08E2FE08E2FF740D2DFDE43EFE8D828E838FF0127851AB
:2026C100FDA3127851FEA3127851FFA3127851FCED4E4F4C7006758203022986E52624075C
:2026E100F8E2FE08E2FFEE540F6003022960A826E527240CF9E2F708E209F708E209F7E544
:2027010027240CF8A92709740D26F7E4083609F70809E6F7A8270886820886830886F01262
:202721007851FAA3127851FBA3127851FCA3127851FF0ABA00090BBB00050CBC00010FA84D
:20274100270886820886830886F0EA12741EA3EB12741EA3EC12741EA3EF12741EE5272459
:202761000CF8740926FDE40836FE0886078D828E838FF0127851FDA3127851FEA31278518E
:20278100FFA3127851FCED4E4F4C703DE5262409F8E2FD08E2FE08E2FF74042DFDE43EFE9A
:2027A1008D828E838FF0127851FDA3127851FEE5262407F8E2FC08E2FFC3EC9DEF9E500304
:2027C100022960758203022986E5262407F8E2FE08E2C4CEC4540F6ECE540FCE6ECEFFE584
:2027E100262409F8E2FB08E2FC08E2FD74022BFBE43CFC8B828C838DF0127851FB7D001B24
:20280100BBFF011DEB5206ED5207EE4F6003022960A826E2FD08E2FE08E2FF74092DFDE422
:202821003EFE8D828E838FF0127851FDA3127851FEA3127851FFA31278518D828E838FF0CE
:20284100121FFEAC82AD83AEF0FFE5262403F8ECF208EDF208EEF208EFF2C374019CE49D38
:20286100E49EE49F4006758201022986E5262409F8E2FD08E2FE08E2FF74062DFDE43EFEBF
:202881008D828E838FF0E5272408F8127851F6A312785108F6A312785108F6A31278510819
:2028A100F6E5262403F8E2FA08E2FB08E2FE08E2FFE5272408F8C3EA96EB0896EE0896EFEE
:2028C10008964006758203022986A826E2FD08E2FE08E2FF74092DFCE43EFB8F02E5262467
:2028E10003F8E5272404F9E2F708E209F708E209F708E209F78C828B838AF0E5272404F856
:20290100E612741EA308E612741EA308E612741EA308E612741EE5272408F8740D2DF6E4D5
:202921003E08F608A607E5272404F886820886830886F008E61221F2AA82AB83ACF0FFE5F5
:20294100272408F886820886830886F0EA12741EA3EB12741EA3EC12741EA3EF12741EA8C3
:2029610026E2FD08E2FE08E2FFE5262407F8E2FB08E2FC8D828E838FF0EB12741EA3EC12C0
:20298100741E758200852781D027C526F818E2C526882822A8280528C526F208E8C526C07A
:2029A10027E581F527240FF581E5282404F528AFF0AE83E582A826F208EEF208EFF2A826DC
:2029C100E2FD08E2FE08E2FF8D828E838FF012244DAF82E5262403F8EFF2EF600CE526245E
:2029E10003F8E2FFF582022B79E52624FCF8E5272407F9E2F708E209F708E209F7A826E52A
:202A0100272404F9E2F708E209F708E209F7E5272404F8E527240AF9740226F7E4083609A3
:202A2100F70809E6F7E5272407F8E527240DF9740B26F7E4083609F70809E6F7E52724046B
:202A4100F8A92709740D26F7E4083609F70809E6F7A8270886820886830886F0127851FAB3
:202A6100A3127851FBA3127851FCA3127851FFE5272404F886820886830886F0127851FD4A
:202A8100A312785153050FE4C42354E0CDC423CD6DCD54E0CD6DFE900373EAF0EBA3F0ECE0
:202AA100A3F0EFA3F0900377EDF0EEA3F09003797420F0E4A3F0E5272407F8868208868349
:202AC1000886F01219D4E58260047F0180027F00E5262403F8EFF2EF6003022B70E5272402
:202AE10007F886820886830886F0127851700AE5262403F87403F28076E527240DF8868224
:202B01000886830886F0127851FF20E343E527240AF886820886830886F0127851FDA312AF
:202B21007851FEA3127851FF9003A8EDF0EEA3F0EFA3F09003AB740BF0E4A3F0E5272407DA
:202B4100F886820886830886F0121F49E582601FE5272404F886820886830886F012263951
:202B6100AF82E5262403F8EFF2EF7003022A52E5262403F8E2FFF582852781D027C526F8AF
:202B810018E2C526882822A8280528C526F208E8C526C027858127058105810581E52824F1
:202BA1000DF528AFF0AE83E582A826F208EEF208EFF2A826E2FD08E2FE08E2FF74022DFD04
:202BC100E43EFE8D828E838FF0127851FDA3127851FEA3127851FFE5262407F8EDF208EE61
:202BE100F208EFF2A82805280528740BF208E4F208A82805287420F2088D828E838FF0123C
:202C01001EB9152815281528E5262406F8E4F2E5262405F8E4F2E5262404F87408F2E5267C
:202C210024FCF8E2FD08E2FE08E2FF8D828E838FF0127851FDA3127851FEA3127851FFE576
:202C410026240AF8EDF208EEF208EFF2E526240AF8E2FD08E2FE08E2FFE5262407F8E2FA8C
:202C610008E2FB08E2FCC002C003C004E5262405F8E2FCE5262405F8EC04F2EC2DFCE43EF0
:202C8100FB8F028C828B838AF0127851FCE5262403F8ECF2C374209CD004D003D002400383
:202CA100022D88C002C003C004E5262403F8E2FCBC2F09D004D003D002022D88D004D00340
:202CC100D002C002C003C004E5262403F8E2FCBC2E08D004D003D0028019E5262406F8E2BD
:202CE100FCE5262404F8E2FBC3EC9BD004D003D0024053C002C003C004E5262404F8E2FC27
:202D0100BC08028008D004D003D002807AD004D003D002C002C003C004E5262403F8E2FC27
:202D2100BC2E028008D004D003D002805AD004D003D002E5262406F87408F2E5262404F88C
:202D4100740BF2022C67C005C006C007E5262406F8E2FFE5262406F8EF04F2A82708EF2A0A
:202D6100F6E43B08F608A604E5262403F8E2FFA8270886820886830886F0EF12741ED007AA
:202D8100D006D005022C67E52624FCF8E2FD08E2FE08E2FFE526240AF8A92709E2F708E252
:202DA10009F708E209F7E5262405F8E2FCA82708EC26FCE40836FB0886028D828E838FF0ED
:202DC100EC12741EA3EB12741EA3EA12741EE5262407F8E2FD08E2FE08E2FF740B2DFDE494
:202DE1003EFEE5262403F8E2FC24DF920040047C0180027C008D828E838FF0EC12741E7596
:202E01008200852781D027C526F818E2C526882822A8280528C526F208E8C526C027E5816F
:202E2100F527240FF581E5282404F528AFF0AE83E582A826F208EEF208EFF2E52624F9F892
:202E4100E2FD08E2FE08E2FF8D828E838FF0127851FDBD2010E52624F9F8E22401F208E25A
:202E61003400F280D6E52624F9F8E2FD08E2FE08E2FF8D828E838FF0127851FDBD2F0EE5AF
:202E81002624F9F8E22401F208E23400F2A826E2FD08E2FE08E2FF74052DFDE43EFE8D829D
:202EA1008E838FF0E412741EA312741EA312741EA312741EE52624F9F8E2FD08E2FE08E253
:202EC100FF8D828E838FF0127851FDBD20005036A826E2FD08E2FE08E2FF8D828E838FF0FB
:202EE10012244DAF82E5262403F8EFF2E52624FCF8E2FD08E2FE08E2FF8D828E838FF0E4BC
:202F010012741E02306CA826E5272404F9E2F708E209F708E209F7E5272404F8E527240D5D
:202F2100F9740226F7E4083609F70809E6F7E52624FCF8E5272407F9E2F708E209F708E2F4
:202F410009F7E5272407F8E527240AF9740B26F7E4083609F70809E6F7E52624F9FC7B00C3
:202F61007A60E528F82403F528ECF208EBF208EAF208E5272404F886820886830886F012A9
:202F81002B88AC82152815281528E5262403F8ECF2EC600302306CE5272407F8E528F9244A
:202FA10003F528E6F30908E6F30908E6F309E5272404F886820886830886F0122995AC8279
:202FC100152815281528E5262403F8ECF2EC600302306CE527240DF886820886830886F078
:202FE100127851FAA3127851FBA3127851FC740B2AFAE43BFB8A828B838CF0127851706BFF
:20300100E527240AF886820886830886F0127851FC20E40AE5262403F87403F2804DE52795
:203021002404F8A92709740526F7E4083609F70809E6F7E5272407F886820886830886F02A
:2030410012239BAA82AB83ACF0FFA8270886820886830886F0EA12741EA3EB12741EA3ECED
:2030610012741EA3EF12741E022F5AE5262403F8E2F582852781D027C526F818E2C52688F3
:203081002822A8280528C526F208E8C526C027858127058105810581052805280528AFF064
:2030A100AE83E582A826F208EEF208EFF2A826A92709E2F708E209F708E209F7E52624FB68
:2030C100F8E2FA08E2FB08E2FC08E2FF900373EAF0EBA3F0ECA3F0EFA3F090037774FEF09C
:2030E100F4A3F090037904F0E4A3F0A8270886820886830886F01219D4E58260067582039D
:2031010002319FA826E2FD08E2FE08E2FF8D828E838FF0121C9DAE82AF83BE5505BFAA020F
:20312100800675820202319FA826A92709E2F708E209F708E209F7E52624FBF8E2FA08E201
:20314100FB08E2FC08E2FF900373EAF0EBA3F0ECA3F0EFA3F09003777452F0E4A3F090037B
:20316100797402F0E4A3F0A8270886820886830886F01219D4E5827022A826E2FD08E2FEFD
:2031810008E2FF8D828E838FF0121C9DAE82AF83BE4608BF4105758200800375820185274A
:2031A10081D027C526F818E2C526882822A8280528C526F208E8C526C027E581F527240EAC
:2031C100F581E5282434F528AFF0AE83E582A826F208EEF208EFF29003A5E4F0A3F0A3F0FC
:2031E100121839E58230E0067582020238A0E5262428F8E4F208F208F208F2E5262404FFD6
:203201007E007D60E528F82404F528E4F208F208F208F2088F828E838DF0123083AF82E5C2
:203221002824FCF528E5262403F8EFF2BF0102800302332AE5262404FFE527240CF8A60766
:20324100087600087660E5262428F8E2FA08E2FB08E2FC08E2FF900373EAF0EBA3F0ECA345
:20326100F0EFA3F090037774BEF07401A3F0900379C4F0E4A3F0E527240CF8868208868323
:203281000886F01219D4E582600BE5262403F87403F202332AE52624042404F9E370030240
:2032A100332AE5262404FF2408FE7D007C60C000EFA8280528F2D0008E828D838CF0121DC2
:2032C1000AC8E5272408C8A68208A68308A6F008F6A82818E2FF1528E5272408F8E52624C1
:2032E10028F9E6F30809E6F30809E6F30809E6F38F027E007F60E5272408F8E528F92404C9
:20330100F528E6F30908E6F30908E6F30908E6F3098A828E838FF0123083AF82E52824FC30
:20332100F528E5262403F8EFF2E5262403F8E2FFBF03067582010238A0E5262403F8E26053
:20334100067582060238A0E5262404FFE5272408F8A607087600087660E5262428F8E2FAF9
:2033610008E2FB08E2FC08E2FF900373EAF0EBA3F0ECA3F0EFA3F0900377740DF0E4A3F047
:203381009003797424F0E4A3F0E5272408F886820886830886F01219D4E582600675820196
:2033A1000238A0E52624042409FF7E007D608F828E838DF0121C9DAE82AF83E4FDFCE526C4
:2033C100242CF8EEF208EFF208EDF208ECF2EE4F4D4C702BE52624042417FF7E007D608F46
:2033E100828E838DF0121D0AAC82AD83AEF0FFE526242CF8ECF208EDF208EEF208EFF2E5BA
:20340100262404F92403F8E2FFE526242CF8E2FB08E2FC08E2FD08E2FE9009DDEFF0E4A3A3
:20342100F0A3F0A3F0C000E9A8280528F2D0008B828C838DF0EE127497AC82AD83AEF0FF6E
:20344100A82818E2F91528E526242CF8ECF208EDF208EEF208EFF2A826C001A92709E2F741
:2034610008E209F708E209F7A82708E5272408F9740A26F7E4083609F70809E6F7D001E90A
:203481002401FC7B007A60C000E9A8280528F2D0008C828B838AF0121C9DAE82AF83A828BA
:2034A10018E2F91528E5262428F8C001E5272404F9E2F708E209F708E209F708E209F7D037
:2034C100018F05E4FCFFE5272404F8EE26FEED0836FDEC0836FCEF0836FFE5272408F88609
:2034E100820886830886F0EE12741EA3ED12741EA3EC12741EA3EF12741EA8270874022618
:20350100FDE40836FE088607E38D828E838FF012741EA82708740426FDE40836FE088607AB
:20352100E92404FC7B007A60C000E528F82404F528EFF208EEF208EDF208E9F2D0008C82AD
:203541008B838AF0121C9DAB82AC83A82818E2F918E2FD18E2FE18E2FF88288D828E838FB1
:20356100F0EB12741EA3EC12741EE92406FF7E007D608F828E838DF0121C9DAE82AF83E47B
:20358100FDFCE5262430F8EEF208EFF208EDF208ECF2EE4F4D4C702BE52624042413FF7EEC
:2035A100007D608F828E838DF0121D0AAC82AD83AEF0FFE5262430F8ECF208EDF208EEF256
:2035C10008EFF2E52624042401FF7E007D608F828E838DF0121C9DAE82AF83E5262430F82C
:2035E100E5272404F9E2F708E209F708E209F708E209F78E048F05E4FEFFE5272404F8E6ED
:20360100C39CF608E69DF608E69EF608E69FF6E526242CF8E2FA08E2FB08E2FE08E2FFE504
:20362100272404F8E6C39AF608E69BF608E69EF608E69FF6A826A92709E2F708E209F70813
:20364100E209F7A82708740426FAE40836FB0886068A828B838EF0127851FAA3127851C4B8
:20366100CAC4540F6ACA540FCA6ACAFBE4FEFFE5272404F8E6C39AF608E69BF608E69EF681
:2036810008E69FF6A82708740226FCE40836FD0886078C828D838FF01278519009C9F0E4D5
:2036A100A3F0A3F0A3F0E5272404F886820886830886F008E612730CAC82AD83AEF0FFE52E
:2036C100272404F874022CF6E43D08F6E43E08F6E43F08F6A82708740626FAE40836FB0814
:2036E10086078A828B838FF0E5272404F8E612741EA308E612741EA308E612741EA308E6F2
:2037010012741EE5262403F8E4F2E5272404F8C3E694F708E694FF08E6940008E6940040DF
:2037210008E5262403F87403F2E5262403F8E270067582060238A0A826A92709E2F708E22A
:2037410009F708E209F7E5262403F8E2FCA8270886820886830886F0EC12741EA82708E5BC
:20376100272404F9740E26F7E4083609F70809E6F7E5262404241FFC7B007A608C828B836E
:203781008AF0121D0AAA82AB83ACF0FFE5272404F886820886830886F0EA12741EA3EB128F
:2037A100741EA3EC12741EA3EF12741EA82708E5272404F9741226F7E4083609F70809E64D
:2037C100F7A82708740A26FAE40836FB0886048A828B838CF0E5272408F8127851F6A31281
:2037E100785108F6A312785108F6A312785108F6E526242CF8E2FC08E2FD08E2FE08E2FF20
:20380100E5272408F8EC26F6ED0836F6EE0836F6EF0836F6A82708740426FAE40836FB0875
:2038210086078A828B838FF0127851FAA3127851C4CAC4540F6ACA540FCA6ACAFBE4FFFEE8
:20384100E5272408F8EA26FAEB0836FBEF0836FFEE0836FEE5272404F886820886830886E0
:20386100F0EA12741EA3EB12741EA3EF12741EA3EE12741EA82708740126FDE40836FE0895
:2038810086078D828E838FF0E412741EA827089003A5E6F008E6A3F008E6A3F07582008510
:2038A1002781D027C526F818E2C526882822A8280528C526F208E8C526C027E581F527248C
:2038C10006F581E5282444F528AFF0AE83E582A826F208EEF208EFF29003A5E0FDA3E0FE7B
:2038E100A3E0FFE5262441F8EDF208EEF208EFF2ED4E7006758205023AA0E5262441F8E25A
:20390100FD08E2FE08E2FF0DBD00010E8D828E838FF0E412741EE5262404FF2402F9E5267C
:203921002415FE7D007C60EEF309EDF309ECF3E5262421FE7D007C607B007A60A826E5286D
:20394100F92403F528E2F30908E2F30908E2F309E528F82403F528EEF208EDF208ECF20881
:203961008F828B838AF0122E12AF82E52824FAF528E5262403F8EFF2EF600CE5262403F852
:20398100E2FFF582023AA0E5262421F9E3600CE5262421240BF9E3FF30E406758203023AB0
:2039A100A0E5262441F8A92709E2F708E209F708E209F7A82708E5272404F9741E26F7E4E1
:2039C100083609F70809E6F7E5262421FEFA7B007C60C000EEA8280528F2D0008A828B8394
:2039E1008CF012239BAA82AB83ACF0FFA82818E2FE1528E5272404F886820886830886F0BD
:203A0100EA12741EA3EB12741EA3EC12741EA3EF12741EA82708E5272404F9741A26F7E4E9
:203A2100083609F70809E6F7741C2EFC7B007A608C828B838AF0121D0AAA82AB83ACF0FF86
:203A4100E5272404F886820886830886F0EA12741EA3EB12741EA3EC12741EA3EF12741E79
:203A6100A82708741626FDE40836FE0886078D828E838FF0E412741EA312741EA312741E57
:203A8100A312741EA827080426FDE40836FE0886078D828E838FF0740112741E75820085F7
:203AA1002781D027C526F818E2C526882822A8280528C526F208E8C526C027E581F527248A
:203AC10018F581E5282418F528AFF0AE83E582A826F208EEF208EFF2A826E2FD08E2FE088C
:203AE100E2FFE5262412F8EDF208EEF208EFF29003A5E0FDA3E0FEA3E0FFE5262415F8EDBA
:203B0100F208EEF208EFF2E52624FAF8E2FD08E2FE08E2FF8D828E838FF0E412741EA31234
:203B2100741EE5262415F8E2F5F008E245F070067582050240F7E5262415F8E2FD08E2FE22
:203B410008E2FF0DBD00010E8D828E838FF0127851FD20E0067582040240F7E5262415F8B5
:203B6100E2FD08E2FE08E2FF741A2DFAE43EFB8F048A828B838CF0E527240FF8127851F691
:203B8100A312785108F6A312785108F6A312785108F674162DFDE43EFE8D828E838FF0122B
:203BA1007851FDA3127851FEA3127851FFA3127851FCE527240FF8E6C39DF608E69EF608CE
:203BC100E69FF608E69CF6E527240FF8E526240BF9E6F30809E6F30809E6F30809E6F3E503
:203BE1002624FDF8E2FA08E2FBE4FEFFE527240FF8C3E69A08E69B08E69E08E69F501AE578
:203C010026240BF8E2FC08E2FD08E2FE08E2FFE52624FDF8ECF208EDF2E5262415F8E2FDBC
:203C210008E2FE08E2FFE5272408F874162DF6E43E08F608A607E527240FF874222DF6E42C
:203C41003E08F608A607E5272413F8741E2DF6E43E08F608A607E5272405F874022DF6E403
:203C61003E08F608A607E5272416F874262DF6E43E08F608A607E52624FDF8E2F5F008E2AD
:203C810045F070030240F4E5272408F886820886830886F0127851FCA3127851FDA31278FF
:203CA10051FEA3127851FFEC7004ED30E003023EDCE5272408F886820886830886F012786A
:203CC10051A3127851FBA3127851FCA3127851FFE527240BF8EF0808087600C31318F6ECA2
:203CE1001318F6EB1318F6E5272405F886820886830886F0127851FE1E8E04E4FDFEFFE586
:203D010027240BF88602EC5202E5262411F8EAF2EA6003023E1CE5272408F8868208868386
:203D21000886F0127851FAA3127851FBA3127851FCA3127851FFEA4B4C4F7032E52724130A
:203D4100F886820886830886F0127851FCA3127851FDA3127851FEA3127851FFE526240356
:203D6100F8ECF208EDF208EEF208EFF2803FE527240FF886820886830886F0127851FCA3AD
:203D8100127851FDA3127851FEA31278518C828D838EF0121FFEAC82AD83AEF0FFE526245B
:203DA10003F8ECF208EDF208EEF208EFF2E5262403F8E2FC08E2FD08E2FE08E2FFC3740179
:203DC1009CE49DE49EE49F4022E5262415F8E2FD08E2FE08E2FF0DBD00010E8D828E838FEA
:203DE100F0E412741E7582010240F7E5262403F8E2FC08E2FD08E2FE08E2FFE527240FF822
:203E010086820886830886F0EC12741EA3ED12741EA3EE12741EA3EF12741EE527240FF8A4
:203E210086820886830886F0127851FCA3127851FDA3127851FEA31278518C828D838EF002
:203E41001221F2AC82AD83AEF0FFE5262407F8ECF208EDF208EEF208EFF2EC4D4E4F702215
:203E6100E5262415F8E2FD08E2FE08E2FF0DBD00010E8D828E838FF0E412741E758201025B
:203E810040F7E5262411F8E2FFE5262407F8E527240BF9E2F708E209F708E209F708E209CF
:203EA100F78F05E4FEFAFFE527240BF8ED26FDEE0836FEEA0836FAEF0836FFE5272416F8A2
:203EC10086820886830886F0ED12741EA3EE12741EA3EA12741EA3EF12741EE5272408F8ED
:203EE10086820886830886F0127851FCA3127851FDA3127851A3127851530501E4C39CFC44
:203F010074029DFDE526240FF8ECF208EDF2E52624FDF8E2FE08E2FFC3EE9CEF9D5014E586
:203F21002624FDF8E2FE08E2FFE526240FF8EEF208EFF2A826E2F5F008E245F0700EE5273B
:203F4100240BF8E4F608F60876008014E5262412F8E527240BF9E2F708E209F708E209F735
:203F6100E5272416F886820886830886F0A92709127851F7A312785109F7A312785109F7C4
:203F8100A312785109F7E5272408F886820886830886F0127851FCA3127851FDA31278510B
:203FA100A3127851530501E526240FF8E2FE08E2FFA82708900373E6F008E6A3F008E6A365
:203FC100F008E6A3F0900377ECF0EDA3F0900379EEF0EFA3F0E527240BF886820886830849
:203FE10086F01219D4E5826022E5262415F8E2FD08E2FE08E2FF0DBD00010E8D828E838FEE
:20400100F0E412741E7582010240F7E5272408F886820886830886F0A92709127851F7A3E1
:2040210012785109F7A312785109F7A312785109F7E526240FF8E2FA08E2FB8A068B057C15
:20404100007F00A82708EE26FEED0836FDEC0836FCEF0836FFE5272408F88682088683082C
:2040610086F0EE12741EA3ED12741EA3EC12741EA3EF12741EE5262412F8E2FD08E2FE0892
:20408100E2FFEA2DFDEB3EFEE5262412F8EDF208EEF208EFF2E52624FDF8E2FE08E2FFEE3F
:2040A100C39AFEEF9BFFE52624FDF8EEF208EFF2E52624FAF8A92709E2F708E209F708E287
:2040C10009F7A8270886820886830886F0127851FCA3127851FFEA2CFAEB3FFBA82708868B
:2040E100820886830886F0EA12741EA3EB12741E023C77758200852781D027C526F818E241
:20410100C526882822A8280528C526F208E8C526C027E581F527241BF581E5282418F528A8
:20412100AFF0AE83E582A826F208EEF208EFF2A826E2FD08E2FE08E2FFE526240FF8EDF223
:2041410008EEF208EFF29003A5E0FDA3E0FEA3E0FFE5262415F8EDF208EEF208EFF2E5267E
:2041610024FAF8E2FD08E2FE08E2FF8D828E838FF0E412741EA312741EE5262415F8E2F5F7
:20418100F008E245F070067582050248EBE5262415F8E2FD08E2FE08E2FF0DBD00010E8D16
:2041A100828E838FF0127851FD20E0067582040248EBE52624FDF8E2F5F008E245F0600371
:2041C10002424CE5262415F8E2FD08E2FE08E2FF0DBD00010E8D828E838FF0127851FD30E2
:2041E100E63A900380E4F0A3F0A3F0A3F090000075F000121B34E5826022E5262415F8E2A1
:20420100FD08E2FE08E2FF0DBD00010E8D828E838FF0E412741E7582010248EBE52624155E
:20422100F8E2FD08E2FE08E2FF0DBD00010E8D828E838FF0127851FC5304BF8D828E838FC1
:20424100F0EC12741E7582000248EBE5262415F8E2FD08E2FE08E2FF0DBD00010E8D828E4F
:20426100838FF0127851FD20E65BE5262415F8E2FD08E2FE08E2FFA8270874162DF6E43E70
:2042810008F608A607A8270886820886830886F0127851A3127851FBA3127851FCA3127801
:2042A10051FF7A005303FEA8270886820886830886F0EA12741EA3EB12741EA3EC12741E7E
:2042C100A3EF12741EE5262415F8E2FD08E2FE08E2FF741A2DFAE43EFB8F048A828B838CB0
:2042E100F0E5272407F8127851F6A312785108F6A312785108F6A312785108F674162DFDA5
:20430100E43EFE8D828E838FF0127851FDA3127851FEA3127851FFA3127851FCE52724075B
:20432100F8E6C39DF608E69EF608E69FF608E69CF6E5272407F8E526240BF9E6F30809E691
:20434100F30809E6F30809E6F3E52624FDF8E2FA08E2FBE4FEFFE5272407F8C3E69A08E66F
:204361009B08E69E08E69F501AE526240BF8E2FC08E2FD08E2FE08E2FFE52624FDF8ECF254
:2043810008EDF2E5262415F8E5272412F9E2F708E209F708E209F7E5272412F8E527240B9C
:2043A100F9741626F7E4083609F70809E6F7E5272412F8E5272407F9742226F7E408360904
:2043C100F70809E6F7E5272412F8A92709741E26F7E4083609F70809E6F7E5272412F8E506
:2043E100272404F9740226F7E4083609F70809E6F7E52624FDF8E2F5F008E245F070030252
:2044010048E8E527240BF886820886830886F0127851FCA3127851FDA3127851FEA31278A6
:2044210051FFEC7004ED30E0030246D0E527240BF886820886830886F0127851A312785190
:20444100FBA3127851FCA3127851FFE5272418F8EF0808087600C31318F6EC1318F6EB13BD
:2044610018F6E5272404F886820886830886F0127851FE1E8E04E4FDFEFFE5272418F8863D
:2044810002EC5202E5262412F8EAF2EA6003024595E527240BF886820886830886F0127847
:2044A10051FAA3127851FBA3127851FCA3127851FFEA4B4C4F7030A82708868208868308D8
:2044C10086F0127851FCA3127851FDA3127851FEA3127851FFE5262403F8ECF208EDF20823
:2044E100EEF208EFF2803FE5272407F886820886830886F0127851FCA3127851FDA31278EE
:2045010051FEA31278518C828D838EF0121FFEAC82AD83AEF0FFE5262403F8ECF208EDF218
:2045210008EEF208EFF2E5262403F8E2FC08E2FD08E2FE08E2FFC374019CE49DE49EE49F8F
:204541004022E5262415F8E2FD08E2FE08E2FF0DBD00010E8D828E838FF0E412741E758215
:20456100010248EBE5262403F8E2FC08E2FD08E2FE08E2FFE5272407F8868208868308866E
:20458100F0EC12741EA3ED12741EA3EE12741EA3EF12741EE5272407F88682088683088625
:2045A100F0127851FCA3127851FDA3127851FEA31278518C828D838EF01221F2AC82AD839F
:2045C100AEF0FFE5262407F8ECF208EDF208EEF208EFF2EC4D4E4F7022E5262415F8E2FDF6
:2045E10008E2FE08E2FF0DBD00010E8D828E838FF0E412741E7582010248EBE5272412F882
:20460100E5272415F9742626F7E4083609F70809E6F7E5262412F8E2FFE5262407F8E52740
:20462100240EF9E2F708E209F708E209F708E209F78F05E4FEFCFFE527240EF8ED26FDEE12
:204641000836FEEC0836FCEF0836FFE5272415F886820886830886F0ED12741EA3EE12744F
:204661001EA3EC12741EA3EF12741E900380EDF0EEA3F0ECA3F0EFA3F090000075F0001239
:204681001B34E5826022E5262415F8E2FD08E2FE08E2FF0DBD00010E8D828E838FF0E41287
:2046A100741E7582010248EBE5272412F8740126FDE40836FE0886078D828E838FF012788A
:2046C10051FC4304408D828E838FF0EC12741EE527240BF886820886830886F0127851FC35
:2046E100A3127851FDA3127851A3127851530501E4C39CFC74029DFDE5262413F8ECF2087A
:20470100EDF2E52624FDF8E2FE08E2FFC3EE9CEF9D5014E52624FDF8E2FE08E2FFE5262473
:2047210013F8EEF208EFF2E526240FF8E2FD08E2FE08E2FFE5262413F8E2FB08E2FC90032E
:2047410080EBF0ECA3F0E4A3F0A3F08D828E838FF0121B34E5826022E5262415F8E2FD0868
:20476100E2FE08E2FF0DBD00010E8D828E838FF0E412741E7582010248EBE527240BF88689
:20478100820886830886F0E527240EF9127851F7A312785109F7A312785109F7A312785184
:2047A10009F7E5262413F8E2FA08E2FB8A048B05E4FEFFE527240EF8EC26F6ED0836F6EEB1
:2047C1000836F6EF0836F6E527240BF886820886830886F0E527240EF9E712741EA309E762
:2047E10012741EA309E712741EA309E712741EE526240FF8E2FD08E2FE08E2FFEA2DFDEBC1
:204801003EFEE526240FF8EDF208EEF208EFF2E52624FDF8E2FE08E2FFEEC39AFEEF9BFFB6
:20482100E52624FDF8EEF208EFF2E52624FAF8E5272415F9E2F708E209F708E209F7E52772
:204841002415F886820886830886F0127851FCA3127851FFEA2CFAEB3FFBE5272415F88643
:20486100820886830886F0EA12741EA3EB12741EE527240EF88604088605EC7004ED30E0B6
:20488100030243F2900380E4F0A3F0A3F0A3F090000075F000121B34E5826021E5262415BB
:2048A100F8E2FD08E2FE08E2FF0DBD00010E8D828E838FF0E412741E758201802DE527247A
:2048C10012F8740126FDE40836FE0886078D828E838FF0127851FC5304BF8D828E838FF055
:2048E100EC12741E0243F2758200852781D027C526F818E2C5268828229003B775F000127A
:1C49010031AEE5826004758202229003B7E0FFBF03028004758201227582002231
:087D3700FA48AF38AF3A0641EB
:20491D00A8280528C526F208E8C526052875FE01126EB375FA0075F901126EB3A826E5FE2F
:20493D00F2A826E2FF20E3F4C526F818E2C526882822A8280528C526F208E8C526C8E5289E
:20495D002405F528C8AF82AE83ADF0FCA826EFF208EEF208EDF208ECF2E5262404F8E5FEBF
:20497D00F2E5262404F8E2FF20E3EEA8261818E2F5FAA826E2FC08E2FD08E2FE08E2E526EC
:20499D002404F8ECF2E5262404F8E2F5FDE5262404F8EDF2E5262404F8E2F5FCE5262404C2
:2049BD00F8EEF2E5262404F8E2F5FB75F902126EB3C526F818E2C526882822A8280528C506
:2049DD0026F208E8C526C8E5282405F528C8AF82AE83ADF0FCA826EFF208EEF208EDF20863
:2049FD00ECF2E5262404F8E5FEF2E5262404F8E2FF20E3EEA826E2FC08E2FD08E2FE08E25A
:204A1D00E5262404F8ECF2E5262404F8E2F5FDE5262404F8EDF2E5262404F8E2F5FCE5265E
:204A3D002404F8EEF2E5262404F8E2F5FB75F903126EB3E5262404F8E5FEF2E5262404F88D
:204A5D00E2FF20E3EE126EB3126EB3126EB3E5262404F8E5FAF2E5262404F8E2F582C52663
:084A7D00F818E2C52688282282
:067D3F001D494F49D8491F
:204A8500A8280528C526F208E8C526052805280528E582A826F2E5EAA826E2FF741F5F44FA
:204AA50020F5E9000000E5EC30E3FB000000E5EC20E2FB00000075E8010000E5EAE5EC2028
:204AC500E2FB75E800E5EC30E3FB000000E5EA000000E5EC30E3FB000000A8260808E5EB5C
:204AE500F2A82608E5EAF2A8260808E2FE7F00A82608E27C002FFFEC3EFE8F828E83C52654
:204B0500F818E2C526882822A8280528C526F208E8C5260528E582A826F2E5EC20E2FBA862
:204B250026E2FF741F5FF5E975E801000000E5EC20E2FBE52624FDF8E2FE08E2FF8EE8000A
:204B45000000E5EC20E2FB00000075E90075E800000000E5EC20E2FBC526F818E2C52688A9
:204B6500282275EC82900064E4F5F01266A275EC02900064E4F5F01266A275EC829000641B
:204B8500E4F5F01266A275EC82A828052805287418F208E4F208758203124B0D15281528DE
:204BA500A8280528052874FFF208E4F208758204124B0D15281528A828052805287410F2FC
:204BC50008E4F208758201124B0D15281528A82805280528E4F208F208758202124B0D1594
:204BE500281528A82805280528743AF208E4F208758205124B0D15281528A8280528052891
:204C0500747CF208E4F208758206124B0D15281528A82805280528746FF208E4F20875820A
:204C250007124B0D15281528A82805280528740FF208E4F208758209124B0D1528152822F9
:204C4500A8280528C526F208E8C5260528E582A826F2A826E27017A82805280528E4F20807
:204C6500F208758207124B0D15281528803EA826E214FFA826F2A826E2FF24E05005A8263C
:204C8500741FF2A826E225E025E0A826F2A826E2FF4307037E00A82805280528EFF208EE95
:204CA500F208758207124B0D15281528C526F818E2C526882822A8280528C526F208E8C5EA
:204CC5002605280528AF83E582A826F208EFF2E5EC20E2FBA826E2FE08E2FF8FE974FE5E60
:204CE500F5E8C526F818E2C526882822A8280528C526F208E8C52605280528E5EC30E3FB4A
:204D0500A826E5EBF2A82608E5EAF2A826E2FE7F00A82608E27C002FFFEC3EFE8F828E838E
:204D2500C526F818E2C526882822A8280528C526F208E8C526E5282407F528AF83E582A889
:204D450026F208EFF2A826E2FE08E2A2E713CE13CEA2E713CE13CEFFA826EEF208EFF2A8E1
:204D650026E2FE08E2FF30E721A826E2FE08E2FFC3E49EFEE49FFFA826EEF208EFF2A82646
:204D85000808747FF208E4F2800AA826080874FFF208E4F2A826E2FE08E2FFC374DF9E74D1
:204DA5009F8FF063F08095F05009A82674DFF208741FF2A826E2FE08E2FFA82674212EF265
:204DC500E43F08F2E5262406F8E4F2A826E2FE08E2FFE5262406F8E275F002A42429F58239
:204DE500740A35F0F583E0FCA3E0FDC3EE9CEF64808DF063F08095F04015E5262406F8E2DE
:204E05002401F2E5262406F8E2FDBD080040C3E5262406F8E2FF24F85008E5262406F8747F
:204E250007F2E5262406F8E2FFE5262404F8EFF208E4F2900A37E0FEA3E0FFA826E2FC0897
:204E4500E2FDC3EE9CEF64808DF063F08095F05010A8260808E2FE08E2FF63067F8E8280FA
:204E650055E5262404F8E2FE08E2FF8E05EDC454F0FD0EBE00010FA826E2FB08E2FC8EF074
:204E850005F0AE03AF04EC3392D28008A2D2EF13FFEE13FED5F0F553060FE4FFFCED4206FF
:204EA500EC4207A8260808E2FD08E2FF7C00EE6205EC62078D82C526F818E2C52688282243
:204EC500A8280528C526F208E8C526052805280528E582A826F2A826E2F4A826F2A826E256
:204EE500FF740F5FFEE40354F8CEC403CE6ECE54F8CE6EFD74842EFEE43DFD74705FFCE412
:204F0500CCC4540F6CCC540FCC6CCCFB8CF005F08006EE2EFEED33FDD5F0F7A82608EEF25F
:204F250008EDF2EF30E716A82608E2FE08E2FF7484C39EFEE49FFF8E828F838014A8260865
:204F4500E2FE08E2FFEE247CFEEF34FFFF8E828F83C526F818E2C526882822A8280528C558
:204F650026F208E8C526E5282406F528AF83E582A826F208EFF2A826E2FE08E2FF9009F67D
:204F85007408F0E4A3F08E828F8312772FAE82AF83A826EEF208EFF2A826E2FE08E2FF209F
:204FA500E709A826080874D5F28021A82608087455F2A826E2FE08E2FFC3E49EFEE49FFF4D
:204FC5001EBEFF011FA826EEF208EFF2E5262405F8E4F2A826E2FE08E2FFE5262405F8E293
:204FE50075F002A42439F582740A35F0F583E0FCA3E0FDC3EE9CEF64808DF063F08095F061
:205005004015E5262405F8E22401F2E5262405F8E2FDBD080040C3E5262405F8E2FF24F815
:205025005008E5262405F87407F2E5262405F8E2FFE5262403F8EFF2900A47E0FEA3E0FF21
:20504500A826E2FC08E2FDC3EE9CEF64808DF063F08095F0500EA8260808E2FF63077F8F2E
:2050650082025115E5262403F8E2FFC454F0FEE5262404F8EEF2BF02005036A826E2FE0828
:20508500E2A2E713CE13CEFFA826EEF208EFF2A826E2FE08E253060F7F00E5262404F8E2BC
:2050A500FD7C004206EC4207E5262404F8EEF2804EE5262403F8E2FFA826E2FD08E2FE8FED
:2050C500F005F0AF05AC06EE3392D28008A2D2EC13FCEF13FFD5F0F5A826EFF208ECF2A80C
:2050E50026E2FE08E253060F7F00E5262404F8E2FD7C004206EC4207E5262404F8EEF2A81E
:20510500260808E2FFE5262404F8E2FE62078F82C526F818E2C526882822A8280528C5266C
:20512500F208E8C526E5282404F528E582A826F2A826E2FFA82674556FF2A826E2FF740F4B
:205145005FFEE4C454F0CEC4CE6ECE54F0CE6EFDA82608EEF208EDF2530770EFC4540FFF6C
:2051650053070FE5262403F8EFF2EF7015A82608E2FE08E2FFA8260874082EF2E43F08F214
:205185008065E5262403F8E2FFBF0116A82608E2FE08E2FFA8260874082EF274013F08F285
:2051A5008045A82608E2FE08E2FFA8260874082EF274013F08F2E5262403F8E2FF7E001FBE
:2051C500BFFF011EA82608E2FC08E2FD8FF005F0AF04AE058006EF2FFFEE33FED5F0F7A852
:2051E5002608EFF208EEF2A826E2FF30E70EA82608E2FE08E2FF8E828F838013A82608E2D3
:19520500FE08E2FFC3E49EFEE49FFF8E828F83C526F818E2C52688282228
:107D4500674B854A0D4BF14CBB4C2F4DC54E454CF1
:207DA1003F007F00FF00FF01FF03FF07FF0FFF1F1F003F007F00FF00FF01FF03FF07FF0FDF
:20521E00A8280528C526F208E8C5260528E582A826F2A826E2C40354F8FF04F5F7000000B5
:20523E00000000C526F818E2C52688282275F70022E5F7000000E5F730E1FBE5F700000088
:20525E00E5F730E1FB0000009003E1E5F5F09003E2E5F6F09003E1E0FE7F009003E2E07C28
:20527E00002FFFEC3E8F82F5832275821E12521E12524F02524BA8280528C526F208E8C595
:20529E00260528E582A826F2A826E2FF0F8F8212521E12524FC526F818E2C5268828227563
:2052BE00821112521E0000009003E774FFF0A3F0009003E7E0FEA3E0FF1EBEFF011F9003E3
:2052DE00E7EEF0EFA3F09003E7E0F5F0A3E045F070DE00000012524FE5828583F09003EB94
:2052FE00F0E5F0A3F000000075F7009003E3E4F0A3F09003E574A5F0E4A3F09003EBE0FE9B
:20531E00A3E0FF9003E5E0FCA3E0FD9003E3E0FAA3E0FBEC2AFCED3BFD0CBC00010DEDC38E
:20533E0013CC13CCFD9003E7ECF0EDA3F0EDCC25E0CC33FDEC2449F582ED340AF583E0FCB5
:20535E00A3E0FD9003E9ECF0EDA3F0C3EE9CEF9D50129003E7E0FCA3E0FD9003E3ECF0ED87
:20537E00A3F0801F9003E9E0FCA3E0FDC3EC9EED9F502F9003E7E0FCA3E0FD9003E5ECF083
:20539E00EDA3F09003E3E0FCA3E0FD0CBC00010D9003E5E0FAA3E0FBC3EC9AED9B500302D1
:1653BE0053219003E7E0FEA3E0FFEE24D8FEEF34FF8E82F58322D7
:087D550088529452BD524B52BA
:207DC100D60ED40ED30ED10ED00ECE0ECC0ECA0EC90EC60EC50EC40EC30EC10EBF0EBD0E28
:207DE100BB0EBA0EB80EB60EB50EB40EB20EAF0EAC0EAA0EA80EA70EA60EA40EA20EA00EC4
:207E01009E0E9C0E9A0E980E950E940E930E920E8F0E8D0E890E880E870E850E830E810E8A
:207E21007F0E7D0E7B0E780E770E760E740E730E720E710E700E6F0E680E640E620E600E4E
:207E41005E0E5D0E5C0E590E560E530E520E500E4E0E4C0E4A0E480E460E430E400E3D0E54
:207E61003B0E3A0E390E380E360E340E320E300E2E0E2C0E290E260E230E200E1D0E1A0E4C
:207E8100170E140E110E0E0E0B0E0A0E090E080E070E060E050E010EFE0DFB0DF80DF50D9C
:207EA100F20DEF0DEC0DE90DE60DE30DE00DDF0DDE0DDD0DDC0DDB0DDA0DD60DD20DCE0DF1
:207EC100CA0DC60DC50DC40DC20DBF0DBC0DB90DB60DB30DB00DAD0DAC0DAA0DA80DA60D58
:207EE100A40DA20DA10D9E0D9B0D980D950D920D8F0D8C0D890D850D840D830D800D7B0DA7
:0C7F01007A0D790D750D700D680D670D7F
:2053D400900B97E0FF0F900B96E0FEB5070122900912E5EBF0900913E5EAF0900912E0FE4C
:2053F4007F00900913E07C002FFFEC3EFE900B97E0FD04F0ED75F002A424EDF5827403358D
:20541400F0F583EFF0EEA3F022A8280528C526F208E8C526C027E581F5272404F5810528A5
:20543400E582A826F2A826E2FF75F004A424ADF582740835F0F583E0FBA3E0FCA3E0FDA397
:20545400E0FE9008EFEBF0ECA3F0EDA3F0EEA3F09008F4EBF0ECA3F0EDA3F0EEA3F09008F9
:20547400F3EFF09008FCEF04F0A8261818E2FF9008FCE0FEC3EF9E5003025566C0079008BF
:20549400FCE075F004A424ADF582740835F0F583A82708E0F6A3E008F6A3E008F6A3E00874
:2054B400F69008EFE0FAA3E0FDA3E0FEA3E0FFA82708C3EA96ED0896EE0896EF648008866C
:2054D400F063F08095F0D00750319008FCE0FE75F004A424ADF582740835F0F583E0FAA3BB
:2054F400E0FBA3E0FCA3E0FD9008EFEAF0EBA3F0ECA3F0EDA3F09008F3EEF0C0079008FC1C
:20551400E0FE75F004A424ADF582740835F0F583A82708E0F6A3E008F6A3E008F6A3E008F1
:20553400F69008F4E0FBA3E0FCA3E0FDA3E0FFA827089008F4E62BF008E63CA3F008E63D2D
:20555400A3F008E63FA3F09008FCEE04F0D0070254839008EFA82708E0F6A3E008F6A3E086
:2055740008F6A3E008F69008F4E0FAA3E0FBA3E0FEA3E0FFA827089008F4EAC396F0EB0828
:2055940096A3F0EE0896A3F0EF0896A3F0852781D027C526F818E2C5268828229009AD7417
:2055B400D4F07453A3F07480A3F0758206126EDF907D45E493FEA3E493FFC000A828052839
:2055D4000528EFF208EEF2D0008E828F83120039A82818E218E2882822126EDC900B97E080
:2055F400FF0F900B96E0FEB507329008FCE4F09008FCE0FF04F0EF75F002A424EDF58274C7
:205614000335F0F583E4F0A3F09008FCE070E0900B96E4F0900B97F0900B95F0026ED9C05B
:2056340027E581F5272414F581900B97E0FF900B96E0FEEFB50603025FE4126EDC900B9561
:20565400E0FF04F0EF75F002A424EDFE740535F0FF900B96E0FD04F0ED75F002A424EDF5BD
:2056740082740335F0F583E0FCA3E0FD8E828F83ECF0EDA3F0126ED9900B95E070AB90088A
:20569400FCE4F09008FDE4F09008FCE075F00CA424EDFE740735F0FF9008FDE025E025E007
:2056B400FD2EF582E43FF583E4F0A3F0A3F0A3F09008FDE02401F0E0FFBF030040CA90083F
:2056D400FCE02401F0E0FFBF100040B790090174FFF0747FA3F09009037401F003A3F09076
:2056F40008FCE4F09008FCE075F002A424EDF582740535F0F583E0FEA3E0FF9008FFEEF0CC
:20571400EFA3F0900901E0FCA3E0FDC3EE9CEF64808DF063F08095F050109008FFE0FEA390
:20573400E0FF900901EEF0EFA3F0900903E0FEA3E0FF9008FFE0FCA3E0FDC3EE9CEF64806D
:205754008DF063F08095F050109008FFE0FEA3E0FF900903EEF0EFA3F09008FCE02401F084
:20577400E07081900903E0FEA3E0FF900901E0FCA3E0FDEE2CFCEF3DA2E713CC13CCFD903C
:205794000905ECF0EDA3F09009077401F0E4A3F0C3EF648094814016900901E0FEA3E0FF14
:2057B400C3E49E747F8FF063F08095F05007900907E4F0A3F0900903E0FEA3E0FFC3E49E27
:2057D40074C08FF063F08095F0400F900901E0FEA3E0FFC36480944050089008FE7402F092
:2057F40080059008FEE4F09008FCE4F09008FCE075F002A424EDFE740535F0FF8E828F83F1
:20581400E0FCA3E0FD900905E0FAA3E0FBECC39AFCED9BFD8E828F83ECF0EDA3F09008FC46
:20583400E075F002A424EDFE740535F0FF8E828F83E0FCA3E0FD900907E0FAA3E0FB9009AE
:20585400D7EAF0EBA3F0C000A82805280528EFF208EEF2D0008C828D83127439AC82AD8347
:20587400A82818E2FE18E2FF88288E828F83ECF0EDA3F09008FCE075F002A424EDFE74051E
:2058940035F0FF8E828F83E0FCA3E0FD9008FEE0FB8BF005F0ED3392D28008A2D2ED13FDF4
:2058B400EC13FCD5F0F58E828F83ECF0EDA3F09008FCE02401F0E060030258009008FCE403
:2058D400F09008FCE075F002A424EDF582740535F0F583E0FEA3E0FF90090AEEF0EFA3F044
:2058F400EF3395E0A3F0A3F09008FDE4F09008FDE0FF75F002A42498F582740B35F0F583A0
:20591400E0FDA3E0FEE5272407F8A60508A606EE3395E008F608F6EF75F00CA424EDFF746D
:205934000735F0FA8F828A83A3A3A3A3E0FBA3E0FCA3E0FDA3E0FE9009DDEBF0ECA3F0ED6B
:20595400A3F0EEA3F0C000A82805280528EFF208EAF2D000E5272407F886820886830886CA
:20597400F008E6127497AB82AC83ADF0FEA82818E2FA18E2FF882874202CFCE43DFDE43EB8
:20599400FEE5272407F8A604EDA2E7C633C633A2E7C633C633C6540308F6EE2E25E046F6C1
:2059B400EE2323540330E10244FC08F63395E008F6E5272407F890090EE6F008E6A3F0081C
:2059D400E6A3F008E6A3F0E5272413F874082FF6E43A08F690090AE0FBA3E0FCA3E0FDA3A1
:2059F400E0FEE5272407F8E62BF608E63CF608E63DF608E63EF68F828A83E0FDA3E0FAA301
:205A1400E0FEA3E0FFE5272407F8E6C39DFD08E69AFA08E69EFE08E69FFFE5272413F88647
:205A340082088683EDF0EAA3F0EEA3F0EFA3F09008FDE075F00CA424EDFE740735F0FF8E9C
:205A5400828F83A3A3A3A3E0FAA3E0FBA3E0FCA3E0FD8E828F83EAF0EBA3F0ECA3F0EDA332
:205A7400F09008FDE075F00CA424EDFE740735F0FF74042EFCE43FFD74082EF582E43FF5EF
:205A940083E0FAA3E0FBA3E0FEA3E0FF8C828D83EAF0EBA3F0EEA3F0EFA3F09008FDE02402
:205AB40001F0E0FFBF100050030259019008FCE02401F0E060030258D59008FCE4F0900889
:205AD400FCE075F00CA424EDFE740735F0FF74042EFEE43FFF8E828F83E0FAA3E0FBA3E050
:205AF400FCA3E0FDEBA2E7CA33CA33CA5401FBEC2C4BFBEDA2E7CC33CC33CC540130E00289
:205B140044FEFD8E828F83EAF0EBA3F0ECA3F0EDA3F09008FCE075F00CA424EDFE74073571
:205B3400F0FF8E828F83E0FAA3E0FBA3E0FCA3E0FDEBA2E7CA33CA33CA5401FBEC2C4BFB03
:205B5400EDA2E7CC33CC33CC540130E00244FEFD8E828F83EAF0EBA3F0ECA3F0EDA3F09042
:205B740008FCE02401F0E0FFBF10005003025AD29008FCE4F09008FCE0FF75F002A4249847
:205B9400F582740B35F0F583E0FDA3E0FEE5272407F8A60508A606EE3395E008F608F6EFF1
:205BB40075F00CA4A8270824EDF6740735F008F6A82708E5272413F9740426F7E40836096D
:205BD400F7E5272413F88682088683E0FBA3E0FCA3E0FDA3E0FE9009DDEBF0ECA3F0EDA3AB
:205BF400F0EEA3F0C000EFA8280528F2D000E5272407F886820886830886F008E6127497E1
:205C1400AB82AC83ADF0FEA82818E2FF152874202CFCE43DFDE43EFEE5272403F8A604EDB7
:205C3400A2E7C633C633A2E7C633C633C6540308F6EE2E25E046F6EE2323540330E1024400
:205C5400FC08F63395E008F6E5272403F890090EE6F008E6A3F008E6A3F008E6A3F0EF7501
:205C7400F004A4C8E5272407C824ADF6740835F008F6E5272413F88682088683E0FAA3E09A
:205C9400FDA3E0FEA3E0FF9009DDEAF0EDA3F0EEA3F0EFA3F08A828D838EF0EF127497C8AF
:205CB400E527240BC8A68208A68308A6F008F6A827088682088683E527240FF9E0F7A3E056
:205CD40009F7A3E009F7A3E009F7E527240FF89009DDE6F008E6A3F008E6A3F008E6A3F0A4
:205CF400E527240FF886820886830886F008E6127497AC82AD83AEF0FFE527240BF8EC2677
:205D1400F6ED0836F6EE0836F6EF0836F6E527240FF89009DDE6F008E6A3F008E6A3F00886
:205D3400E6A3F0E5272403F886820886830886F008E6127497AA82AB83AEF0FFE527240BD7
:205D5400F8E6C39AFA08E69BFB08E69EFE08E69FFFE5272407F88682088683EAF0EBA3F0C0
:205D7400EEA3F0EFA3F09008FCE02401F0E0FFBF10005003025B899008FC7404F09008FC0C
:205D9400E075F004A424ADFE740835F0FF8E828F83E0FAA3E0FBA3E0FCA3E0FDEBA2E7CADC
:205DB40033CA33A2E7CA33CA33CA5403FBEC2C25E04BFBEDA2E7CC33CC33A2E7CC33CC33A2
:205DD400CC540330E10244FCFD8E828F83EAF0EBA3F0ECA3F0EDA3F09008FCE02401F0E05A
:205DF400FF24F850989008FC740CF09008FCE075F004A424ADFE740835F0FF8E828F83E096
:205E1400FAA3E0FBA3E0FCA3E0FDEBA2E7CA33CA33A2E7CA33CA33CA5403FBEC2C25E04B82
:205E3400FBEDA2E7CC33CC33A2E7CC33CC33CC540330E10244FCFD8E828F83EAF0EBA3F06B
:205E5400ECA3F0EDA3F09008FCE02401F0E0FF24F050989008F8E4F09008F9F0A8280528E9
:205E74007407F20875820012541D15289008F4E0FCA3E0FDA3E0FEA3E0FF9009DDECF0EDB8
:205E9400A3F0EEA3F0EFA3F090000CE4F5F0127497C8E527240FC8A68208A68308A6F00808
:205EB400F69008EFE0FAA3E0FBA3E0FEA3E0FFE527240FF8C3E69A08E69B08E69E08E66415
:205ED400808FF063F08095F0501A9008F3E0FFBF040050109008F8E02401F09008F3E0FF71
:205EF4009008FAF0A8280528740FF20875820812541D15289008F4E0FCA3E0FDA3E0FEA3C7
:205F1400E0FF9009DDECF0EDA3F0EEA3F0EFA3F090000CE4F5F0127497C8E527240FC8A6C2
:205F34008208A68308A6F008F69008EFE0FAA3E0FBA3E0FEA3E0FFE527240FF8C3E69A089A
:205F5400E69B08E69E08E664808FF063F08095F0501C9008F3E0FFBF0C0050129008F9E003
:205F74002401F09008F3E0FF24F89008FBF09008F8E060459008F9E0603F9008FAE025E053
:205F940025E0FF9008FBE0FE9009092FF09008EEE4F09008F8F09008F9F09008EDE0702B5C
:205FB4009008ED7401F0900909E024B8F582E4340BF583E0FFF582801A9008EEE02401F008
:195FD400E0FF24FE50059008EDE4F07582FF80037582FE852781D0272251
:067D5D00B055ED55335650
:207F0D00000000CA6DA768E964D75E8D39112E0C1C8C0CB449173FDF332825D9D732BEBDB8
:137F2D00A7DC930102030A0405060B0708090C0E000F0DB3
:205FED00E582900915F0E0FFC423541FFE900916F074075FF5F005F07401800225E0D5F044
:20600D00FB900917F0EE7015900914E06007900917E042F122900917E0F452F122900916F4
:20602D00E0FFBF0115900914E06007900917E042F222900917E0F4FF52F222E582900919C3
:20604D00F0E0FFC423541FFE90091AF074075FF5F005F07401800225E0D5F0FB90091BF055
:20606D00EE7015900918E0600790091BE042802290091BE0F452802290091AE0FFBF01154D
:20608D00900918E0600790091BE042902290091BE0F4FF529022E58290091CF0E0FFC42316
:2060AD00541FFE90091DF074075FF5F005F07401800225E0D5F0FB90091EF0EE701290099C
:2060CD001EE0FF558060047F0180027F008F822290091DE0FFBF011290091EE0FF55906087
:2060ED00047F0180027F008F82227582FF22E58290091FF0C29C90091FE0F5991099028005
:20610D00FB22E582900920F0E0FFBF0A005009900920E02430F58222900920E024F62441A6
:20612D00F58222E582900921F0E0FF30E71175822D1260FB900921E0FFF4F0E02401F0900E
:20614D000921E0FFC2D575F064EF30E704B2D5F4048430D502F404FF900922F0EF600C9028
:20616D000922E0F58212610F1260FB900921E0FF3395E0FE900922E075F064A4D39FF4B341
:20618D00FFEE95F0FE9009F6740AF0E4A3F08F828E8312772FAE82AF83900922EEF0E060F9
:2061AD000C900922E0F58212610F1260FB900921E0FF75F00AC2D530E704D2D5F40484E503
:2061CD00F030D502F404F58212610F0260FBAF82AE83ADF0FC900923EFF0EEA3F0EDA3F0D6
:2061ED00ECA3F0900923E0FCA3E0FDA3E0FEA3E0FF30E73C75822D1260FB900923E0FCA3D9
:20620D00E0FDA3E0FEA3E0FF900923ECF4F0EDF4A3F0EEF4A3F0EFF4A3F0900923E02401E5
:20622D00F0A3E03400F0A3E03400F0A3E03400F0900927E4F0900927E02428F51AE43409BC
:20624D00F51B900923E0FAA3E0FBA3E0FCA3E0FD9009B0740AF0E4A3F0A3F0A3F0C000E515
:20626D0028F82404F528EDF208ECF208EBF208EAF2D0008A828B838CF0ED127053A882C00C
:20628D0000A82818E2FA18E2FB18E2FC18E2FD8828D000851A82851B83E8F09009C1740AD7
