:0600000002003B0218DFC4
:03000B000219389F
:030013000218864A
:03001B000215EDDE
:0100230032AA
:03002B0002182D8B
:030033000217D4DD
:0300A00002003625
:030036000200A322
:2000A300902065E493FEA3E493FFC000A81405140514EFF208EEF2D0001200C1800CC0062E
:1A00C300C00790100075F00EE422A81418E218E2881412053A12066F80FBA4
:2000DD00A8140514C513F208E8C5130514E582A813F275C10075820A1216FFA813E2F5C2BD
:2000FD0075820A1216FFE5C160FCC513F818E2C513881422A8140514C513F208E8C51305ED
:20011D0014E582A813F275C10175820A1216FFA813E2F5C275820A1216FFE5C160FCC513E5
:20013D00F818E2C51388142275C102900064E4F5F0120EEC75C100900064E4F5F0120EEC1A
:20015D007582111200DD9004B0E4F5F0120EEC7582B11200DD75820512011175823C120175
:20017D001175823C1201117582B21200DD75820512011175823C12011175823C120111751F
:20019D0082B31200DD75820512011175823C12011175823C12011175820512011175823CFD
:2001BD0012011175823C1201117582B41200DD7582031201117582C01200DD758228120117
:2001DD00117582081201117582041201117582C11200DD7582C01201117582C21200DD7510
:2001FD00820D1201117582001201117582C31200DD75828D12011175822A1201117582C4C3
:20021D001200DD75828D1201117582EE1201117582C51200DD75821A120111758236120002
:20023D00DD7582C01201117582E01200DD7582041201117582221201117582071201117530
:20025D00820A12011175822E12011175823012011175822512011175822A12011175822899
:20027D0012011175822612011175822E12011175823A120111758200120111758201120138
:20029D00117582031201117582131201117582E11200DD7582041201117582161201117558
:2002BD00820612011175820D12011175822D12011175822612011175822312011175822768
:2002DD0012011175822712011175822512011175822D12011175823B1201117582001201B3
:2002FD001175820112011175820412011175821312011175823A1200DD75820512011175B2
:20031D0082290200DDA8140514C513F208E8C5130514E582A813F275822A1200DD7582009B
:20033D00120111A813E2F582120111758200120111E51324FDF8E2F58212011175822B1267
:20035D0000DD758200120111A8131818E2F582120111758200120111E51324FCF8E2F5829C
:20037D0012011175822C1200DDC513F818E2C513881422A8140514C513F208E8C51305144A
:20039D000514AF83E582A813F208EFF2A813E2FE08E2FFFDC000A81405140514EFF208EEF2
:2003BD00F2D0008D82120111A81418E2FE18E288148E82120111C513F818E2C5138814224D
:2003DD00A814051474A1F208A81405147483F208A8140514E4F20875820012032215141537
:2003FD00141514900100E4F0900101E4F090001F120390900101E02401F0E0FFBFA200407D
:20041D00EC900100E02401F0E0FFBF840040D922A8140514C513F208E8C5130514E582A861
:20043D0013F253A0FCA813E2FF74035F42A0C513F818E2C51388142275F1FF75F2FF43F3F6
:20045D000375820302042DA8140514C513F208E8C5130514E582A813F2A813E2FF1392007A
:20047D009287EFA2E192009297C513F818E2C513881422A8140514C513F208E8C513051439
:20049D000514E582A813F2A813E2FFA81308740F5FF2A8131818E27010538080A81308E29A
:2004BD0090203A93FF42808017A8131818E2FFBF010E539080A81308E290203A93FF42905A
:2004DD00C513F818E2C513881422A8140514C513F208E8C5130514E582A813F2A813E2FF6F
:2004FD00C000EFA8140514F2D000A81405147401F2088F821204901514A81418E2FF151497
:20051D00EFC4540FFFA8140514E4F2088F821204901514C513F818E2C513881422902065A1
:20053D00E493FEA3E493FFC000A81405140514EFF208EEF2D000120558800CC006C00790B1
:20055D00C20075F001E422A81418E218E288149003E8E4F5F0120EEC902075E493FEA3E493
:20057D0093FFC000A81405140514EFF208EEF2D000A81405140514E4F208F20812059E808A
:20059D000BC006C00790205275F0802215141514A81418E218E2881490204AE493FEA3E409
:2005BD0093FFC000A81405140514EFF208EEF2D0008E828F83120039A81418E218E288148C
:2005DD0075FF0075F4FF75D50075D600902061E493FEA3E493FFC000A81405140514EFF25F
:2005FD0008EEF2D000A8140514051474AAF2087403F2081206158008C006C0077582002254
:20061D0015141514A81418E218E28814902063E493FEA3E493FFC000A81405140514EFF2EF
:20063D0008EEF2D000A8140514E4F208A814051414F2081206558008C006C00775820022B4
:20065D0015141514A81418E218E288141201450203DD9001E6E09001E5F0AFFF9001E6EFD4
:20067D00F090204EE493FDA3E493FEC000A81405140514EEF208EDF2D00012069C8007C0A3
:20069D0005C0068F8222A81418E2FD18E288149001E5E0FF9001E6E0FEEFB506028046904A
:2006BD002063E493FEA3E493FFC000A81405140514EFF208EEF2D000A81405147420F20862
:2006DD009001E6A8140514E0F2081206EC8008C006C0077582002215141514A81418E2FE9F
:2006FD0018E2FF88149001E6E00303543FFF8FF005F07401800225E0D5F0FB14F5B0E5D5B6
:20071D00700122900102E5D6F075D500E0FFBFF048902069E493FEA3E493FF900102E0FDB4
:20073D007C007B007A00C000A81405140514EFF208EEF2D000A81405147403F20812075F26
:20075D00800CC006C0078D828C838BF0EA221514A81418E218E288142290206DE493FEA3F2
:20077D00E493FF900102E0FD7C007B007A00C000A81405140514EFF208EEF2D000A81405FD
:20079D00147403F2081207A7800CC006C0078D828C838BF0EA221514A81418E218E28814C4
:0107BD002219
:20203A003F065B4F666D7D077F6F777C395E797155042D04E704640448656C6C6F20576F27
:07205A00726C64210A2000F2
:06207B000000000000005F
:2007BE00A8140514C513F208E8C5130514E582A813F2E51324FDF8E2FE08E2FF8ED4A81390
:2007DE00E2FD4305808DD38FD474104DF5D3C513F818E2C513881422A8140514C513F208F1
:2007FE00E8C5130514E582A813F2E51324FDF8E2F5D4A813E2FF43078074304FF5D3A81356
:19081E001818E2F5D474204FF5D374404FF5D3C513F818E2C51388142210
:04206100BE07F607B9
:20083700E582900104F0E0FFC423541FFE900105F074075FF5F005F07401800225E0D5F083
:20085700FB900106F0EE7015900103E06007900106E042F122900106E0F452F1229001057F
:20087700E0FFBF0115900103E06007900106E042F222900106E0F4FF52F222E58290010835
:20089700F0E0FFC423541FFE900109F074075FF5F005F07401800225E0D5F0FB90010AF095
:2008B700EE7015900107E0600790010AE042802290010AE0F4528022900109E0FFBF0115BF
:2008D700900107E0600790010AE042902290010AE0F4FF529022E58290010BF0E0FFC42388
:2008F700541FFE90010CF074075FF5F005F07401800225E0D5F0FB90010DF0EE70129001E4
:200917000DE0FF558060047F0180027F008F822290010CE0FFBF011290010DE0FF559060D7
:20093700047F0180027F008F82227582FF22E58290010EF0C29C90010EE0F5991099028044
:20095700FB22E58290010FF0E0FFBF0A00500990010FE02430F5822290010FE024F62441FF
:20097700F58222E582900110F0E0FF30E71175822D120945900110E0FFF4F0E02401F0905B
:200997000110E0FFC2D575F064EF30E704B2D5F4048430D502F404FF900111F0EF600C9068
:2009B7000111E0F582120959120945900110E0FF3395E0FE900111E075F064A4D39FF4B3B5
:2009D700FFEE95F0FE9001C9740AF0E4A3F08F828E83121CFFAE82AF83900111EEF0E060E0
:2009F7000C900111E0F582120959120945900110E0FF75F00AC2D530E704D2D5F40484E55E
:200A1700F030D502F404F582120959020945AF82AE83ADF0FC900112EFF0EEA3F0EDA3F017
:200A3700ECA3F0900112E0FCA3E0FDA3E0FEA3E0FF30E73C75822D120945900112E0FCA325
:200A5700E0FDA3E0FEA3E0FF900112ECF4F0EDF4A3F0EEF4A3F0EFF4A3F0900112E0240125
:200A7700F0A3E03400F0A3E03400F0A3E03400F0900116E4F0900116E02417F508E4340127
:200A9700F509900112E0FAA3E0FBA3E0FCA3E0FD9001D4740AF0E4A3F0A3F0A3F0C000E532
:200AB70014F82404F514EDF208ECF208EBF208EAF2D0008A828B838CF0ED121E21A882C0C6
:200AD70000A81418E2FA18E2FB18E2FC18E2FD8814D000850882850983E8F09001A3740A57
:200AF700F0E4A3F0A3F0A3F08A828B838CF0ED121991AC82AD83AEF0FF900112ECF0EDA309
:200B1700F0EEA3F0EFA3F0900112E0F5F0A3E042F0A3E042F0A3E045F06011900116E02425
:200B370001F0E0FFBF0A005003020A8C900116E0FF2417F582E43401F583E0FEC000EFA81C
:200B5700140514F2D0008E82120959AE82A81418E2FF1514C000EFA8140514F2D0008E82A7
:200B7700120945A81418E2FF1514EFFE14900116F0EE70B822AF82AE83ADF0FC900121EFB4
:200B9700F0EEA3F0EDA3F0ECA3F0900125E4F0900125E02426FFE43401FE900121E0FAA31F
:200BB700E0FBA3E0FCA3E0FD8A0153010F8F828E83E9F0EBC4CAC4540F6ACA540FCA6ACA26
:200BD700FBECC454F04BFBEDC4CCC4540F6CCC540FCC6CCCFD900121EAF0EBA3F0ECA3F000
:200BF700EDA3F0900121E0F5F0A3E042F0A3E042F0A3E045F0600E900125E02401F0E0FFCD
:200C1700BF0800408A900125E0FF2426F582E43401F583E0FEC000EFA8140514F2D0008E93
:200C370082120959AE82A81418E2FF1514C000EFA8140514F2D0008E82120945A81418E22D
:200C5700FF1514EFFE14900125F0EE70B822AF82AE83ADF0FC90012EEFF0EEA3F0EDA3F0DC
:200C7700ECA3F0900132E4F0900132E02433FFE43401FE90012EE0FAA3E0FBA3E0FCA3E01E
:200C9700FD8A015301078F828E83E9F0EBC423CAC423541F6ACA541FCA6ACAFBECC42354A2
:200CB700E04BFBEDC423CCC423541F6CCC541FCC6CCCFD90012EEAF0EBA3F0ECA3F0EDA32B
:200CD700F090012EE0F5F0A3E042F0A3E042F0A3E045F06011900132E02401F0E0FFBF0B95
:200CF700005003020C7F900132E0FF2433F582E43401F583E0FEC000EFA8140514F2D000D8
:200D17008E82120959AE82A81418E2FF1514C000EFA8140514F2D0008E82120945A81418A0
:200D3700E2FF1514EFFE14900132F0EE70B822AF82AE83ADF0FC90013EEFF0EEA3F0EDA3EC
:200D5700F0ECA3F0900142E4F0900142E02443FFE43401FE90013EE0FAA3E0FBA3E0FCA3ED
:200D7700E0FD8A015301018F828E83E9F0EDC313FDEC13FCEB13FBEA13FA90013EF0EBA3AC
:200D9700F0ECA3F0EDA3F090013EE0F5F0A3E042F0A3E042F0A3E045F0600E900142E02452
:200DB70001F0E0FFBF200040A0900142E0FF2443F582E43401F583E0FEC000EFA81405140A
:200DD700F2D0008E82120959AE82A81418E2FF1514C000EFA8140514F2D0008E82120945F2
:200DF700A81418E2FF1514EFFE14900142F0EE70B822A8140514C513F208E8C5130514057D
:200E17001405140514AF82AE83ADF0FCA813EFF208EEF208EDF208ECF2A8131818E2FFBF9E
:200E37000117A813E2FC08E2FD08E2FE08E28C828D838EF0120D468055A8131818E2FFBFD0
:200E57000317A813E2FC08E2FD08E2FE08E28C828D838EF0120B8C8035A8131818E2FFBF8A
:200E77000217A813E2FC08E2FD08E2FE08E28C828D838EF0120C658015A813E2FC08E2FDBC
:200E970008E2FE08E28C828D838EF0120A25C513F818E2C513881422D29C900163E599F05C
:200EB700C298900163E0F58222C298000000D29C0000003098FD900164E599F0C298900179
:200ED70064E0F58222209C02D29C3098047582012275820022AF82AE83ADF0FC900165EF13
:200EF700F0EEA3F0EDA3F0ECA3F0900169E4F0900165E0FCA3E0FDA3E0FEA3E0FF9001B9FE
:200F1700ECF0EDA3F0EEA3F0EFA3F0900177E4F5F0121B7EAC82AD83AEF0FF9001EBE0F890
:200F3700A3E0F9A3E0FAA3E0FB9001ABE8F0E9A3F0EAA3F0EBA3F08C828D838EF0EF121AE1
:200F570051AC82AD83AEF0FF90016AECF0EDA3F0EEA3F0EFA3F090016AE0F5F0A3E042F05F
:200F7700A3E042F0A3E045F06037C28F308FFD900169E02401F0E0FFBF7FDB90016AE02463
:200F9700FFFCA3E034FFFDA3E034FFFEA3E034FFFF90016AECF0EDA3F0EEA3F0EFA3F08049
:200FB700B522AF82AE83ADF0FC90016EEFF0EEA3F0EDA3F0ECA3F0900172E4F090016EE034
:200FD700FCA3E0FDA3E0FEA3E0FF9001B9ECF0EDA3F0EEA3F0EFA3F0900003E4F5F0121B49
:200FF7007EAC82AD83AEF0FF9001EBE0F8A3E0F9A3E0FAA3E0C40354F8CAC403CA6ACA549B
:20101700F8CA6AFBE9C40354074AFAE9C40354F8C8C403C868C854F8C868F99001ABE8F037
:20103700E9A3F0EAA3F0EBA3F08C828D838EF0EF121A51AC82AD83AEF0FF900173ECF0ED52
:20105700A3F0EEA3F0EFA3F0900173E0F5F0A3E042F0A3E042F0A3E045F06037C28F308F51
:20107700FD900172E02401F0E0FFBF7FDB900173E024FFFCA3E034FFFDA3E034FFFEA3E07F
:2010970034FFFF900173ECF0EDA3F0EEA3F0EFA3F080B522AF82AE83ADF0FC900177EFF06B
:2010B700EEA3F0EDA3F0ECA3F0C28EC2ABC2AF00000000900177E0FCA3E0FDA3E0FEA3E003
:2010D700FF9001ABECF0EDA3F0EEA3F0EFA3F090D80075F0B87405121A51AC82AD83AEF0E8
:2010F700FF9001EBECF0EDA3F0EEA3F0EFA3F0E4C39CFCE49DFD74019EFEE49FFF8C8B8D0B
:201117008D758911D28E7598C00000D2ABD2AF22759800000022A8140514C513F208E8C54C
:20113700130514051405140514AF82AE83ADF0FCA813EFF208EEF208EDF208ECF2A813E238
:20115700FC08E2FD08E2FE08E2FFA8131818A9140514E2F3098C828D838EF0EF120E09155C
:201177001475820A120945C513F818E2C513881422AF82AE83ADF0FC90017BEFF0EEA3F01C
:20119700EDA3F0ECA3F090017BE0FCA3E0FDA3E0FEA3E0FF9001B9ECF0EDA3F0EEA3F0EFB8
:2011B700A3F0900177E4F5F0121B7EAC82AD83AEF0FF9001AB7441F07403A3F0E4A3F0A309
:2011D700F08C828D838EF0EF121A51AC82AD83AEF0FF9001EFECF0EDA3F0EEA3F0EFA3F026
:2011F70022AFF0AE83E582900180F0EEA3F0EFA3F0900183E4F090017FE06067120EAFAF5E
:2012170082900184EFF0BF0D24900180E0FDA3E0FEA3E0FF8D828E838FF0E4121B639001BC
:2012370080042DF0E43EA3F0EFA3F08036900180E0FDA3E0FEA3E0FF900184E0FC8D828E8A
:20125700838FF0121B6390018074012DF0E43EA3F0EFA3F090017FE014F0900183E02401FE
:20127700F08093900183E0F58222A8140514C513F208E8C513051405140514AFF0AE83E560
:2012970082A813F208EEF208EFF2A813E2FD08E2FE08E2FFE51324FDF8E2FB08E290017FE4
:2012B700EBF08D828E838FF01211F8C513F818E2C513881422AFF0AE83E582900187F0EEF5
:2012D700A3F0EFA3F090018AE4F09001EFE0FCA3E0FDA3E0FEA3E0FF90018BECF0EDA3F09C
:2012F700EEA3F0EFA3F0EC4D4E4F706E900185E0F5F0A3E045F0605E900187E0FDA3E0FE59
:20131700A3E0FFC000E514F82403F514EFF208EEF208EDF2D000120EC0AC82A81418E2FD12
:2013370018E2FE18E2FF88148D828E838FF0EC121B6390018774012DF0E43EA3F0EFA3F00D
:20135700900185E024FFFEA3E034FFFF900185EEF0EFA3F0809675820022D29C90018BE09B
:20137700F5F0A3E042F0A3E042F0A3E045F0700302149DC28F208F6B3098FA9001EFE0FCA0
:20139700A3E0FDA3E0FEA3E0FF90018BECF0EDA3F0EEA3F0EFA3F0900187E0FDA3E0FEA31F
:2013B700E0FF8D828E838FF0E599121B6390018774012DF0E43EA3F0EFA3F0C29890018539
:2013D700E024FFFEA3E034FFFF900185EEF0EFA3F0900185E0F5F0A3E045F07098C29C755C
:2013F7008200223098689001EFE0FCA3E0FDA3E0FEA3E0FF90018BECF0EDA3F0EEA3F0EF3B
:20141700A3F0900187E0FDA3E0FEA3E0FF8D828E838FF0E599121B6390018774012DF0E4EF
:201437003EA3F0EFA3F0C298900185E024FFFEA3E034FFFF900185EEF0EFA3F0900185E0B0
:20145700F5F0A3E045F07006C29C7582002290018AE02401F0E0FFBF7F0280030213739021
:20147700018BE024FFFCA3E034FFFDA3E034FFFEA3E034FFFF90018BECF0EDA3F0EEA3F0B5
:20149700EFA3F0021373C29C7582FF22A8140514C513F208E8C513051405140514AFF0AEB6
:2014B70083E582A813F208EEF208EFF2A813E2FD08E2FE08E2FFE51324FDF8E2FB08E2FC6E
:2014D700900185EBF0ECA3F08D828E838FF01212CCC513F818E2C513881422AFF0AE83E5E1
:2014F70082900191F0EEA3F0EFA3F090018FE0F5F0A3E045F0604B90018FE0F5F0A3E04549
:20151700F0700122900191E0FDA3E0FEA3E0FF8D828E838FF012201AFC90019174012DF094
:20153700E43EA3F0EFA3F08C8212094590018FE024FFFEA3E034FFFF90018FEEF0EFA3F099
:2015570080B5900191E0FDA3E0FEA3E0FF8D828E838FF012201A602A900191E0FDA3E0FE48
:20157700A3E0FF8D828E838FF012201AFC90019174012DF0E43EA3F0EFA3F08C8212094592
:2015970080C022A8140514C513F208E8C513051405140514AFF0AE83E582A813F208EEF254
:2015B70008EFF2A813E2FD08E2FE08E2FFE51324FDF8E2FB08E2FC90018FEBF0ECA3F08DE5
:2015D700828E838FF01214F2C513F818E2C51388142275C00122C0E0C082C083C007C0D096
:2015F70075D00075C0019001F3E02401F0E0FFBF7F169001F4E02401F0A3E03400F0A3E009
:201617003400F0A3E03400F0D0D0D007D083D082D0E032C2AF9001F4E0FCA3E0FDA3E0FE17
:20163700A3E0FFD2AF9001EBE0F8A3E0F9A3E0FAA3E0FB9001B9E8F0E9A3F0EAA3F0EBA31C
:20165700F08C828D838EF0EF121B7EAC82AD83AEF0FF9001AB7477F07401A3F0E4A3F0A319
:20167700F08C828D838EF0EF021A51C2AF9001F4E0FCA3E0FDA3E0FEA3E0FFD2AF9001EB19
:20169700E0F8A3E0F9A3E0FAA3E0FB9001B9E8F0E9A3F0EAA3F0EBA3F08C828D838EF0EFC0
:2016B700121B7EAC82AD83AEF0C40354F8CEC403CE6ECE54F8CE6EFFEDC40354074EFEEDEB
:2016D700C40354F8CCC403CC6CCC54F8CC6CFD9001AB7403F0E4A3F0A3F0A3F08C828D836A
:2016F7008EF0EF021A510022E582900194F0900195E4F0900194E0FF900195E0FEC39F50A7
:201717000A00900195E02401F080ED22D2AF22C2AF22E5829001A2F0E0FFBF051A9001A050
:20173700E0FEA3E0FF900198EEF0EFA3F0EE4F6003D2AD22C2AD229001A2E0FFBF061A9056
:2017570001A0E0FEA3E0FF900196EEF0EFA3F0EE4F6003D2AE22C2AE229001A2E0FFBF0243
:201777001A9001A0E0FEA3E0FF90019AEEF0EFA3F0EE4F6003D2AA22C2AA229001A2E070CD
:201797001A9001A0E0FEA3E0FF90019CEEF0EFA3F0EE4F6003D2A822C2A8229001A2E0FF20
:2017B700BF01199001A0E0FEA3E0FF90019EEEF0EFA3F0EE4F6003D2A922C2A9220000004F
:2017D700C0D0C0E0C0F0C082C083C000C001C002C003C004C005C006C00700900196E0F575
:2017F700F0A3E045F0600E900196E0F8A3E0F5838882120039000000D007D006D005D00417
:20181700D003D002D001D000D083D082D0F0D0E0D0D000000032000000C0D0C0E0C0F0C0E4
:2018370082C083C000C001C002C003C004C005C006C00700900198E0F5F0A3E045F0600E9C
:20185700900198E0F8A3E0F5838882120039000000D007D006D005D004D003D002D001D084
:2018770000D083D082D0F0D0E0D0D000000032000000C0D0C0E0C0F0C082C083C000C00184
:20189700C002C003C004C005C006C0070090019AE0F5F0A3E045F0600E90019AE0F8A3E0FA
:2018B700F5838882120039000000D007D006D005D004D003D002D001D000D083D082D0F043
:2018D700D0E0D0D000000032000000C0D0C0E0C0F0C082C083C000C001C002C003C004C080
:2018F70005C006C0070090019CE0F5F0A3E045F0600E90019CE0F8A3E0F5838882120039D2
:20191700000000D007D006D005D004D003D002D001D000D083D082D0F0D0E0D0D00000005F
:2019370032000000C0D0C0E0C0F0C082C083C000C001C002C003C004C005C006C00700904D
:20195700019EE0F5F0A3E045F0600E90019EE0F8A3E0F5838882120039000000D007D006E2
:1A197700D005D004D003D002D001D000D083D082D0F0D0E0D0D00000003280
:16206500AB10DC0E090E8C0B2D114509AF0EA3149A158811271192
:0D208100410300000000000000000000000E
:20199100AF82AE83ADF0FC9001A7EFF0EEA3F0EDA3F0ECA3F09001A7E0FCA3E0FDA3E0FE8F
:2019B100A3E0FF30E70FC3E49CF8E49DF9E49EFAE49FFB80088C008D018E028F039001A3C7
:2019D100E0FCA3E0FDA3E0FEA3E0FF33E433F50A6013C3E49CF50BE49DF50CE49EF50DE4AE
:2019F1009FF50E80088C0B8D0C8E0D8F0E9001ABE50BF0E50CA3F0E50DA3F0E50EA3F08811
:201A11008289838AF0EB121A51AC82AD83AEF0FF9001A7E0F8A3E0F9A3E0FAA3E0FB33E4AC
:201A310033650A6013C3E49CF8E49DF9E49EFAE49F888289838AF0228C828D838EF0EF226D
:201A5100AF82AE83ADF0FC9001AFEFF0EEA3F0EDA3F0ECA3F09001B3E4F0A3F0A3F0A3F00A
:201A71009001ABE0FCA3E0FDA3E0FEA3E0FF7516209001AFE0F8A3E0F9A3E0FAA3E0FB90F0
:201A910001B7235401F0E828F8E933F9EA33FAEB33FB9001AFE8F0E9A3F0EAA3F0EBA3F039
:201AB1009001B3E0F8A3E0F9A3E0FAA3E0FBE828F8E933F9EA33FAEB33FB9001B3E8F0E930
:201AD100A3F0EAA3F0EBA3F09001B7E0601E9001B3E0F8A3E0F9A3E0FAA3E0FB9001B37476
:201AF1000148F0E9A3F0EAA3F0EBA3F09001B3E0F8A3E0F9A3E0FAA3E0FBC3E89CE99DEADB
:201B11009EEB9F40319001B3E8C39CF0E99DA3F0EA9EA3F0EB9FA3F09001AFE0F8A3E0F9BB
:201B3100A3E0FAA3E0FB9001AF740148F0E9A3F0EAA3F0EBA3F0D516028003021A82900196
:121B5100AFE0FCA3E0FDA3E0FEA3E08C828D838EF022B5
:06007000E4787FF6D8FDE4
:20004E007913E94400601B7A0190207B78E575E701E493F2A308B8000205E7D9F4DAF27536
:02006E00E7FFAA
:1B1B630020F71130F6138883A88220F509F6A8837583002280FEF280F5F02281
:06003E0075E700751401D6
:06009A0075E7007514017A
:201B7E00AF82AE83ADF0FC9001BDEFF0EEA3F0EDA3F0ECA3F09001BDE0FF9001BBE08FF0C7
:201B9E00A4FFADF09001C3EFF0EDA3F09001BDE0FF9001B9E08FF0A4FFADF09001C1EFF0ED
:201BBE00EDA3F09001BDE0FF9001BCE08FF0A49001C8F09001BDE0FF9001BAE08FF0A4FF47
:201BDE00ADF09001C6EFF0EDA3F09001C5E4F09001C1E0FCA3E0FDA3E0FEA3E0FF9001C563
:201BFE00E0F8A3E0F9A3E0FAA3E0FBE82CFCE93DFDEA3EFEEB3FFF9001C1ECF0EDA3F0EE5A
:201C1E00A3F0EFA3F09001C4E0FF9001C0E0FE9001B9E08EF0A42FFF9001C4F09001BFE03F
:201C3E00FE9001BAE08EF0A42F9001C4F09001C3E0FEA3E0FF9001BFE0FD9001B9E08DF03F
:201C5E00A4ABF02EFEEB3FFF9001C3EEF0EFA3F09001BEE0FD9001BAE08DF0A4ABF02EFEDF
:201C7E00EB3FFF9001C3EEF0EFA3F09001BEE0FF9001BBE08FF0A49001C8F09001BEE0FF75
:201C9E009001B9E08FF0A4FFADF09001C6EFF0EDA3F09001C5E4F09001C1E0FCA3E0FDA30C
:201CBE00E0FEA3E0FF9001C5E0F8A3E0F9A3E0FAA3E0FBE82CFCE93DFDEA3EFEEB3FFF90EF
:201CDE0001C1ECF0EDA3F0EEA3F0EFA3F09001C1E0FCA3E0FDA3E0FEA3E08C828D838EF077
:011CFE0022C3
:201CFF00AF83E5829001CBF0EFA3F09001CBE0FEA3E0FF30E709C3E49EFCE49FFD80048EAF
:201D1F00048F059001C9E0FEA3E0FF33E433FB6009C3E49EF9E49FFA80048E018F029001B4
:201D3F00CDE9F0EAA3F0C000EBA8140514F2D0008C828D83121D80AE82AF83A81418E2FB3F
:201D5F0015149001CBE0FCA3E0FD33E4336B600CC3E49EFCE49FFD8C828D83228E828F833F
:011D7F002241
:200076007800E84400600A790175E700E4F309D8FC78E5E84400600C7901900100E4F0A35B
:04009600D8FCD9FABF
:201D8000AF83E5829001CFF0EFA3F09001D1E4F0A3F09001CDE0FEA3E0FF7D109001CFE084
:201DA000FBA3E0FC9001D3235401F0ECCB25E0CB33FC9001CFEBF0ECA3F09001D1E0FBA38D
:201DC000E0CB25E0CB33FC9001D1EBF0ECA3F09001D3E060129001D1E0FBA3E0FC9001D1C9
:201DE00074014BF0ECA3F09001D1E0FBA3E0FCC3EB9EEC9F401D9001D1EBC39EF0EC9FA3F8
:201E0000F09001CFE0FBA3E0FC9001CF74014BF0ECA3F0DD879001CFE0FEA3E08E82F583DC
:011E2000229F
:201E2100AF82AE83ADF0FC9001D8EFF0EEA3F0EDA3F0ECA3F09001D8E0FCA3E0FDA3E0FE98
:201E4100A3E0FF30E70FC3E49CF8E49DF9E49EFAE49FFB80088C008D018E028F039001D401
:201E6100E0FCA3E0FDA3E0FEA3E0FF30E713C3E49CF50FE49DF510E49EF511E49FF5128079
:201E8100088C0F8D108E118F129001DCE50FF0E510A3F0E511A3F0E512A3F0888289838A35
:201EA100F0EB121ED9AC82AD83AEF0FF9001D8E0F8A3E0F9A3E0FAA3E0FB30E713C3E49C1D
:181EC100F8E49DF9E49EFAE49F888289838AF0228C828D838EF0EF2239
:201ED900AF82AE83ADF0FC9001E0EFF0EEA3F0EDA3F0ECA3F09001E4E4F09001E0E0FCA3E5
:201EF900E0FDA3E0FEA3E0FF7B009001DCE0F516A3E0F517A3E0F518A3E0F519235401FAF4
:201F19007074C003E5162516F8E51733F9E51833FAE51933FB9001DCE8F0E9A3F0EAA3F017
:201F3900EBA3F09001DCE0F516A3E0F517A3E0F518A3E0F519C3EC9516ED9517EE9518EF85
:201F59009519D0035027E519C313F519E51813F518E51713F517E51613F5169001DCF0E5FB
:201F790017A3F0E518A3F0E519A3F080090B9001E4EBF0021F039001E4E0FF9001E0E0FBD5
:201F9900A3E0FCA3E0FDA3E0FE9001DCE0F516A3E0F517A3E0F518A3E0F519C3EB9516EC5B
:201FB9009517ED9518EE951940179001E0EBC39516F0EC9517A3F0ED9518A3F0EE9519A37E
:201FD900F09001DCE0FBA3E0FCA3E0FDA3E0C313FEED13FDEC13FCEB13FB9001DCF0ECA37D
:201FF900F0EDA3F0EEA3F08F061FEE708E9001E0E0FCA3E0FDA3E0FEA3E08C828D838EF0CA
:0120190022A4
:05003900E47375812055
:0A004400122036E582600302003648
:1C201A0020F71430F6148883A88220F507E6A88375830022E280F7E49322E022D5
:04203600758200228D
:00000001FF
