:0600000002003B021A950C
:03000B00021AEEE8
:03001300021A3C92
:03001B000217A326
:0100230032AA
:03002B000219E3D4
:0300330002198A25
:0300A00002003625
:030036000200A322
:2000A300902165E493FEA3E493FFC000A81605160516EFF208EEF2D0001200C1800CC00627
:1A00C300C00790100075F00EE422A81618E218E288161201EA12029480FBD3
:2000DD00A8160516C515F208E8C5150516E582A815F253A0FCA815E2FF74035F42A0C51544
:2000FD00F818E2C51588162275F1FF75F2FF43F3037582030200DDA8160516C515F208E8E5
:20011D00C5150516E582A815F2A815E2FF1392009287EFA2E192009297C515F818E2C51588
:20013D00881622A8160516C515F208E8C51505160516E582A815F2A815E2FFA81508740F41
:20015D005FF2A8151818E27010538080A81508E290213893FF42808017A8151818E2FFBF87
:20017D00010E539080A81508E290213893FF4290C515F818E2C515881622A8160516C515E3
:20019D00F208E8C5150516E582A815F2A815E2FFC000EFA8160516F2D000A816051674011F
:2001BD00F2088F821201401516A81618E2FF1516EFC4540FFFA8160516E4F2088F821201C7
:2001DD00401516C515F818E2C515881622902165E493FEA3E493FFC000A81605160516EFEA
:2001FD00F208EEF2D000120208800CC006C00790C20075F001E422A81618E218E288169065
:20021D0003E8E4F5F01210A2902175E493FEA3E493FFC000A81605160516EFF208EEF2D048
:20023D0000A81605160516E4F208F20812024E800BC006C00790215075F0802215161516FD
:20025D00A81618E218E28816902148E493FEA3E493FFC000A81605160516EFF208EEF2D05D
:20027D00008E828F83120039A81618E218E2881675D50475F4FF2290216DE493FEA3E4931F
:20029D00FF90023BE0FAA3E0FBA3E0FCA3E0FD90023B74012AF0E43BA3F0E43CA3F0E43D3C
:2002BD00A3F0C000A81605160516EFF208EEF2D000A8160516E4F2081202DA800CC006C08A
:2002DD00078A828B838CF0ED221516A81618E218E28816AFD590023AEFF090214CE493FD3A
:2002FD00A3E493FEC000A81605160516EEF208EDF2D0001203158007C005C0068F8222A867
:20031D001618E2FD18E2FE881690023AE00303543FF0E0FF8FF005F07401800225E0D5F0D4
:0D033D00FB14F5B09003E8E4F5F00210A207
:202138003F065B4F666D7D077F6F777C395E79710501DD009701140148656C6C6F20576F75
:07215800726C64210A2000F3
:05217B0000000000005F
:20034A00E582900101F0E0F5F87582010218B5AF82AE83ADF0FC900102EFF0EEA3F0EDA398
:20036A00F0ECA3F0900102E0FCA3E0FDA3E0FEA3E0FF30E73C75822D12034A900102E0FCCD
:20038A00A3E0FDA3E0FEA3E0FF900102ECF4F0EDF4A3F0EEF4A3F0EFF4A3F0900102E02477
:2003AA0001F0A3E03400F0A3E03400F0A3E03400F0900106E4F0900106E02407F508E4342B
:2003CA0001F509900102E0FAA3E0FBA3E0FCA3E0FD900158740AF0E4A3F0A3F0A3F0C00076
:2003EA00E516F82404F516EDF208ECF208EBF208EAF2D0008A828B838CF0ED120935A88272
:20040A00C000A81618E2FA18E2FB18E2FC18E2FD8816D000850882850983E8F09002097409
:20042A000AF0E4A3F0A3F0A3F08A828B838CF0ED121C88AC82AD83AEF0FF900102ECF0ED8B
:20044A00A3F0EEA3F0EFA3F0900102E0F5F0A3E042F0A3E042F0A3E045F06011900106E09A
:20046A002401F0E0FFBF0A0050030203C0900106E0FF2407F582E43401F583E0FEC000EF67
:20048A00A8160516F2D0008E82120B0FAE82A81618E2FF1516C000EFA8160516F2D0008E91
:2004AA008212034AA81618E2FF1516EFFE14900106F0EE70B822AF82AE83ADF0FC90011112
:2004CA00EFF0EEA3F0EDA3F0ECA3F0900115E4F0900115E02416FFE43401FE900111E0FAE7
:2004EA00A3E0FBA3E0FCA3E0FD8A0153010F8F828E83E9F0EBC4CAC4540F6ACA540FCA6A21
:20050A00CAFBECC454F04BFBEDC4CCC4540F6CCC540FCC6CCCFD900111EAF0EBA3F0ECA309
:20052A00F0EDA3F0900111E0F5F0A3E042F0A3E042F0A3E045F0600E900115E02401F0E0CF
:20054A00FFBF0800408A900115E0FF2416F582E43401F583E0FEC000EFA8160516F2D00012
:20056A008E82120B0FAE82A81618E2FF1516C000EFA8160516F2D0008E8212034AA8161894
:20058A00E2FF1516EFFE14900115F0EE70B822AF82AE83ADF0FC90011EEFF0EEA3F0EDA3DC
:2005AA00F0ECA3F0900122E4F0900122E02423FFE43401FE90011EE0FAA3E0FBA3E0FCA322
:2005CA00E0FD8A015301078F828E83E9F0EBC423CAC423541F6ACA541FCA6ACAFBECC423EA
:2005EA0054E04BFBEDC423CCC423541F6CCC541FCC6CCCFD90011EEAF0EBA3F0ECA3F0ED5E
:20060A00A3F090011EE0F5F0A3E042F0A3E042F0A3E045F06011900122E02401F0E0FFBFF0
:20062A000B0050030205B3900122E0FF2423F582E43401F583E0FEC000EFA8160516F2D08F
:20064A00008E82120B0FAE82A81618E2FF1516C000EFA8160516F2D0008E8212034AA816CB
:20066A0018E2FF1516EFFE14900122F0EE70B822AF82AE83ADF0FC90012EEFF0EEA3F0ED69
:20068A00A3F0ECA3F0900132E4F0900132E02433FFE43401FE90012EE0FAA3E0FBA3E0FC01
:2006AA00A3E0FD8A015301018F828E83E9F0EDC313FDEC13FCEB13FBEA13FA90012EF0EB90
:2006CA00A3F0ECA3F0EDA3F090012EE0F5F0A3E042F0A3E042F0A3E045F0600E900132E0C7
:2006EA002401F0E0FFBF200040A0900132E0FF2433F582E43401F583E0FEC000EFA81605EC
:20070A0016F2D0008E82120B0FAE82A81618E2FF1516C000EFA8160516F2D0008E8212033A
:20072A004AA81618E2FF1516EFFE14900132F0EE70B822A8160516C515F208E8C51505160D
:20074A00051605160516AF82AE83ADF0FCA815EFF208EEF208EDF208ECF2A8151818E2FF22
:20076A00BF0117A815E2FC08E2FD08E2FE08E28C828D838EF012067A8055A8151818E2FF73
:20078A00BF0317A815E2FC08E2FD08E2FE08E28C828D838EF01204C08035A8151818E2FF2D
:2007AA00BF0217A815E2FC08E2FD08E2FE08E28C828D838EF01205998015A815E2FC08E29D
:2007CA00FD08E2FE08E28C828D838EF0120359C515F818E2C515881622A8160516C515F22B
:2007EA0008E8C5150516051605160516AF82AE83ADF0FCA815EFF208EEF208EDF208ECF26B
:20080A00A815E2FC08E2FD08E2FE08E2FFA8151818A9160516E2F3098C828D838EF0EF1239
:20082A00073D151675820A12034AC515F818E2C515881622AFF0AE83E582900155F0EEA3DB
:20084A00F0EFA3F0900153E0F5F0A3E045F0604B900153E0F5F0A3E045F070012290015536
:20086A00E0FDA3E0FEA3E0FF8D828E838FF0122118FC90015574012DF0E43EA3F0EFA3F0F9
:20088A008C8212034A900153E024FFFEA3E034FFFF900153EEF0EFA3F080B5900155E0FD0B
:2008AA00A3E0FEA3E0FF8D828E838FF0122118602A900155E0FDA3E0FEA3E0FF8D828E83D1
:2008CA008FF0122118FC90015574012DF0E43EA3F0EFA3F08C8212034A80C022A8160516F1
:2008EA00C515F208E8C515051605160516AFF0AE83E582A815F208EEF208EFF2A815E2FDB4
:20090A0008E2FE08E2FFE51524FDF8E2FB08E2FC900153EBF0ECA3F08D828E838FF012082F
:0B092A003EC515F818E2C5158816221E
:06215F003D07E307E6085E
:20093500AF82AE83ADF0FC90015CEFF0EEA3F0EDA3F0ECA3F090015CE0FCA3E0FDA3E0FE91
:20095500A3E0FF30E70FC3E49CF8E49DF9E49EFAE49FFB80088C008D018E028F039001587E
:20097500E0FCA3E0FDA3E0FEA3E0FF30E713C3E49CF50AE49DF50BE49EF50CE49FF50D808E
:20099500088C0A8D0B8E0C8F0D900200E50AF0E50BA3F0E50CA3F0E50DA3F0888289838A39
:2009B500F0EB121B47AC82AD83AEF0FF90015CE0F8A3E0F9A3E0FAA3E0FB30E713C3E49C2F
:1809D500F8E49DF9E49EFAE49F888289838AF0228C828D838EF0EF223A
:2009ED00E582900161F0E0FFC423541FFE900162F074075FF5F005F07401800225E0D5F012
:200A0D00FB900163F0EE7015900160E06007900163E042F122900163E0F452F122900162F6
:200A2D00E0FFBF0115900160E06007900163E042F222900163E0F4FF52F222E58290016509
:200A4D00F0E0FFC423541FFE900166F074075FF5F005F07401800225E0D5F0FB900167F023
:200A6D00EE7015900164E06007900167E0428022900167E0F4528022900166E0FFBF011593
:200A8D00900164E06007900167E0429022900167E0F4FF529022E582900168F0E0FFC4235C
:200AAD00541FFE900169F074075FF5F005F07401800225E0D5F0FB90016AF0EE7012900172
:200ACD006AE0FF558060047F0180027F008F8222900169E0FFBF011290016AE0FF55906009
:200AED00047F0180027F008F82227582FF22E58290016BF0C29C90016BE0F59910990280D3
:200B0D00FB22E58290016CF0E0FFBF0A00500990016CE02430F5822290016CE024F6244130
:200B2D00F58222E58290016DF0E0FF30E71175822D120AFB90016DE0FFF4F0E02401F09032
:200B4D00016DE0FFC2D575F064EF30E704B2D5F4048430D502F404FF90016EF0EF600C90F6
:200B6D00016EE0F582120B0F120AFB90016DE0FF3395E0FE90016EE075F064A4D39FF4B377
:200B8D00FFEE95F0FE90022F740AF0E4A3F08F828E83121FF6AE82AF8390016EEEF0E0606A
:200BAD000C90016EE0F582120B0F120AFB90016DE0FF75F00AC2D530E704D2D5F40484E57D
:200BCD00F030D502F404F582120B0F020AFBAF82AE83ADF0FC90016FEFF0EEA3F0EDA3F094
:200BED00ECA3F090016FE0FCA3E0FDA3E0FEA3E0FF30E73C75822D120AFB90016FE0FCA3FD
:200C0D00E0FDA3E0FEA3E0FF90016FECF4F0EDF4A3F0EEF4A3F0EFF4A3F090016FE02401B3
:200C2D00F0A3E03400F0A3E03400F0A3E03400F0900173E4F0900173E02474F50EE4340152
:200C4D00F50F90016FE0FAA3E0FBA3E0FCA3E0FD900158740AF0E4A3F0A3F0A3F0C000E593
:200C6D0016F82404F516EDF208ECF208EBF208EAF2D0008A828B838CF0ED120935A882C00B
:200C8D0000A81618E2FA18E2FB18E2FC18E2FD8816D000850E82850F83E8F0900209740A28
:200CAD00F0E4A3F0A3F0A3F08A828B838CF0ED121C88AC82AD83AEF0FF90016FECF0EDA3FA
:200CCD00F0EEA3F0EFA3F090016FE0F5F0A3E042F0A3E042F0A3E045F06011900173E024B4
:200CED0001F0E0FFBF0A005003020C42900173E0FF2474F582E43401F583E0FEC000EFA8F3
:200D0D00160516F2D0008E82120B0FAE82A81618E2FF1516C000EFA8160516F2D0008E822B
:200D2D00120AFBA81618E2FF1516EFFE14900173F0EE70B822AF82AE83ADF0FC90017EEF87
:200D4D00F0EEA3F0EDA3F0ECA3F0900182E4F0900182E02483FFE43401FE90017EE0FAA3F3
:200D6D00E0FBA3E0FCA3E0FD8A0153010F8F828E83E9F0EBC4CAC4540F6ACA540FCA6ACA6E
:200D8D00FBECC454F04BFBEDC4CCC4540F6CCC540FCC6CCCFD90017EEAF0EBA3F0ECA3F0EB
:200DAD00EDA3F090017EE0F5F0A3E042F0A3E042F0A3E045F0600E900182E02401F0E0FF5B
:200DCD00BF0800408A900182E0FF2483F582E43401F583E0FEC000EFA8160516F2D0008E1E
:200DED0082120B0FAE82A81618E2FF1516C000EFA8160516F2D0008E82120AFBA81618E2FD
:200E0D00FF1516EFFE14900182F0EE70B822AF82AE83ADF0FC90018BEFF0EEA3F0EDA3F068
:200E2D00ECA3F090018FE4F090018FE02490FFE43401FE90018BE0FAA3E0FBA3E0FCA3E0F2
:200E4D00FD8A015301078F828E83E9F0EBC423CAC423541F6ACA541FCA6ACAFBECC42354EA
:200E6D00E04BFBEDC423CCC423541F6CCC541FCC6CCCFD90018BEAF0EBA3F0ECA3F0EDA316
:200E8D00F090018BE0F5F0A3E042F0A3E042F0A3E045F0601190018FE02401F0E0FFBF0B23
:200EAD00005003020E3590018FE0FF2490F582E43401F583E0FEC000EFA8160516F2D000AA
:200ECD008E82120B0FAE82A81618E2FF1516C000EFA8160516F2D0008E82120AFBA8161870
:200EED00E2FF1516EFFE1490018FF0EE70B822AF82AE83ADF0FC90019BEFF0EEA3F0EDA379
:200F0D00F0ECA3F090019FE4F090019FE024A0FFE43401FE90019BE0FAA3E0FBA3E0FCA3C1
:200F2D00E0FD8A015301018F828E83E9F0EDC313FDEC13FCEB13FBEA13FA90019BF0EBA397
:200F4D00F0ECA3F0EDA3F090019BE0F5F0A3E042F0A3E042F0A3E045F0600E90019FE024E0
:200F6D0001F0E0FFBF200040A090019FE0FF24A0F582E43401F583E0FEC000EFA816051694
:200F8D00F2D0008E82120B0FAE82A81618E2FF1516C000EFA8160516F2D0008E82120AFBC3
:200FAD00A81618E2FF1516EFFE1490019FF0EE70B822A8160516C515F208E8C5150516055A
:200FCD001605160516AF82AE83ADF0FCA815EFF208EEF208EDF208ECF2A8151818E2FFBFDD
:200FED000117A815E2FC08E2FD08E2FE08E28C828D838EF0120EFC8055A8151818E2FFBF5E
:20100D000317A815E2FC08E2FD08E2FE08E28C828D838EF0120D428035A8151818E2FFBF16
:20102D000217A815E2FC08E2FD08E2FE08E28C828D838EF0120E1B8015A815E2FC08E2FD48
:20104D0008E2FE08E28C828D838EF0120BDBC515F818E2C515881622D29C9001C0E599F08A
:20106D00C2989001C0E0F58222C298000000D29C0000003098FD9001C1E599F0C298900107
:20108D00C1E0F58222209C02D29C3098047582012275820022AF82AE83ADF0FC9001C2EFA1
:2010AD00F0EEA3F0EDA3F0ECA3F09001C6E4F09001C2E0FCA3E0FDA3E0FEA3E0FF90021F25
:2010CD00ECF0EDA3F0EEA3F0EFA3F0900177E4F5F0121E75AC82AD83AEF0FF90023FE0F88A
:2010ED00A3E0F9A3E0FAA3E0FB900211E8F0E9A3F0EAA3F0EBA3F08C828D838EF0EF121DC0
:20110D0048AC82AD83AEF0FF9001C7ECF0EDA3F0EEA3F0EFA3F09001C7E0F5F0A3E042F0F6
:20112D00A3E042F0A3E045F06037C28F308FFD9001C6E02401F0E0FFBF7FDB9001C7E024F1
:20114D00FFFCA3E034FFFDA3E034FFFEA3E034FFFF9001C7ECF0EDA3F0EEA3F0EFA3F08034
:20116D00B522AF82AE83ADF0FC9001CBEFF0EEA3F0EDA3F0ECA3F09001CFE4F09001CBE065
:20118D00FCA3E0FDA3E0FEA3E0FF90021FECF0EDA3F0EEA3F0EFA3F0900003E4F5F0121E27
:2011AD0075AC82AD83AEF0FF90023FE0F8A3E0F9A3E0FAA3E0C40354F8CAC403CA6ACA5497
:2011CD00F8CA6AFBE9C40354074AFAE9C40354F8C8C403C868C854F8C868F9900211E8F019
:2011ED00E9A3F0EAA3F0EBA3F08C828D838EF0EF121D48AC82AD83AEF0FF9001D0ECF0ED44
:20120D00A3F0EEA3F0EFA3F09001D0E0F5F0A3E042F0A3E042F0A3E045F06037C28F308F3C
:20122D00FD9001CFE02401F0E0FFBF7FDB9001D0E024FFFCA3E034FFFDA3E034FFFEA3E00D
:20124D0034FFFF9001D0ECF0EDA3F0EEA3F0EFA3F080B522AF82AE83ADF0FC9001D4EFF0F9
:20126D00EEA3F0EDA3F0ECA3F0C28EC2ABC2AF000000009001D4E0FCA3E0FDA3E0FEA3E0EE
:20128D00FF900211ECF0EDA3F0EEA3F0EFA3F090D80075F0B87405121D48AC82AD83AEF0CF
:2012AD00FF90023FECF0EDA3F0EEA3F0EFA3F0E4C39CFCE49DFD74019EFEE49FFF8C8B8DFE
:2012CD008D758911D28E7598C00000D2ABD2AF22759800000022A8160516C515F208E8C58F
:2012ED00150516051605160516AF82AE83ADF0FCA815EFF208EEF208EDF208ECF2A815E273
:20130D00FC08E2FD08E2FE08E2FFA8151818A9160516E2F3098C828D838EF0EF120FBF15E7
:20132D001675820A120AFBC515F818E2C515881622AF82AE83ADF0FC9001D8EFF0EEA3F048
:20134D00EDA3F0ECA3F09001D8E0FCA3E0FDA3E0FEA3E0FF90021FECF0EDA3F0EEA3F0EF3C
:20136D00A3F0900177E4F5F0121E75AC82AD83AEF0FF9002117441F07403A3F0E4A3F0A3F0
:20138D00F08C828D838EF0EF121D48AC82AD83AEF0FF900243ECF0EDA3F0EEA3F0EFA3F01F
:2013AD0022AFF0AE83E5829001DDF0EEA3F0EFA3F09001E0E4F09001DCE06067121065AFD7
:2013CD00829001E1EFF0BF0D249001DDE0FDA3E0FEA3E0FF8D828E838FF0E4121E5A900151
:2013ED00DD042DF0E43EA3F0EFA3F080369001DDE0FDA3E0FEA3E0FF9001E1E0FC8D828EBC
:20140D00838FF0121E5A9001DD74012DF0E43EA3F0EFA3F09001DCE014F09001E0E0240135
:20142D00F080939001E0E0F58222A8160516C515F208E8C515051605160516AFF0AE83E53D
:20144D0082A815F208EEF208EFF2A815E2FD08E2FE08E2FFE51524FDF8E2FB08E29001DCC9
:20146D00EBF08D828E838FF01213AEC515F818E2C515881622AFF0AE83E5829001E4F0EE22
:20148D00A3F0EFA3F09001E7E4F0900243E0FCA3E0FDA3E0FEA3E0FF9001E8ECF0EDA3F0D5
:2014AD00EEA3F0EFA3F0EC4D4E4F706E9001E2E0F5F0A3E045F0605E9001E4E0FDA3E0FEE7
:2014CD00A3E0FFC000E516F82403F516EFF208EEF208EDF2D000121076AC82A81618E2FD9D
:2014ED0018E2FE18E2FF88168D828E838FF0EC121E5A9001E474012DF0E43EA3F0EFA3F0FD
:20150D009001E2E024FFFEA3E034FFFF9001E2EEF0EFA3F0809675820022D29C9001E8E0CC
:20152D00F5F0A3E042F0A3E042F0A3E045F07003021653C28F208F6B3098FA900243E0FCDB
:20154D00A3E0FDA3E0FEA3E0FF9001E8ECF0EDA3F0EEA3F0EFA3F09001E4E0FDA3E0FEA3AD
:20156D00E0FF8D828E838FF0E599121E5A9001E474012DF0E43EA3F0EFA3F0C2989001E2CD
:20158D00E024FFFEA3E034FFFF9001E2EEF0EFA3F09001E2E0F5F0A3E045F07098C29C75EA
:2015AD00820022309868900243E0FCA3E0FDA3E0FEA3E0FF9001E8ECF0EDA3F0EEA3F0EFD1
:2015CD00A3F09001E4E0FDA3E0FEA3E0FF8D828E838FF0E599121E5A9001E474012DF0E484
:2015ED003EA3F0EFA3F0C2989001E2E024FFFEA3E034FFFF9001E2EEF0EFA3F09001E2E0E2
:20160D00F5F0A3E045F07006C29C758200229001E7E02401F0E0FFBF7F0280030215299054
:20162D0001E8E024FFFCA3E034FFFDA3E034FFFEA3E034FFFF9001E8ECF0EDA3F0EEA3F043
:20164D00EFA3F0021529C29C7582FF22A8160516C515F208E8C515051605160516AFF0AE38
:20166D0083E582A815F208EEF208EFF2A815E2FD08E2FE08E2FFE51524FDF8E2FB08E2FCB0
:20168D009001E2EBF0ECA3F08D828E838FF0121482C515F818E2C515881622AFF0AE83E50E
:2016AD00829001EEF0EEA3F0EFA3F09001ECE0F5F0A3E045F0604B9001ECE0F5F0A3E0457A
:2016CD00F07001229001EEE0FDA3E0FEA3E0FF8D828E838FF0122118FC9001EE74012DF024
:2016ED00E43EA3F0EFA3F08C82120AFB9001ECE024FFFEA3E034FFFF9001ECEEF0EFA3F071
:20170D0080B59001EEE0FDA3E0FEA3E0FF8D828E838FF0122118602A9001EEE0FDA3E0FED7
:20172D00A3E0FF8D828E838FF0122118FC9001EE74012DF0E43EA3F0EFA3F08C82120AFBC7
:20174D0080C022A8160516C515F208E8C515051605160516AFF0AE83E582A815F208EEF28C
:20176D0008EFF2A815E2FD08E2FE08E2FFE51524FDF8E2FB08E2FC9001ECEBF0ECA3F08DCC
:20178D00828E838FF01216A8C515F818E2C51588162275C00122C0E0C082C083C007C0D020
:2017AD0075D00075C001900247E02401F0E0FFBF7F16900248E02401F0A3E03400F0A3E0A7
:2017CD003400F0A3E03400F0D0D0D007D083D082D0E032C2AF900248E0FCA3E0FDA3E0FE0B
:2017ED00A3E0FFD2AF90023FE0F8A3E0F9A3E0FAA3E0FB90021FE8F0E9A3F0EAA3F0EBA3A9
:20180D00F08C828D838EF0EF121E75AC82AD83AEF0FF9002117477F07401A3F0E4A3F0A300
:20182D00F08C828D838EF0EF021D48C2AF900248E0FCA3E0FDA3E0FEA3E0FFD2AF90023FBD
:20184D00E0F8A3E0F9A3E0FAA3E0FB90021FE8F0E9A3F0EAA3F0EBA3F08C828D838EF0EFA1
:20186D00121E75AC82AD83AEF0C40354F8CEC403CE6ECE54F8CE6EFFEDC40354074EFEED39
:20188D00C40354F8CCC403CC6CCC54F8CC6CFD9002117403F0E4A3F0A3F0A3F08C828D834B
:2018AD008EF0EF021D480022E5829001F1F09001F2E4F09001F1E0FF9001F2E0FEC39F5081
:2018CD000A009001F2E02401F080ED22D2AF22C2AF22E5829001FFF0E0FFBF051A9001FD82
:2018ED00E0FEA3E0FF9001F5EEF0EFA3F0EE4F6003D2AD22C2AD229001FFE0FFBF061A90E5
:20190D0001FDE0FEA3E0FF9001F3EEF0EFA3F0EE4F6003D2AE22C2AE229001FFE0FFBF0274
:20192D001A9001FDE0FEA3E0FF9001F7EEF0EFA3F0EE4F6003D2AA22C2AA229001FFE070FE
:20194D001A9001FDE0FEA3E0FF9001F9EEF0EFA3F0EE4F6003D2A822C2A8229001FFE0FF51
:20196D00BF01199001FDE0FEA3E0FF9001FBEEF0EFA3F0EE4F6003D2A922C2A922000000DD
:20198D00C0D0C0E0C0F0C082C083C000C001C002C003C004C005C006C007009001F3E0F560
:2019AD00F0A3E045F0600E9001F3E0F8A3E0F5838882120039000000D007D006D005D00402
:2019CD00D003D002D001D000D083D082D0F0D0E0D0D000000032000000C0D0C0E0C0F0C02D
:2019ED0082C083C000C001C002C003C004C005C006C007009001F5E0F5F0A3E045F0600E88
:201A0D009001F5E0F8A3E0F5838882120039000000D007D006D005D004D003D002D001D06F
:201A2D0000D083D082D0F0D0E0D0D000000032000000C0D0C0E0C0F0C082C083C000C001CC
:201A4D00C002C003C004C005C006C007009001F7E0F5F0A3E045F0600E9001F7E0F8A3E088
:201A6D00F5838882120039000000D007D006D005D004D003D002D001D000D083D082D0F08B
:201A8D00D0E0D0D000000032000000C0D0C0E0C0F0C082C083C000C001C002C003C004C0C8
:201AAD0005C006C007009001F9E0F5F0A3E045F0600E9001F9E0F8A3E0F583888212003960
:201ACD00000000D007D006D005D004D003D002D001D000D083D082D0F0D0E0D0D0000000A8
:201AED0032000000C0D0C0E0C0F0C082C083C000C001C002C003C004C005C006C007009096
:201B0D0001FBE0F5F0A3E045F0600E9001FBE0F8A3E0F5838882120039000000D007D00670
:1A1B2D00D005D004D003D002D001D000D083D082D0F0D0E0D0D000000032C8
:1621650061129210BF0F420DE312FB0A6510591650173E13DD12AD
:0D218000410300000000000000000000000E
:201B4700AF82AE83ADF0FC900204EFF0EEA3F0EDA3F0ECA3F0900208E4F0900204E0FCA30B
:201B6700E0FDA3E0FEA3E0FF7B00900200E0F518A3E0F519A3E0F51AA3E0F51B235401FA5C
:201B87007074C003E5182518F8E51933F9E51A33FAE51B33FB900200E8F0E9A3F0EAA3F07E
:201BA700EBA3F0900200E0F518A3E0F519A3E0F51AA3E0F51BC3EC9518ED9519EE951AEFE8
:201BC700951BD0035027E51BC313F51BE51A13F51AE51913F519E51813F518900200F0E55A
:201BE70019A3F0E51AA3F0E51BA3F080090B900208EBF0021B71900208E0FF900204E0FB8C
:201C0700A3E0FCA3E0FDA3E0FE900200E0F518A3E0F519A3E0F51AA3E0F51BC3EB9518ECC1
:201C27009519ED951AEE951B4017900204EBC39518F0EC9519A3F0ED951AA3F0EE951BA3E0
:201C4700F0900200E0FBA3E0FCA3E0FDA3E0C313FEED13FDEC13FCEB13FB900200F0ECA3C8
:201C6700F0EDA3F0EEA3F08F061FEE708E900204E0FCA3E0FDA3E0FEA3E08C828D838EF03A
:011C8700223A
:201C8800AF82AE83ADF0FC90020DEFF0EEA3F0EDA3F0ECA3F090020DE0FCA3E0FDA3E0FEC7
:201CA800A3E0FF30E70FC3E49CF8E49DF9E49EFAE49FFB80088C008D018E028F0390020966
:201CC800E0FCA3E0FDA3E0FEA3E0FF33E433F5106013C3E49CF511E49DF512E49EF513E49C
:201CE8009FF51480088C118D128E138F14900211E511F0E512A3F0E513A3F0E514A3F0887A
:201D08008289838AF0EB121D48AC82AD83AEF0FF90020DE0F8A3E0F9A3E0FAA3E0FB33E451
:201D28003365106013C3E49CF8E49DF9E49EFAE49F888289838AF0228C828D838EF0EF226D
:201D4800AF82AE83ADF0FC900215EFF0EEA3F0EDA3F0ECA3F0900219E4F0A3F0A3F0A3F042
:201D6800900211E0FCA3E0FDA3E0FEA3E0FF751820900215E0F8A3E0F9A3E0FAA3E0FB9026
:201D8800021D235401F0E828F8E933F9EA33FAEB33FB900215E8F0E9A3F0EAA3F0EBA3F071
:201DA800900219E0F8A3E0F9A3E0FAA3E0FBE828F8E933F9EA33FAEB33FB900219E8F0E968
:201DC800A3F0EAA3F0EBA3F090021DE0601E900219E0F8A3E0F9A3E0FAA3E0FB9002197447
:201DE8000148F0E9A3F0EAA3F0EBA3F0900219E0F8A3E0F9A3E0FAA3E0FBC3E89CE99DEA7A
:201E08009EEB9F4031900219E8C39CF0E99DA3F0EA9EA3F0EB9FA3F0900215E0F8A3E0F9F3
:201E2800A3E0FAA3E0FB900215740148F0E9A3F0EAA3F0EBA3F0D518028003021D79900238
:121E480015E0FCA3E0FDA3E0FEA3E08C828D838EF02255
:06007000E4787FF6D8FDE4
:20004E007912E94400601B7A0190217B783A75E702E493F2A308B8000205E7D9F4DAF275E0
:02006E00E7FFAA
:1B1E5A0020F71130F6138883A88220F509F6A8837583002280FEF280F5F02287
:06003E0075E700751601D4
:06009A0075E70075160178
:201E7500AF82AE83ADF0FC900223EFF0EEA3F0EDA3F0ECA3F0900223E0FF900221E08FF098
:201E9500A4FFADF0900229EFF0EDA3F0900223E0FF90021FE08FF0A4FFADF0900227EFF057
:201EB500EDA3F0900223E0FF900222E08FF0A490022EF0900223E0FF900220E08FF0A4FF4A
:201ED500ADF090022CEFF0EDA3F090022BE4F0900227E0FCA3E0FDA3E0FEA3E0FF90022BCD
:201EF500E0F8A3E0F9A3E0FAA3E0FBE82CFCE93DFDEA3EFEEB3FFF900227ECF0EDA3F0EEF9
:201F1500A3F0EFA3F090022AE0FF900226E0FE90021FE08EF0A42FFF90022AF0900225E042
:201F3500FE900220E08EF0A42F90022AF0900229E0FEA3E0FF900225E0FD90021FE08DF042
:201F5500A4ABF02EFEEB3FFF900229EEF0EFA3F0900224E0FD900220E08DF0A4ABF02EFEB0
:201F7500EB3FFF900229EEF0EFA3F0900224E0FF900221E08FF0A490022EF0900224E0FF78
:201F950090021FE08FF0A4FFADF090022CEFF0EDA3F090022BE4F0900227E0FCA3E0FDA376
:201FB500E0FEA3E0FF90022BE0F8A3E0F9A3E0FAA3E0FBE82CFCE93DFDEA3EFEEB3FFF908E
:201FD5000227ECF0EDA3F0EEA3F0EFA3F0900227E0FCA3E0FDA3E0FEA3E08C828D838EF0AF
:011FF50022C9
:201FF600AF83E582900231F0EFA3F0900231E0FEA3E0FF30E709C3E49EFCE49FFD80048EE7
:20201600048F0590022FE0FEA3E0FF33E433FB6009C3E49EF9E49FFA80048E018F02900252
:2020360033E9F0EAA3F0C000EBA8160516F2D0008C828D83122077AE82AF83A81618E2FBDF
:202056001516900231E0FCA3E0FD33E4336B600CC3E49EFCE49FFD8C828D83228E828F83DC
:012076002247
:200076007800E84400600A790175E700E4F309D8FC7839E84401600C7902900101E4F0A304
:04009600D8FCD9FABF
:20207700AF83E582900235F0EFA3F0900237E4F0A3F0900233E0FEA3E0FF7D10900235E0EE
:20209700FBA3E0FC900239235401F0ECCB25E0CB33FC900235EBF0ECA3F0900237E0FBA35E
:2020B700E0CB25E0CB33FC900237EBF0ECA3F0900239E06012900237E0FBA3E0FC90023733
:2020D70074014BF0ECA3F0900237E0FBA3E0FCC3EB9EEC9F401D900237EBC39EF0EC9FA330
:2020F700F0900235E0FBA3E0FC90023574014BF0ECA3F0DD87900235E0FEA3E08E82F583AE
:0121170022A5
:05003900E47375812055
:0A004400122134E582600302003649
:1C21180020F71430F6148883A88220F507E6A88375830022E280F7E49322E022D6
:04213400758200228E
:00000001FF
