:0600000002003B0218DFC4
:03000B000219389F
:030013000218864A
:03001B000215EDDE
:0100230032AA
:03002B0002182D8B
:030033000217D4DD
:0300A00002003625
:030036000200A322
:2000A300902065E493FEA3E493FFC000A81405140514EFF208EEF2D0001200C1800CC0062E
:1A00C300C00790100075F00EE422A81418E218E2881412053A12066F80FBA4
:2000DD00A8140514C513F208E8C5130514E582A813F275C10075820A1216FFA813E2F5C2BD
:2000FD0075820A1216FFE5C160FCC513F818E2C513881422A8140514C513F208E8C51305ED
:20011D0014E582A813F275C10175820A1216FFA813E2F5C275820A1216FFE5C160FCC513E5
:20013D00F818E2C51388142275C102900064E4F5F0120EEC75C100900064E4F5F0120EEC1A
:20015D007582111200DD9004B0E4F5F0120EEC7582B11200DD75820512011175823C120175
:20017D001175823C1201117582B21200DD75820512011175823C12011175823C120111751F
:20019D0082B31200DD75820512011175823C12011175823C12011175820512011175823CFD
:2001BD0012011175823C1201117582B41200DD7582031201117582C01200DD758228120117
:2001DD00117582081201117582041201117582C11200DD7582C01201117582C21200DD7510
:2001FD00820D1201117582001201117582C31200DD75828D12011175822A1201117582C4C3
:20021D001200DD75828D1201117582EE1201117582C51200DD75821A120111758236120002
:20023D00DD7582C01201117582E01200DD7582041201117582221201117582071201117530
:20025D00820A12011175822E12011175823012011175822512011175822A12011175822899
:20027D0012011175822612011175822E12011175823A120111758200120111758201120138
:20029D00117582031201117582131201117582E11200DD7582041201117582161201117558
:2002BD00820612011175820D12011175822D12011175822612011175822312011175822768
:2002DD0012011175822712011175822512011175822D12011175823B1201117582001201B3
:2002FD001175820112011175820412011175821312011175823A1200DD75820512011175B2
:20031D0082290200DDA8140514C513F208E8C5130514E582A813F275822A1200DD7582009B
:20033D00120111A813E2F582120111758200120111E51324FDF8E2F58212011175822B1267
:20035D0000DD758200120111A8131818E2F582120111758200120111E51324FCF8E2F5829C
:20037D0012011175822C1200DDC513F818E2C513881422A8140514C513F208E8C51305144A
:20039D000514AF83E582A813F208EFF2A813E2FE08E2FFFDC000A81405140514EFF208EEF2
:2003BD00F2D0008D82120111A81418E2FE18E288148E82120111C513F818E2C5138814224D
:2003DD00A814051474A1F208A81405147483F208A8140514E4F20875820012032215141537
:2003FD00141514900100E4F0900101E4F090001F120390900101E02401F0E0FFBFA200407D
:20041D00EC900100E02401F0E0FFBF840040D922A8140514C513F208E8C5130514E582A861
:20043D0013F253A0FCA813E2FF74035F42A0C513F818E2C51388142275F1FF75F2FF43F3F6
:20045D000375820302042DA8140514C513F208E8C5130514E582A813F2A813E2FF1392007A
:20047D009287EFA2E192009297C513F818E2C513881422A8140514C513F208E8C513051439
:20049D000514E582A813F2A813E2FFA81308740F5FF2A8131818E27010538080A81308E29A
:2004BD0090203A93FF42808017A8131818E2FFBF010E539080A81308E290203A93FF42905A
:2004DD00C513F818E2C513881422A8140514C513F208E8C5130514E582A813F2A813E2FF6F
:2004FD00C000EFA8140514F2D000A81405147401F2088F821204901514A81418E2FF151497
:20051D00EFC4540FFFA8140514E4F2088F821204901514C513F818E2C513881422902065A1
:20053D00E493FEA3E493FFC000A81405140514EFF208EEF2D000120558800CC006C00790B1
:20055D00C20075F001E422A81418E218E288149003E8E4F5F0120EEC902075E493FEA3E493
:20057D0093FFC000A81405140514EFF208EEF2D000A81405140514E4F208F20812059E808A
:20059D000BC006C00790205275F0802215141514A81418E218E2881490204AE493FEA3E409
:2005BD0093FFC000A81405140514EFF208EEF2D0008E828F83120039A81418E218E288148C
:2005DD0075FF0075F4FF75D50075D600902061E493FEA3E493FFC000A81405140514EFF25F
:2005FD0008EEF2D000A8140514051474AAF2087403F2081206158008C006C0077582002254
:20061D0015141514A81418E218E28814902063E493FEA3E493FFC000A81405140514EFF2EF
:20063D0008EEF2D000A8140514E4F208A814051414F2081206558008C006C00775820022B4
:20065D0015141514A81418E218E288141201450203DD9001E6E09001E5F0AFFF9001E6EFD4
:20067D00F090204EE493FDA3E493FEC000A81405140514EEF208EDF2D00012069C8007C0A3
:20069D0005C0068F8222A81418E2FD18E288149001E5E0FF9001E6E0FEEFB506028046904A
:2006BD002063E493FEA3E493FFC000A81405140514EFF208EEF2D000A81405147420F20862
:2006DD009001E6A8140514E0F2081206EC8008C006C0077582002215141514A81418E2FE9F
:2006FD0018E2FF88149001E6E00303543FFF8FF005F07401800225E0D5F0FB14F5B0E5D5B6
:20071D00700122900102E5D6F075D500E0FFBFF048902069E493FEA3E493FF900102E0FDB4
:20073D007C007B007A00C000A81405140514EFF208EEF2D000A81405147403F20812075F26
:20075D00800CC006C0078D828C838BF0EA221514A81418E218E288142290206DE493FEA3F2
:20077D00E493FF900102E0FD7C007B007A00C000A81405140514EFF208EEF2D000A81405FD
:20079D00147403F2081207A7800CC006C0078D828C838BF0EA221514A81418E218E28814C4
:0107BD002219
:20203A003F065B4F666D7D077F6F777C395E797155042D04E704640448656C6C6F20576F27
:07205A00726C64210A2000F2
:06207B000000000000005F
:2007BE00A8140514C513F208E8C5130514E582A813F2E51324FDF8E2FE08E2FF8ED4A81390
:2007DE00E2FD4305808DD38FD474104DF5D3C513F818E2C513881422A8140514C513F208F1
:2007FE00E8C5130514E582A813F2E51324FDF8E2F5D4A813E2FF43078074304FF5D3A81356
:19081E001818E2F5D474204FF5D374404FF5D3C513F818E2C51388142210
:04206100BE07F607B9
:20083700E582900104F0E0FFC423541FFE900105F074075FF5F005F07401800225E0D5F083
:20085700FB900106F0EE7015900103E06007900106E042F122900106E0F452F1229001057F
:20087700E0FFBF0115900103E06007900106E042F222900106E0F4FF52F222E58290010835
:20089700F0E0FFC423541FFE900109F074075FF5F005F07401800225E0D5F0FB90010AF095
:2008B700EE7015900107E0600790010AE042802290010AE0F4528022900109E0FFBF0115BF
:2008D700900107E0600790010AE042902290010AE0F4FF529022E58290010BF0E0FFC42388
:2008F700541FFE90010CF074075FF5F005F07401800225E0D5F0FB90010DF0EE70129001E4
:200917000DE0FF558060047F0180027F008F822290010CE0FFBF011290010DE0FF559060D7
:20093700047F0180027F008F82227582FF22E58290010EF0C29C90010EE0F5991099028044
:20095700FB22E58290010FF0E0FFBF0A00500990010FE02430F5822290010FE024F62441FF
:20097700F58222E582900110F0E0FF30E71175822D120945900110E0FFF4F0E02401F0905B
:200997000110E0FFC2D575F064EF30E704B2D5F4048430D502F404FF900111F0EF600C9068
:2009B7000111E0F582120959120945900110E0FF3395E0FE900111E075F064A4D39FF4B3B5
:2009D700FFEE95F0FE9001C9740AF0E4A3F08F828E83121CFFAE82AF83900111EEF0E060E0
:2009F7000C900111E0F582120959120945900110E0FF75F00AC2D530E704D2D5F40484E55E
:200A1700F030D502F404F582120959020945AF82AE83ADF0FC900112EFF0EEA3F0EDA3F017
:200A3700ECA3F0900112E0FCA3E0FDA3E0FEA3E0FF30E73C75822D120945900112E0FCA325
:200A5700E0FDA3E0FEA3E0FF900112ECF4F0EDF4A3F0EEF4A3F0EFF4A3F0900112E0240125
:200A7700F0A3E03400F0A3E03400F0A3E03400F0900116E4F0900116E02417F508E4340127
:200A9700F509900112E0FAA3E0FBA3E0FCA3E0FD9001D4740AF0E4A3F0A3F0A3F0C000E532
:200AB70014F82404F514EDF208ECF208EBF208EAF2D0008A828B838CF0ED121E21A882C0C6
:200AD70000A81418E2FA18E2FB18E2FC18E2FD8814D000850882850983E8F09001A3740A57
:200AF700F0E4A3F0A3F0A3F08A828B838CF0ED121991AC82AD83AEF0FF900112ECF0EDA309
:200B1700F0EEA3F0EFA3F0900112E0F5F0A3E042F0A3E042F0A3E045F06011900116E02425
:200B370001F0E0FFBF0A005003020A8C900116E0FF2417F582E43401F583E0FEC000EFA81C
:200B5700140514F2D0008E82120959AE82A81418E2FF1514C000EFA8140514F2D0008E82A7
:200B7700120945A81418E2FF1514EFFE14900116F0EE70B822AF82AE83ADF0FC900121EFB4
:200B9700F0EEA3F0EDA3F0ECA3F0900125E4F0900125E02426FFE43401FE900121E0FAA31F
:200BB700E0FBA3E0FCA3E0FD8A0153010F8F828E83E9F0EBC4CAC4540F6ACA540FCA6ACA26
:200BD700FBECC454F04BFBEDC4CCC4540F6CCC540FCC6CCCFD900121EAF0EBA3F0ECA3F000
:200BF700EDA3F0900121E0F5F0A3E042F0A3E042F0A3E045F0600E900125E02401F0E0FFCD
:200C1700BF0800408A900125E0FF2426F582E43401F583E0FEC000EFA8140514F2D0008E93
:200C370082120959AE82A81418E2FF1514C000EFA8140514F2D0008E82120945A81418E22D
:200C5700FF1514EFFE14900125F0EE70B822AF82AE83ADF0FC90012EEFF0EEA3F0EDA3F0DC
:200C7700ECA3F0900132E4F0900132E02433FFE43401FE90012EE0FAA3E0FBA3E0FCA3E01E
:200C9700FD8A015301078F828E83E9F0EBC423CAC423541F6ACA541FCA6ACAFBECC42354A2
:200CB700E04BFBEDC423CCC423541F6CCC541FCC6CCCFD90012EEAF0EBA3F0ECA3F0EDA32B
:200CD700F090012EE0F5F0A3E042F0A3E042F0A3E045F06011900132E02401F0E0FFBF0B95
:200CF700005003020C7F900132E0FF2433F582E43401F583E0FEC000EFA8140514F2D000D8
:200D17008E82120959AE82A81418E2FF1514C000EFA8140514F2D0008E82120945A81418A0
:200D3700E2FF1514EFFE14900132F0EE70B822AF82AE83ADF0FC90013EEFF0EEA3F0EDA3EC
:200D5700F0ECA3F0900142E4F0900142E02443FFE43401FE90013EE0FAA3E0FBA3E0FCA3ED
:200D7700E0FD8A015301018F828E83E9F0EDC313FDEC13FCEB13FBEA13FA90013EF0EBA3AC
:200D9700F0ECA3F0EDA3F090013EE0F5F0A3E042F0A3E042F0A3E045F0600E900142E02452
:200DB70001F0E0FFBF200040A0900142E0FF2443F582E43401F583E0FEC000EFA81405140A
:200DD700F2D0008E82120959AE82A81418E2FF1514C000EFA8140514F2D0008E82120945F2
:200DF700A81418E2FF1514EFFE14900142F0EE70B822A8140514C513F208E8C5130514057D
:200E17001405140514AF82AE83ADF0FCA813EFF208EEF208EDF208ECF2A8131818E2FFBF9E
:200E37000117A813E2FC08E2FD08E2FE08E28C828D838EF0120D468055A8131818E2FFBFD0
:200E57000317A813E2FC08E2FD08E2FE08E28C828D838EF0120B8C8035A8131818E2FFBF8A
:200E77000217A813E2FC08E2FD08E2FE08E28C828D838EF0120C658015A813E2FC08E2FDBC
:200E970008E2FE08E28C828D838EF0120A25C513F818E2C513881422D29C900163E599F05C
:200EB700C298900163E0F58222C298000000D29C0000003098FD900164E599F0C298900179
:200ED70064E0F58222209C02D29C3098047582012275820022AF82AE83ADF0FC900165EF13
:200EF700F0EEA3F0EDA3F0ECA3F0900169E4F0900165E0FCA3E0FDA3E0FEA3E0FF9001B9FE
:200F1700ECF0EDA3F0EEA3F0EFA3F0900177E4F5F0121B7EAC82AD83AEF0FF9001EBE0F890
:200F3700A3E0F9A3E0FAA3E0FB9001ABE8F0E9A3F0EAA3F0EBA3F08C828D838EF0EF121AE1
:200F570051AC82AD83AEF0FF90016AECF0EDA3F0EEA3F0EFA3F090016AE0F5F0A3E042F05F
:200F7700A3E042F0A3E045F06037C28F308FFD900169E02401F0E0FFBF7FDB90016AE02463
:200F9700FFFCA3E034FFFDA3E034FFFEA3E034FFFF90016AECF0EDA3F0EEA3F0EFA3F08049
:200FB700B522AF82AE83ADF0FC90016EEFF0EEA3F0EDA3F0ECA3F0900172E4F090016EE034
:200FD700FCA3E0FDA3E0FEA3E0FF9001B9ECF0EDA3F0EEA3F0EFA3F0900003E4F5F0121B49
:200FF7007EAC82AD83AEF0FF9001EBE0F8A3E0F9A3E0FAA3E0C40354F8CAC403CA6ACA549B
:20101700F8CA6AFBE9C40354074AFAE9C40354F8C8C403C868C854F8C868F99001ABE8F037
:20103700E9A3F0EAA3F0EBA3F08C828D838EF0EF121A51AC82AD83AEF0FF900173ECF0ED52
:20105700A3F0EEA3F0EFA3F0900173E0F5F0A3E042F0A3E042F0A3E045F06037C28F308F51
:20107700FD900172E02401F0E0FFBF7FDB900173E024FFFCA3E034FFFDA3E034FFFEA3E07F
:2010970034FFFF900173ECF0EDA3F0EEA3F0EFA3F080B522AF82AE83ADF0FC900177EFF06B
:2010B700EEA3F0EDA3F0ECA3F0C28EC2ABC2AF00000000900177E0FCA3E0FDA3E0FEA3E003
:2010D700FF9001ABECF0EDA3F0EEA3F0EFA3F090D80075F0B87405121A51AC82AD83AEF0E8
:2010F700FF9001EBECF0EDA3F0EEA3F0EFA3F0E4C39CFCE49DFD74019EFEE49FFF8C8B8D0B
:201117008D758911D28E7598C00000D2ABD2AF22759800000022A8140514C513F208E8C54C
:20113700130514051405140514AF82AE83ADF0FCA813EFF208EEF208EDF208ECF2A813E238
:20115700FC08E2FD08E2FE08E2FFA8131818A9140514E2F3098C828D838EF0EF120E09155C
:201177001475820A120945C513F818E2C513881422AF82AE83ADF0FC90017BEFF0EEA3F01C
:20119700EDA3F0ECA3F090017BE0FCA3E0FDA3E0FEA3E0FF9001B9ECF0EDA3F0EEA3F0EFB8
:2011B700A3F0900177E4F5F0121B7EAC82AD83AEF0FF9001AB7441F07403A3F0E4A3F0A309
:2011D700F08C828D838EF0EF121A51AC82AD83AEF0FF9001EFECF0EDA3F0EEA3F0EFA3F026
:2011F70022AFF0AE83E582900180F0EEA3F0EFA3F0900183E4F090017FE06067120EAFAF5E
:2012170082900184EFF0BF0D24900180E0FDA3E0FEA3E0FF8D828E838FF0E4121B639001BC
:2012370080042DF0E43EA3F0EFA3F08036900180E0FDA3E0FEA3E0FF900184E0FC8D828E8A
:20125700838FF0121B6390018074012DF0E43EA3F0EFA3F090017FE014F0900183E02401FE
:20127700F08093900183E0F58222A8140514C513F208E8C513051405140514AFF0AE83E560
:2012970082A813F208EEF208EFF2A813E2FD08E2FE08E2FFE51324FDF8E2FB08E290017FE4
:2012B700EBF08D828E838FF01211F8C513F818E2C513881422AFF0AE83E582900187F0EEF5
:2012D700A3F0EFA3F090018AE4F09001EFE0FCA3E0FDA3E0FEA3E0FF90018BECF0EDA3F09C
:2012F700EEA3F0EFA3F0EC4D4E4F706E900185E0F5F0A3E045F0605E900187E0FDA3E0FE59
:20131700A3E0FFC000E514F82403F514EFF208EEF208EDF2D000120EC0AC82A81418E2FD12
:2013370018E2FE18E2FF88148D828E838FF0EC121B6390018774012DF0E43EA3F0EFA3F00D
:20135700900185E024FFFEA3E034FFFF900185EEF0EFA3F0809675820022D29C90018BE09B
:20137700F5F0A3E042F0A3E042F0A3E045F0700302149DC28F208F6B3098FA9001EFE0FCA0
:20139700A3E0FDA3E0FEA3E0FF90018BECF0EDA3F0EEA3F0EFA3F0900187E0FDA3E0FEA31F
:2013B700E0FF8D828E838FF0E599121B6390018774012DF0E43EA3F0EFA3F0C29890018539
:2013D700E024FFFEA3E034FFFF900185EEF0EFA3F0900185E0F5F0A3E045F07098C29C755C
:2013F7008200223098689001EFE0FCA3E0FDA3E0FEA3E0FF90018BECF0EDA3F0EEA3F0EF3B
:20141700A3F0900187E0FDA3E0FEA3E0FF8D828E838FF0E599121B6390018774012DF0E4EF
:201437003EA3F0EFA3F0C298900185E024FFFEA3E034FFFF900185EEF0EFA3F0900185E0B0
:20145700F5F0A3E045F07006C29C7582002290018AE02401F0E0FFBF7F0280030213739021
:20147700018BE024FFFCA3E034FFFDA3E034FFFEA3E034FFFF90018BECF0EDA3F0EEA3F0B5
:20149700EFA3F0021373C29C7582FF22A8140514C513F208E8C513051405140514AFF0AEB6
:2014B70083E582A813F208EEF208EFF2A813E2FD08E2FE08E2FFE51324FDF8E2FB08E2FC6E
:2014D700900185EBF0ECA3F08D828E838FF01212CCC513F818E2C513881422AFF0AE83E5E1
:2014F70082900191F0EEA3F0EFA3F090018FE0F5F0A3E045F0604B90018FE0F5F0A3E04549
:20151700F0700122900191E0FDA3E0FEA3E0FF8D828E838FF012201AFC90019174012DF094
:20153700E43EA3F0EFA3F08C8212094590018FE024FFFEA3E034FFFF90018FEEF0EFA3F099
:2015570080B5900191E0FDA3E0FEA3E0FF8D828E838FF012201A602A900191E0FDA3E0FE48
:20157700A3E0FF8D828E838FF012201AFC90019174012DF0E43EA3F0EFA3F08C8212094592
:2015970080C022A8140514C513F208E8C513051405140514AFF0AE83E582A813F208EEF254
:2015B70008EFF2A813E2FD08E2FE08E2FFE51324FDF8E2FB08E2FC90018FEBF0ECA3F08DE5
:2015D700828E838FF01214F2C513F818E2C51388142275C00122C0E0C082C083C007C0D096
:2015F70075D00075C0019001F3E02401F0E0FFBF7F169001F4E02401F0A3E03400F0A3E009
:201617003400F0A3E03400F0D0D0D007D083D082D0E032C2AF9001F4E0FCA3E0FDA3E0FE17
:20163700A3E0FFD2AF9001EBE0F8A3E0F9A3E0FAA3E0FB9001B9E8F0E9A3F0EAA3F0EBA31C
:20165700F08C828D838EF0EF121B7EAC82AD83AEF0FF9001AB7477F07401A3F0E4A3F0A319
:20167700F08C828D838EF0EF021A51C2AF9001F4E0FCA3E0FDA3E0FEA3E0FFD2AF9001EB19
:20169700E0F8A3E0F9A3E0FAA3E0FB9001B9E8F0E9A3F0EAA3F0EBA3F08C828D838EF0EFC0
:2016B700121B7EAC82AD83AEF0C40354F8CEC403CE6ECE54F8CE6EFFEDC40354074EFEEDEB
:2016D700C40354F8CCC403CC6CCC54F8CC6CFD9001AB7403F0E4A3F0A3F0A3F08C828D836A
:2016F7008EF0EF021A510022E582900194F0900195E4F0900194E0FF900195E0FEC39F50A7
:201717000A00900195E02401F080ED22D2AF22C2AF22E5829001A2F0E0FFBF051A9001A050
:20173700E0FEA3E0FF900198EEF0EFA3F0EE4F6003D2AD22C2AD229001A2E0FFBF061A9056
:2017570001A0E0FEA3E0FF900196EEF0EFA3F0EE4F6003D2AE22C2AE229001A2E0FFBF0243
:201777001A9001A0E0FEA3E0FF90019AEEF0EFA3F0EE4F6003D2AA22C2AA229001A2E070CD
:201797001A9001A0E0FEA3E0FF90019CEEF0EFA3F0EE4F6003D2A822C2A8229001A2E0FF20
:2017B700BF01199001A0E0FEA3E0FF90019EEEF0EFA3F0EE4F6003D2A922C2A9220000004F
:2017D700C0D0C0E0C0F0C082C083C000C001C002C003C004C005C006C00700900196E0F575
:2017F700F0A3E045F0600E900196E0F8A3E0F5838882120039000000D007D006D005D00417
:20181700D003D002D001D000D083D082D0F0D0E0D0D000000032000000C0D0C0E0C0F0C0E4
:2018370082C083C000C001C002C003C004C005C006C00700900198E0F5F0A3E045F0600E9C
:20185700900198E0F8A3E0F5838882120039000000D007D006D005D004D003D002D001D084
:2018770000D083D082D0F0D0E0D0D000000032000000C0D0C0E0C0F0C082C083C000C00184
:20189700C002C003C004C005C006C0070090019AE0F5F0A3E045F0600E90019AE0F8A3E0FA
:2018B700F5838882120039000000D007D006D005D004D003D002D001D000D083D082D0F043
:2018D700D0E0D0D000000032000000C0D0C0E0C0F0C082C083C000C001C002C003C004C080
:2018F70005C006C0070090019CE0F5F0A3E045F0600E90019CE0F8A3E0F5838882120039D2
:20191700000000D007D006D005D004D003D002D001D000D083D082D0F0D0E0D0D00000005F
:2019370032000000C0D0C0E0C0F0C082C083C000C001C002C003C004C005C006C00700904D
:20195700019EE0F5F0A3E045F0600E90019EE0F8A3E0F5838882120039000000D007D006E2
:1A197700D005D004D003D002D001D000D083D082D0F0D0E0D0D00000003280
:16206500AB10DC0E090E8C0B2D114509AF0EA3149A158811271192
:0D208100410300000000000000000000000E
:20199100AF82AE83ADF0FC9001A7EFF0EEA3F0EDA3F0ECA3F09001A7E0FCA3E0FDA3E0FE8F
:2019B100A3E0FF30E70FC3E49CF8E49DF9E49EFAE49FFB80088C008D018E028F039001A3C7
:2019D100E0FCA3E0FDA3E0FEA3E0FF33E433F50A6013C3E49CF50BE49DF50CE49EF50DE4AE
:2019F1009FF50E80088C0B8D0C8E0D8F0E9001ABE50BF0E50CA3F0E50DA3F0E50EA3F08811
:201A11008289838AF0EB121A51AC82AD83AEF0FF9001A7E0F8A3E0F9A3E0FAA3E0FB33E4AC
:201A310033650A6013C3E49CF8E49DF9E49EFAE49F888289838AF0228C828D838EF0EF226D
:201A5100AF82AE83ADF0FC9001AFEFF0EEA3F0EDA3F0ECA3F09001B3E4F0A3F0A3F0A3F00A
:201A71009001ABE0FCA3E0FDA3E0FEA3E0FF7516209001AFE0F8A3E0F9A3E0FAA3E0FB90F0
:201A910001B7235401F0E828F8E933F9EA33FAEB33FB9001AFE8F0E9A3F0EAA3F0EBA3F039
:201AB1009001B3E0F8A3E0F9A3E0FAA3E0FBE828F8E933F9EA33FAEB33FB9001B3E8F0E930
:201AD100A3F0EAA3F0EBA3F09001B7E0601E9001B3E0F8A3E0F9A3E0FAA3E0FB9001B37476
:201AF1000148F0E9A3F0EAA3F0EBA3F09001B3E0F8A3E0F9A3E0FAA3E0FBC3E89CE99DEADB
:201B11009EEB9F40319001B3E8C39CF0E99DA3F0EA9EA3F0EB9FA3F09001AFE0F8A3E0F9BB
:201B3100A3E0FAA3E0FB9001AF740148F0E9A3F0EAA3F0EBA3F0D516028003021A82900196
:121B5100AFE0FCA3E0FDA3E0FEA3E08C828D838EF022B5
:06007000E4787FF6D8FDE4
:20004E007913E94400601B7A0190207B78E575E701E493F2A308B8000205E7D9F4DAF27536
:02006E00E7FFAA
:1B1B630020F71130F6138883A88220F509F6A8837583002280FEF280F5F02281
:06003E0075E700751401D6
:06009A0075E7007514017A
:201B7E00AF82AE83ADF0FC9001BDEFF0EEA3F0EDA3F0ECA3F09001BDE0FF9001BBE08FF0C7
:201B9E00A4FFADF09001C3EFF0EDA3F09001BDE0FF9001B9E08FF0A4FFADF09001C1EFF0ED
:201BBE00EDA3F09001BDE0FF9001BCE08FF0A49001C8F09001BDE0FF9001BAE08FF0A4FF47
:201BDE00ADF09001C6EFF0EDA3F09001C5E4F09001C1E0FCA3E0FDA3E0FEA3E0FF9001C563
:201BFE00E0F8A3E0F9A3E0FAA3E0FBE82CFCE93DFDEA3EFEEB3FFF9001C1ECF0EDA3F0EE5A
:201C1E00A3F0EFA3F09001C4E0FF9001C0E0FE9001B9E08EF0A42FFF9001C4F09001BFE03F
:201C3E00FE9001BAE08EF0A42F9001C4F09001C3E0FEA3E0FF9001BFE0FD9001B9E08DF03F
:201C5E00A4ABF02EFEEB3FFF9001C3EEF0EFA3F09001BEE0FD9001BAE08DF0A4ABF02EFEDF
:201C7E00EB3FFF9001C3EEF0EFA3F09001BEE0FF9001BBE08FF0A49001C8F09001BEE0FF75
:201C9E009001B9E08FF0A4FFADF09001C6EFF0EDA3F09001C5E4F09001C1E0FCA3E0FDA30C
:201CBE00E0FEA3E0FF9001C5E0F8A3E0F9A3E0FAA3E0FBE82CFCE93DFDEA3EFEEB3FFF90EF
:201CDE0001C1ECF0EDA3F0EEA3F0EFA3F09001C1E0FCA3E0FDA3E0FEA3E08C828D838EF077
:011CFE0022C3
:201CFF00AF83E5829001CBF0EFA3F09001CBE0FEA3E0FF30E709C3E49EFCE49FFD80048EAF
:201D1F00048F059001C9E0FEA3E0FF33E433FB6009C3E49EF9E49FFA80048E018F029001B4
:201D3F00CDE9F0EAA3F0C000EBA8140514F2D0008C828D83121D80AE82AF83A81418E2FB3F
:201D5F0015149001CBE0FCA3E0FD33E4336B600CC3E49EFCE49FFD8C828D83228E828F833F
:011D7F002241
:200076007800E84400600A790175E700E4F309D8FC78E5E84400600C7901900100E4F0A35B
:04009600D8FCD9FABF
:201D8000AF83E5829001CFF0EFA3F09001D1E4F0A3F09001CDE0FEA3E0FF7D109001CFE084
:201DA000FBA3E0FC9001D3235401F0ECCB25E0CB33FC9001CFEBF0ECA3F09001D1E0FBA38D
:201DC000E0CB25E0CB33FC9001D1EBF0ECA3F09001D3E060129001D1E0FBA3E0FC9001D1C9
:201DE00074014BF0ECA3F09001D1E0FBA3E0FCC3EB9EEC9F401D9001D1EBC39EF0EC9FA3F8
:201E0000F09001CFE0FBA3E0FC9001CF74014BF0ECA3F0DD879001CFE0FEA3E08E82F583DC
:011E2000229F
:201E2100AF82AE83ADF0FC9001D8EFF0EEA3F0EDA3F0ECA3F09001D8E0FCA3E0FDA3E0FE98
:201E4100A3E0FF30E70FC3E49CF8E49DF9E49EFAE49FFB80088C008D018E028F039001D401
:201E6100E0FCA3E0FDA3E0FEA3E0FF30E713C3E49CF50FE49DF510E49EF511E49FF5128079
:201E8100088C0F8D108E118F129001DCE50FF0E510A3F0E511A3F0E512A3F0888289838A35
:201EA100F0EB121ED9AC82AD83AEF0FF9001D8E0F8A3E0F9A3E0FAA3E0FB30E713C3E49C1D
:181EC100F8E49DF9E49EFAE49F888289838AF0228C828D838EF0EF2239
:201ED900AF82AE83ADF0FC9001E0EFF0EEA3F0EDA3F0ECA3F09001E4E4F09001E0E0FCA3E5
:201EF900E0FDA3E0FEA3E0FF7B009001DCE0F516A3E0F517A3E0F518A3E0F519235401FAF4
:201F19007074C003E5162516F8E51733F9E51833FAE51933FB9001DCE8F0E9A3F0EAA3F017
:201F3900EBA3F09001DCE0F516A3E0F517A3E0F518A3E0F519C3EC9516ED9517EE9518EF85
:201F59009519D0035027E519C313F519E51813F518E51713F517E51613F5169001DCF0E5FB
:201F790017A3F0E518A3F0E519A3F080090B9001E4EBF0021F039001E4E0FF9001E0E0FBD5
:201F9900A3E0FCA3E0FDA3E0FE9001DCE0F516A3E0F517A3E0F518A3E0F519C3EB9516EC5B
:201FB9009517ED9518EE951940179001E0EBC39516F0EC9517A3F0ED9518A3F0EE9519A37E
:201FD900F09001DCE0FBA3E0FCA3E0FDA3E0C313FEED13FDEC13FCEB13FB9001DCF0ECA37D
:201FF900F0EDA3F0EEA3F08F061FEE708E9001E0E0FCA3E0FDA3E0FEA3E08C828D838EF0CA
:0120190022A4
:05003900E47375812055
:0A004400122036E582600302003648
:1C201A0020F71430F6148883A88220F507E6A88375830022E280F7E49322E022D5
:04203600758200228D
:020000020800F4
:20000000ffffffffffffffffffffffffffffffffffffffffffffffffffffffffffffffff00
:20002000ffffffffffffffffffffffffffffffffffffffffffffffffffffffffffffffffe0
:20004000ffffffffffffffffffffffffffffffffffffffffffffffffffffffffffffffffc0
:20006000ffffffffffffffffffffffffffffffffffffffffffffffffffffffffffffffffa0
:20112000fffffffffffffffffffffffffffffffffffffffffffffffffffffdf1e7f8c59a9d
:20114000f4a561f1903df1903ef4a562f8c59afdefe3ffffffffffffffffffffffffffff05
:20116000ffffffffffffffffffffffffffffffffffffffffffffffffffffffffffffffff8f
:20118000ffffffffffffffffffffffffffffffffffffffffffffffffffffffffffffffff6f
:2011a000ffffffffffffffffffffffffffffffffffffffffffffffffffffffffffffffff4f
:2011c000ffffffffffffffffffffffffffffffffffffffffffffffffffffffffffffffff2f
:2011e000ffffffffffffffffffffffffffffffffffffffffffffffffffffffffffffffff0f
:20120000ffffffffffffffffffffffffffffffffffffffffffffffffffffffffffffffffee
:20122000ffffffffffffffffffffffffffffffffffffffffffffffffffffffffffffffffce
:20124000ffffffffffffffffffffffffffffffffffffffffffffffffffffffffffffffffae
:20126000ffffffffffffffffffffffffffffffffffffffffffffffffffffffffffffffff8e
:20128000ffffffffffffffffffffffffffffffffffffffffffffffffffffffffffffffff6e
:2012a000ffffffffffffffffffffffffffffffffffffffffffffffffffffffffffffffff4e
:2012c000ffffffffffffffffffffffffffffffffffffffffffffffffffffffffffffffff2e
:2012e000ffffffffffffffffffffffffffffffffffffffffffffffffffffffffffffffff0e
:20130000fffffffffffffffffffffffffffffffffffffffffffffff9cca5f18a32ef7d1c45
:20132000ef7d1cef7d1cef7d1cef7d1cef7d1cf08830f9cda7fffffffffffffffffffffffb
:20134000ffffffffffffffffffffffffffffffffffffffffffffffffffffffffffffffffad
:20136000ffffffffffffffffffffffffffffffffffffffffffffffffffffffffffffffff8d
:20138000ffffffffffffffffffffffffffffffffffffffffffffffffffffffffffffffff6d
:2013a000ffffffffffffffffffffffffffffffffffffffffffffffffffffffffffffffff4d
:2013c000ffffffffffffffffffffffffffffffffffffffffffffffffffffffffffffffff2d
:2013e000ffffffffffffffffffffffffffffffffffffffffffffffffffffffffffffffff0d
:20140000ffffffffffffffffffffffffffffffffffffffffffffffffffffffffffffffffec
:20142000ffffffffffffffffffffffffffffffffffffffffffffffffffffffffffffffffcc
:20144000ffffffffffffffffffffffffffffffffffffffffffffffffffffffffffffffffac
:20146000ffffffffffffffffffffffffffffffffffffffffffffffffffffffffffffffff8c
:20148000ffffffffffffffffffffffffffffffffffffffffffffffffffffffffffffffff6c
:2014a000ffffffffffffffffffffffffffffffffffffffffffffffffffffffffffffffff4c
:2014c000ffffffffffffffffffffffffffffffffffffffffffffffffffffffffffffffff2c
:2014e000fffffffffffffffffffffffffffffffffffffffff6b680ef7d1cef7d1cef7d1c3c
:20150000ef7d1cef7d1cef7d1cef7d1cef7d1bef7d1cef7d1cf7bf8fffffffffffffffffd7
:20152000ffffffffffffffffffffffffffffffffffffffffffffffffffffffffffffffffcb
:20154000ffffffffffffffffffffffffffffffffffffffffffffffffffffffffffffffffab
:20156000ffffffffffffffffffffffffffffffffffffffffffffffffffffffffffffffff8b
:20158000ffffffffffffffffffffffffffffffffffffffffffffffffffffffffffffffff6b
:2015a000ffffffffffffffffffffffffffffffffffffffffffffffffffffffffffffffff4b
:2015c000ffffffffffffffffffffffffffffffffffffffffffffffffffffffffffffffff2b
:2015e000ffffffffffffffffffffffffffffffffffffffffffffffffffffffffffffffff0b
:20160000ffffffffffffffffffffffffffffffffffffffffffffffffffffffffffffffffea
:20162000ffffffffffffffffffffffffffffffffffffffffffffffffffffffffffffffffca
:20164000ffffffffffffffffffffffffffffffffffffffffffffffffffffffffffffffffaa
:20166000ffffffffffffffffffffffffffffffffffffffffffffffffffffffffffffffff8a
:20168000ffffffffffffffffffffffffffffffffffffffffffffffffffffffffffffffff6a
:2016a000ffffffffffffffffffffffffffffffffffffffffffffffffffffffffffffffff4a
:2016c000fffffffffffffffffffffffffffffffffff8c9a1ef7d1cef7d1cef7d1cef7e1e96
:2016e000f08326f0862cf0872cf08327ef7f1fef7d1cef7d1cef7d1cfad4b4ffffffffffd0
:20170000ffffffffffffffffffffffffffffffffffffffffffffffffffffffffffffffffe9
:20172000ffffffffffffffffffffffffffffffffffffffffffffffffffffffffffffffffc9
:20174000ffffffffffffffffffffffffffffffffffffffffffffffffffffffffffffffffa9
:20176000ffffffffffffffffffffffffffffffffffffffffffffffffffffffffffffffff89
:20178000ffffffffffffffffffffffffffffffffffffffffffffffffffffffffffffffff69
:2017a000ffffffffffffffffffffffffffffffffffffffffffffffffffffffffffffffff49
:2017c000ffffffffffffffffffffffffffffffffffffffffffffffffffffffffffffffff29
:2017e000ffffffffffffffffffffffffffffffffffffffffffffffffffffffffffffffff09
:20180000ffffffffffffffffffffffffffffffffffffffffffffffffffffffffffffffffe8
:20182000ffffffffffffffffffffffffffffffffffffffffffffffffffffffffffffffffc8
:20184000ffffffffffffffffffffffffffffffffffffffffffffffffffffffffffffffffa8
:20186000ffffffffffffffffffffffffffffffffffffffffffffffffffffffffffffffff88
:20188000ffffffffffffffffffffffffffffffffffffffffffffffffffffffffffffffff68
:2018a000fffffffffffffffffffffffffffffef9f5f18c36ef7d1cef7d1cef7f20f1882f51
:2018c000f2913ef2913df2913ef2923ff18a32ef8022ef7d1cef7d1cf18e3afef7f1ffff18
:2018e000ffffffffffffffffffffffffffffffffffffffffffffffffffffffffffffffff08
:20190000ffffffffffffffffffffffffffffffffffffffffffffffffffffffffffffffffe7
:20192000ffffffffffffffffffffffffffffffffffffffffffffffffffffffffffffffffc7
:20194000fffffffffffffffffffffffffffffffffffffffffffff9d4abf8cd9df8cd9df869
:20196000cd9dfbe2c7ffffffffffffffffffffffffffffffffffffffffffffffffffffff74
:20198000ffffffffffffffffffffffffffffffffffffffffffffffffffffffffffffffff67
:2019a000fffffffff4b064f4b064f4b064fce9d5ffffffffffffffffffffffffffffffff69
:2019c000fffffffffffffffffffffffffffffffffffffffffffffffce9d5fdf1e3ffffff96
:2019e000ffffffffffffffffffffffffffffffffffffffffffffffffffffffffffffffff07
:201a0000fffffffffffffffffffffce9d5fce9d5ffffffffffffffffffffffffffffffff6c
:201a2000ffffffffffffffffffffffffffffffffffffffffffffffffffffffffffffffffc6
:201a4000ffffffffffffffffffffffffffffffffffffffffffffffffffffffffffffffffa6
:201a6000ffffffffffffffffffffffffffffffffffffffffffffffffffffffffffffffff86
:201a8000fffffffffffffffffffffffffffffad4b4ef7d1cef7d1cef7e1df1872df29442cb
:201aa000f39747f7b67cf7b57cf39849f39544f18a32ef7e1eef7d1bef7d1cfad4b3ffff9e
:201ac000ffffffffffffffffffffffffffffffffffffffffffffffffffffffffffffffff26
:201ae000ffffffffffffffffffffffffffffffffffffffffffffffffffffffffffffffff06
:201b0000ffffffffffffffffffffffffffffffffffffffffffffffffffffffffffffffffe5
:201b2000fffffffffffffffffffffffffffffffffffffffffffff4b064f0932cf0932cf065
:201b4000932cf8cd9dffffffffffffffffffffffffffffffffffffffffffffffffffffff7f
:201b6000fffffffffffffbe2c7f0932cf0932cf0932cf0932cf0932cf0932cf4b064ffffa7
:201b8000fffffffff0932cf0932cf0932cfbe2c7fffffffef8f1fbe2c7fbe2c7fbe2c7fbcd
:201ba000e2c7fbe2c7fbe2c7fbe2c7fffffffffffffffffffce9d5f19a3af19a3afadbb9c7
:201bc000ffffffffffffffffffffffffffffffffffffffffffffffffffffffffffffffff25
:201be000fffffffffffffff9d4abf0932cf19a3afce9d5ffffffffffffffffffffffffff53
:201c0000ffffffffffffffffffffffffffffffffffffffffffffffffffffffffffffffffe4
:201c2000ffffffffffffffffffffffffffffffffffffffffffffffffffffffffffffffffc4
:201c4000ffffffffffffffffffffffffffffffffffffffffffffffffffffffffffffffffa4
:201c6000fffffffffffffffffffffffffffff5b075ef7d1cef7d1bef8122f28f3af398472a
:201c8000fad5b3fffffffffffffad4b1f39846f2923ff08325ef7e1cef7e1df6ba86ffffd6
:201ca000ffffffffffffffffffffffffffffffffffffffffffffffffffffffffffffffff44
:201cc000ffffffffffffffffffffffffffffffffffffffffffffffffffffffffffffffff24
:201ce000ffffffffffffffffffffffffffffffffffffffffffffffffffffffffffffffff04
:201d0000fffffffffffffffffffffffffffffffffffffffffffff4b064f0932cf0932cf083
:201d2000932cf8cd9dffffffffffffffffffffffffffffffffffffffffffffffffffffff9d
:201d4000fffffffffffffbe2c7f0932cf0932cf0932cf0932cf0932cf0932cf4b064ffffc5
:201d6000fffffffff0932cf0932cf0932cfbe2c7fffffffbe2c7f0932cf0932cf0932cf018
:201d8000932cf0932cf0932cf0932cfffffffffffffef8f1f2a148f0932cf0932cf0932cae
:201da000f7c58efffffffffffffffffffffffffffffffffffffffffffffffffffffffffff6
:201dc000fffffffff8cd9df0932cf0932cf0932cf19a3afce9d5ffffffffffffffffffff23
:201de000ffffffffffffffffffffffffffffffffffffffffffffffffffffffffffffffff03
:201e0000ffffffffffffffffffffffffffffffffffffffffffffffffffffffffffffffffe2
:201e2000ffffffffffffffffffffffffffffffffffffffffffffffffffffffffffffffffc2
:201e4000fffffffffffffffffffffffffffff4a664ef7e1def7e1cf08326f2913df4a25a36
:201e6000fffdfbfffffffffffffefaf7f4a055f29442f0862aef7f1def7f1df5b176ffff01
:201e8000ffffffffffffffffffffffffffffffffffffffffffffffffffffffffffffffff62
:201ea000ffffffffffffffffffffffffffffffffffffffffffffffffffffffffffffffff42
:201ec000ffffffffffffffffffffffffffffffffffffffffffffffffffffffffffffffff22
:201ee000fffffffffffffffffffffffffffffffffffffffffffff4b064f0932cf0932cf0a2
:201f0000932cf8cd9dffffffffffffffffffffffffffffffffffffffffffffffffffffffbb
:201f2000fffffffffffffbe2c7f0932cf0932cf0932cf0932cf0932cf0932cf4b064f9d414
:201f4000abf8cd9df0932cf0932cf0932cf6be80f8cd9dfbe2c7f0932cf0932cf0932cf030
:201f6000932cf0932cf0932cf0932cfffffffffffff4b064f0932cf0932cf0932cf0932cd7
:201f8000f0932cf3a956fdf1e3ffffffffffffffffffffffffffffffffffffffffffffffe6
:201fa000fff6be80f0932cf0932cf0932cf0932cf0932cf19a3afef8f1ffffffffffffffde
:201fc000ffffffffffffffffffffffffffffffffffffffffffffffffffffffffffffffff21
:201fe000ffffffffffffffffffffffffffffffffffffffffffffffffffffffffffffffff01
:20200000ffffffffffffffffffffffffffffffffffffffffffffffffffffffffffffffffe0
:20202000fffffffffffffffffffffffffffff4a865ef7f1def7f1cf08425f2923df39d505e
:20204000fdf2e7fffffffffffffdefe3f39b4df29542f08629ef801def801df6b67dffff5f
:20206000ffffffffffffffffffffffffffffffffffffffffffffffffffffffffffffffff80
:20208000ffffffffffffffffffffffffffffffffffffffffffffffffffffffffffffffff60
:2020a000ffffffffffffffffffffffffffffffffffffffffffffffffffffffffffffffff40
:2020c000fffffffffffffffffffffffffffffffffffffffffffff4b064f0932cf0932cf0c0
:2020e000932cf8cd9dffffffffffffffffffffffffffffffffffffffffffffffffffffffda
:20210000fffffffffffffbe2c7f0932cf0932cf6be80fbe2c7f0932cf0932cf4b064f4b0e1
:2021200064f0932cf0932cf0932cf0932cf0932cf0932cfbe2c7f0932cf0932cf0932cf080
:20214000932cf0932cf0932cf0932cfffffffffffffdf1e3f3a956f0932cf0932cf0932ce9
:20216000f0932cf0932cf19a3afbe2c7fffffffffffffffffffffffffffffffef8f1f3a924
:2021800056f0932cf0932cf0932cf0932cf0932cf19a3afbe2c7ffffffffffffffffffff1f
:2021a000ffffffffffffffffffffffffffffffffffffffffffffffffffffffffffffffff3f
:2021c000ffffffffffffffffffffffffffffffffffffffffffffffffffffffffffffffff1f
:2021e000ffffffffffffffffffffffffffffffffffffffffffffffffffffffffffffffffff
:20220000fffffffffffffffffffffffffffff7bf8eef801def801df08221f18e37f3974558
:20222000f5ab6afceadafef2e6f5ac6cf39746f1923cef8324ef801def801ef8c79cffff5a
:20224000ffffffffffffffffffffffffffffffffffffffffffffffffffffffffffffffff9e
:20226000ffffffffffffffffffffffffffffffffffffffffffffffffffffffffffffffff7e
:20228000ffffffffffffffffffffffffffffffffffffffffffffffffffffffffffffffff5e
:2022a000fffadbb9f8cd9dfbe2c7fffffffffffffffffffffffff4b064f0932cf0932cf041
:2022c000932cf8cd9dfffffffffffffdf1e3f9d4abf5b772fce9d5ffffffffffffffffffcb
:2022e000fffffffffffffbe2c7f0932cf0932cf8cd9dfffffff0932cf0932cf4b064f4b079
:2023000064f0932cf0932cf0932cf0932cf0932cf0932cfbe2c7f0932cf0932cf4b064ff36
:20232000fffff0932cf0932cf0932cfffffffffffffffffffef8f1f5b772f0932cf0932c38
:20234000f0932cf0932cf0932cf0932cf8cd9dfffffffffffffffffffce9d5f2a148f09350
:202360002cf0932cf0932cf0932cf0932cf2a148fce9d5ffffffffffffffffffffffffffed
:20238000ffffffffffffffffffffffffffffffffffffffffffffffffffffffffffffffff5d
:2023a000fffffffffffffffffffffffffffffffffffffffffffffffffdf3e9fce6d2fce5c7
:2023c000d1fdf1e5ffffffffffffffffffffffffffffffffffffffffffffffffffffffff75
:2023e000fffffffffffffffffffffffffffffdf0e4f08527ef801eef801ef08629f2933f01
:20240000f2933df7b77efbd8baf2933df29542f0892cef811fef801eef801efce5d1ffffb8
:20242000ffffffffffffffffffffffffffffffffffffffffffffffffffffffffffffffffbc
:20244000ffffffffffffffffffffffffffffffffffffffffffffffffffffffffffffffff9c
:20246000ffffffffffffffffffffffffffffffffffffffffffffffffffffffffffffffff7c
:20248000fff5b772f0932cf0932cf0932cf7c58efffffffffffff4b064f0932cf0932cf078
:2024a000932cf8cd9dfffffff5b772f0932cf0932cf0932cf6be80ffffffffffffffffffa8
:2024c000fffffffffffffbe2c7f0932cf0932cf8cd9dfffffff0932cf0932cf4b064f7c57f
:2024e0008ef4b064f0932cf0932cf0932cf3a956f4b064fbe2c7f0932cf0932cf4b064ff36
:20250000fffff0932cf0932cf0932cfffffffffffffffffffffffffffffff7c58ef0932cc6
:20252000f0932cf0932cf0932cf0932cf0932cf8cd9dfffffffbe2c7f0932cf0932cf0934c
:202540002cf0932cf0932cf0932cf3a956fef8f1ffffffffffffffffffffffffffffffff79
:20256000ffffffffffffffffffffffffffffffffffffffffffffffffffffffffffffffff7b
:20258000fffffffffffffffffffffffffffffffffffffce4cef4a560f0882def801eef8005
:2025a0001ef08629f39c50f9d3b1ffffffffffffffffffffffffffffffffffffffffffff18
:2025c000fffffffffffffffffffffffffffffffffff5b073ef801eef801eef811ff08729ab
:2025e000f18a2ff6b072fbdabdf08c31f0882bef8221ef811fef811ff4a763fffefdffff91
:20260000ffffffffffffffffffffffffffffffffffffffffffffffffffffffffffffffffda
:20262000ffffffffffffffffffffffffffffffffffffffffffffffffffffffffffffffffba
:20264000ffffffffffffffffffffffffffffffffffffffffffffffffffffffffffffffff9a
:20266000fff19a3af0932cf0932cf0932cf7c58efffffffffffff4b064f0932cf0932cf0ef
:20268000932cf8cd9dfffffff8cd9df0932cf0932cf0932cf19a3afffffffffffffffffff1
:2026a000fffffffffffffbe2c7f0932cf0932cf4b064f8cd9df0932cf0932cf4b064ffff50
:2026c000fffffffff0932cf0932cf0932cfbe2c7fffffffbe2c7f0932cf0932cf4b064ff47
:2026e000fffff0932cf0932cf0932cfffffffffffffffffffffffffffffffffffff9d4ab69
:20270000f0932cf0932cf0932cf0932cf3a956fef8f1fffffffffffff6be80f0932cf093c4
:202720002cf0932cf0932cf6be80fffffffffffffffffffffffffffffffffffffffffffff1
:20274000ffffffffffffffffffffffffffffffffffffffffffffffffffffffffffffffff99
:20276000fffffffffffffffffffffffffffffff7c192ef8323ef801def7f1def7f1def8078
:202780001def801def801eef801ef4aa69fef8f3ffffffffffffffffffffffffffffffff96
:2027a000fffffffffffffffffffffffffffffffffffdf3e9f1913cef811fef811fef811fe6
:2027c000ef7f1bf3a057fad9baef7f1bef821eef821fef821fef821ffbe0c7ffffffffff94
:2027e000fffffffffffffffffffffffffffffffffffffffffffffffffffffffffef8f2f815
:20280000caa0f4ad6cf3a35af4a761f6bc87fbe2cbffffffffffffffffffffffffffffff83
:20282000fffffffffffffffffffffffffffffffffffffffffffffffffffffffffffffce9d1
:20284000d5f0932cf0932cf0932cf0932cfce9d5fffffffffffff4b064f0932cf0932cf0dd
:20286000932cf8cd9dfffffffdf1e3f0932cf0932cf0932cf0932cfadbb9ffffffffffff25
:20288000fffffffffffffbe2c7f0932cf0932cf0932cf0932cf0932cf0932cf4b064ffff7a
:2028a000fffffffff0932cf0932cf0932cfbe2c7fffffffbe2c7f0932cf0932cf4b064ff65
:2028c000fffff0932cf0932cf0932cffffffffffffffffffffffffffffffffffffffffff02
:2028e000fce9d5f19a3af0932cf3a956fef8f1fffffffffffffffffffef8f1f3a956f0937e
:202900002cf0932cf9d4abffffffffffffffffffffffffffffffffffffffffffffffffff7d
:20292000ffffffffffffffffffffffffffffffffffffffffffffffffffffffffffffffffb7
:20294000fffffffffffffffffffffffff8caa0ef811eef811eef8221f08627f0882bf087bc
:202960002aef8425ef8120ef811fef811ff4ab6afffdfbfffffffffffffffffffffffffff4
:20298000fffffffffffffffffffffffffffffffffffffffffadcc0ef8423ef821fef821fff
:2029a000ef7e18f29947fadcc0ef801cef821eef8320ef8320f3a054fffefcffffffffff11
:2029c000fffffffffffffffffffffffffffffffffffffffffffffffffffadcbff19643efc2
:2029e0008321ef8320ef8320ef8320ef8320ef8523f6b87efefbf8ffffffffffffffffff40
:202a0000fffffffffffffffffffffffffffffffffffffffffffffffffffffffffffff7c518
:202a20008ef0932cf0932cf0932cf19a3afffffffffffffffffff4b064f0932cf0932cf0e9
:202a4000932cf8cd9dfffffffffffff3a956f0932cf0932cf0932cf6be80ffffffffffff2e
:202a6000fffffffffffffbe2c7f0932cf0932cf0932cf0932cf0932cf0932cf4b064fbe2b9
:202a8000c7fbe2c7f0932cf0932cf0932cf8cd9dfbe2c7f9d4abf0932cf0932cf4b064ffdb
:202aa000fffff0932cf0932cf0932cffffffffffffffffffffffffffffffffffffffffff20
:202ac000fffffffdf1e3f4b064fef8f1fffffffffffffffffffffffffffffffef8f1f5b7b5
:202ae00072fce9d5ffffffffffffffffffffffffffffffffffffffffffffffffffffffffc6
:202b0000ffffffffffffffffffffffffffffffffffffffffffffffffffffffffffffffffd5
:202b2000fffffffffffffffffffdeddef08628ef811fef8525f18d34f29541f29744f29740
:202b400043f2923cf0892cef8321ef821fef821ff9d4b2ffffffffffffffffffffffffffa8
:202b6000fffffffffffffffffffffffffffffffffffffffffffffff4a762ef8320ef83214a
:202b8000ef811cf1923bfce4cef08829ef821fef8321ef8321fad9bbffffffffffffffff60
:202ba000fffffffffffffffffffffffffffffffffffffffffffffbe1c9ef8625ef8421ef69
:202bc0008521f08725f08928f08828f08623ef8421ef8521f5b57afffffeffffffffffff96
:202be000fffffffffffffffffffffffffffffffffffffffffffffffffffffffffffff3a957
:202c000056f0932cf0932cf0932cf6be80fffffffffffffffffff4b064f0932cf0932cf0d0
:202c2000932cf8cd9dfffffffffffff8cd9df0932cf0932cf0932cf19a3afef8f1ffffff61
:202c4000fffffffffffffbe2c7f0932cf0932cf4b064f8cd9df0932cf0932cf4b064f09325
:202c60002cf0932cf0932cf0932cf0932cf0932cf0932cf4b064f0932cf0932cf4b064ffa1
:202c8000fffff0932cf0932cf0932cffffffffffffffffffffffffffffffffffffffffff3e
:202ca000fffffffffffffffffffffffff4b064f0932cf0932cf0932cf4b064ffffffffff08
:202cc000ffffffffffffffffffffffffffffffffffffffffffffffffffffffffffffffff14
:202ce000fffffffffffffffffffffffffffffffffffffffffffffffffffffffffffffffff4
:202d0000fffffffffffffffffff7c291ef821fef8423f18f36f39a49f39a48f39f50f39d79
:202d20004ef39a49f29641f0892bef8320ef8320f4a65ffffffffffffffffffffffffffff2
:202d4000fffffffffffffffffffffffffffffffffffffffffffffffad5b3ef8421ef8421e0
:202d6000ef821ef08d31fdead9f19037ef821def8421f1923afefaf5ffffffffffffffffda
:202d8000fffffffffffffffffffffffffffffffffffffffef9f5f29b49ef8522ef8624f164
:202da0008d31f2943cf1943cf2943df19239f0892aef8522ef8522fadbbffffffffffffff6
:202dc000fffffffffffffffffffffffffffffffffffffffffffffffffffffffdf1e3f093ba
:202de0002cf0932cf0932cf0932cfadbb9fffffffffffffffffff4b064f0932cf0932cf0bf
:202e0000932cf8cd9dfffffffffffffdf1e3f0932cf0932cf0932cf0932cf9d4abffffff95
:202e2000fffffffffffffbe2c7f0932cf0932cf8cd9dfffffff0932cf0932cf4b064f0934e
:202e40002cf0932cf0932cf0932cf0932cf0932cf0932cf4b064f0932cf0932cf4b064ffbf
:202e6000fffff0932cf0932cf0932cffffffffffffffffffffffffffffffffffffffffff5c
:202e8000fffffffffffffffffffffffff4b064f0932cf0932cf0932cf4b064ffffffffff26
:202ea000ffffffffffffffffffffffffffffffffffffffffffffffffffffffffffffffff32
:202ec000ffffffffffffffffffffffffffffffffffffffffffffffffffffffffffffffff12
:202ee000fffffffffffffffffff3a55cef8320f0892bf29845f39b49f7b87efdefe3fce92a
:202f0000d6f5aa64f39a49f29038ef8523ef8321f08d31fef5edffffffffffffffffffff9a
:202f2000fffffffffffffffffffffffffffffffffffffffffffffffef7f0f19138ef852273
:202f4000ef831ff08a2afce8d5f29845ef821cef8522f5b67affffffffffffffffffffff77
:202f6000fffffffffffffffffffffffffffffffffffffffad8b9ef8522ef8523f08e32f20a
:202f80009945f4a55af7bd86f6b373f29c49f1953eef8928ef8522f4ad6affffffffffff34
:202fa000fffffffffffffffffffffffffffffffffffffffffffffffffffffff8cd9df09347
:202fc0002cf0932cf0932cf19a3afffffffffffffffffffffffff4b064f0932cf0932cf058
:202fe000932cf8cd9dfffffffffffffffffff3a956f0932cf0932cf0932cf5b772ffffff9f
:20300000fffffffffffffbe2c7f0932cf0932cf8cd9dfffffff0932cf0932cf4b064f0936c
:203020002cf0932cf0932cf0932cf0932cf0932cf0932cf4b064f0932cf0932cf4b064ffdd
:20304000fffff0932cf0932cf0932cffffffffffffffffffffffffffffffffffffffffff7a
:20306000fffffffffffffffffffffffff4b064f0932cf0932cf0932cf4b064ffffffffff44
:20308000ffffffffffffffffffffffffffffffffffffffffffffffffffffffffffffffff50
:2030a000ffffffffffffffffffffffffffffffffffffffffffffffffffffffffffffffff30
:2030c000fffffffffffffffffff1943eef8421f18d31f39a48f39e50fdf3e8ffffffffff6a
:2030e000fffbe0c7f39947f2953ff08726ef8520ef8521fbdec4ffffffffffffffffffff3d
:20310000fffffffffffffffffffffffffffffffffffffffffffffffffffff6b980ef852204
:20312000ef8421ef8523fce5d0f3a053ee811aef8522fadabbffffffffffffffffffffff2a
:20314000fffffffffffffffffffffffffffffffffffffff6bc87ef8621f08928f29640f357
:20316000a050fce8d4fffffffffefdf7bc82f29a45f08f33ef8623f19640ffffffffffff9f
:20318000fffffffffffffffffffffffffffffffffffffffffffffffffffffff3a956f093d5
:2031a0002cf0932cf0932cf6be80fffffffffffffffffffffffff4b064f0932cf0932cf007
:2031c000932cf8cd9dfffffffffffffffffff8cd9df0932cf0932cf0932cf0932cfdf1e3e8
:2031e000fffffffffffffadbb9f0932cf0932cf4b064f8cd9df0932cf0932cf4b064ffff1b
:20320000fff7c58ef0932cf0932cf5b772fffffffffffffbe2c7f0932cf0932cf4b064ffe6
:20322000fffff0932cf0932cf0932cffffffffffffffffffffffffffffffffffffffffff98
:20324000fffffffffffffffffffffffff4b064f0932cf0932cf0932cf4b064ffffffffff62
:20326000ffffffffffffffffffffffffffffffffffffffffffffffffffffffffffffffff6e
:20328000ffffffffffffffffffffffffffffffffffffffffffffffffffffffffffffffff4e
:2032a000fffffffffffffffffff19843ef8521f18d31f39b49f39e4ffdefe1ffffffffff88
:2032c000fffad8b8f29a47f29640f08827ef8521ef8522f9cfa8ffffffffffffffffffff9a
:2032e000fffffffffffffffffffffffffffffffffffffffffffffffffffffad8b8ef8522c8
:20330000ef8521ee821cfbe2caf4a861ee8018ef8623fce7d4ffffffffffffffffffffff1e
:20332000fffffffffffffffffffffffffffffffffffffff5b171ef8622f08b2bf29944f489
:20334000a960fffdfcfffffffffffffadbbdf29a45f19339ef8824f09136ffffffffffff06
:20336000fffffffffffffffffffffffffffffffffffffffffffffffffdf1e3f0932cf09362
:203380002cf0932cf0932cfadbb9fffffffffffffffffffffffff4b064f0932cf0932cf0cb
:2033a000932cf8cd9dfffffffffffffffffffdf1e3f0932cf0932cf0932cf0932cf8cd9d06
:2033c000fffffffffffff8cd9df0932cf0932cf0932cf0932cf0932cf0932cf4b064ffff71
:2033e000fff2a148f0932cf0932cf7c58ef8cd9dfce9d5fbe2c7f0932cf0932cf4b064ff26
:20340000fffff0932cf0932cf0932cffffffffffffffffffffffffffffffffffffffffffb6
:20342000fffffffffffffffffffffffff4b064f0932cf0932cf0932cf4b064ffffffffff80
:20344000ffffffffffffffffffffffffffffffffffffffffffffffffffffffffffffffff8c
:20346000ffffffffffffffffffffffffffffffffffffffffffffffffffffffffffffffff6c
:20348000fffffffffffffffffff4ab66ef8522f08a2cf29945f29c4bf6b272faddc0fef3a9
:2034a000e7fad3adf1963ff19239ef8625ef8521ef8522f6bc87ffffffffffffffffffff35
:2034c000fffffffffffffffffffffffffffffffffffffffffffffffffffffdf0e3f08a2b91
:2034e000ef8623ee8119fadbbef5b273ee8018ef8929fdeee0ffffffffffffffffffffff18
:20350000fffffffffffffffffffffffffffffffffffffff5b476ef8722f08b2af29a45f39e
:203520009f4dfce2cafffffffffbf8f6b678f39d4af19338ef8825f19841ffffffffffffee
:20354000fffffffffffffffffffffffffffffffffffffffffffffffff8cd9df0932cf093ef
:203560002cf0932cf19a3afffffffffffffffffffffffffffffff4b064f0932cf0932cf064
:20358000932cf8cd9dfffffffffffffffffffffffff3a956f0932cf0932cf0932cf3a95625
:2035a000fffffffffffff8cd9df0932cf0932cf0932cf0932cf0932cf0932cf4b064fce9a8
:2035c000d5f0932cf0932cf0932cf0932cf0932cf7c58efbe2c7f0932cf0932cf4b064ff58
:2035e000fffff0932cf0932cf0932cffffffffffffffffffffffffffffffffffffffffffd5
:20360000fffffffffffffffffffffffff4b064f0932cf0932cf0932cf4b064ffffffffff9e
:20362000ffffffffffffffffffffffffffffffffffffffffffffffffffffffffffffffffaa
:20364000ffffffffffffffffffffffffffffffffffffffffffffffffffffffffffffffff8a
:20366000fffffffffffffffffff9cea7ef8521ef8725f09137f29c4af39c4af29943f5abde
:2036800064fef6eef6b87def8522ef8623ef8623ef8623f3a75fffffffffffffffffffff6c
:2036a000fffffffffffffffffffffffffffffffffffffffffffffffffffffffefcf29b4856
:2036c000ef8723ee8017f9d3adf7be86ee8016f08e2ffdf3e9ffffffffffffffffffffff19
:2036e000fffffffffffffffffffffffffffffffffffffff6bb82ef8823ef8927f1953df2bc
:203700009b46fbe0c5fad6b4f5ac67f39e4df39d4af08e30ef8924f4ad66ffffffffffff99
:20372000fffffffffffffffffffffffffffffffffffffffffffffffff2a148f0932cf09394
:203740002cf0932cf6be80fffffffffffffffffffffffffffffff4b064f0932cf0932cf013
:20376000932cf8cd9dfffffffffffffffffffffffff8cd9df0932cf0932cf0932cf0932c16
:20378000fdf1e3fffffff8cd9df0932cf0932cf2a148f4b064f0932cf0932cf4b064f7c596
:2037a0008ef0932cf0932cf7c58ef2a148f0932cf19a3afbe2c7f0932cf0932cf4b064ff7b
:2037c000fffff0932cf0932cf0932cfffffffffffffffffffffffffffffffffffffffffff3
:2037e000fffffffffffffffffffffffff4b064f0932cf0932cf0932cf4b064ffffffffffbd
:20380000ffffffffffffffffffffffffffffffffffffffffffffffffffffffffffffffffc8
:20382000ffffffffffffffffffffffffffffffffffffffffffffffffffffffffffffffffa8
:20384000fffffffffffffffffffef9f4f29b4aef8623ef8928f19035f29842f29a48f1949c
:203860003bf5b06efef7f1f19640ee8119ef8724ef8723f09237fef8f3fffffffffffffff7
:20388000fffffffffffffffffffffffffffffffffffffffffffffffffffffffffff6b97e18
:2038a000ef8824ee8116f8ca9ef8c99aee8116f09033fef7f0ffffffffffffffffffffff1b
:2038c000fffffffffffffffffffffffffffffffffffffff6bc82ef8924ef8924f08a28f3fa
:2038e000a456fef2e6f4a75df29c47f29d4af19337f08a27f08924fad6b3ffffffffffffdc
:20390000fffffffffffffffffffffffffffffffffffffffffffffffffdf1e3f7c58ef2a111
:2039200048f0932cfadbb9fffffffffffffffffffffffffffffff4b064f0932cf0932cf0bb
:20394000932cf8cd9dfffffffffffffffffffffffffce9d5f0932cf3a956f8cd9dfdf1e3c4
:20396000fffffffffffff5b772f0932cf0932cf8cd9dfffffff0932cf0932cf3a956f19a97
:203980003af0932cf0932cfdf1e3f7c58ef0932cf0932cf7c58ef0932cf0932cf3a956fb81
:2039a000e2c7f0932cf0932cf0932cffffffffffffffffffffffffffffffffffffffffff66
:2039c000fffffffffffffffffffffffff4b064f0932cf0932cf0932cf4b064ffffffffffdb
:2039e000ffffffffffffffffffffffffffffffffffffffffffffffffffffffffffffffffe7
:203a0000ffffffffffffffffffffffffffffffffffffffffffffffffffffffffffffffffc6
:203a2000fffffffffffffffffffffffffbe3ccf08b2aef8722ef8825f08b2af08c2df08c45
:203a40002cee821af7bd87fcead7f08b29ef851eef8824ef8824fadcbfffffffffffffffbe
:203a6000fffffffffffffffffffffffffffffffffffffffffffffffffffffffffff9d4afe7
:203a8000ef8924ee8218f7c08af9d2acee8218f09133fef7f0ffffffffffffffffffffff34
:203aa000fffffffffffffffffffffffffffffffffffffff6b87bf08925f08925ef8219f931
:203ac000cca1fad1aaf08f30f1963bf19032f08b28f08926f5ae6afffdfbffffffffffffa0
:203ae000ffffffffffffffffffffffffffffffffffffffffffffffffffffffffffffffffe6
:203b0000fffadbb9fffffffffffffffffffffffffffffffef8f1f2a148f0932cf0932cf017
:203b2000932cf8cd9dfffffffffffffffffffffffffffffffef8f1ffffffffffffffffff95
:203b4000fffffffffffff4b064f0932cf0932cf9d4abfffffff0932cf0932cf0932cf09300
:203b60002cf0932cf19a3af8cd9df5b772f0932cf0932cf2a148f0932cf0932cf0932cf0ef
:203b8000932cf0932cf0932cf0932cffffffffffffffffffffffffffffffffffffffffff6e
:203ba000fffffffffffffffffffffffff4b064f0932cf0932cf0932cf4b064fffffffffff9
:203bc000ffffffffffffffffffffffffffffffffffffffffffffffffffffffffffffffff05
:203be000ffffffffffffffffffffffffffffffffffffffffffffffffffffffffffffffffe5
:203c0000fffffffffffffffffffffffffffffffadabbf08c2aef8823ef8823ef8823ef8839
:203c200023ef8722ee8218fad7b6fad7b5ee831aef8722ef8824f4ac66ffffffffffffff77
:203c4000fffffffffffffffffffffffffffffffffffffffffffffffffffffffffffbe5ced3
:203c6000ef8924ee8319f5b474fbddbeef841bf19134fef6efffffffffffffffffffffff4f
:203c8000fffffffffffffffffffffffffffffffffffffff5b271f08926f08723f19031fd37
:203ca000f2e6f39f4def8620ef8a27ef8a25ef8a26f3aa61fef9f3fffffffffffffffffffc
:203cc000ffffffffffffffffffffffffffffffffffffffffffffffffffffffffffffffff04
:203ce000fffffffffffffff8cd9df4b064f4b064f4b064f2a148f0932cf0932cf0932cf079
:203d0000932cf8cd9dffffffffffffffffffffffffffffffffffffffffffffffffffffff9d
:203d2000fffffffef8f1f0932cf0932cf0932cfbe2c7fffffff0932cf0932cf0932cf09361
:203d40002cf0932cf0932cf0932cf0932cf0932cf0932cf0932cf0932cf0932cf0932cf071
:203d6000932cf0932cf0932cf2a148ffffffffffffffffffffffffffffffffffffffffff60
:203d8000fffffffffffffffffffffffff4b064f0932cf0932cf0932cf4b064ffffffffff17
:203da000ffffffffffffffffffffffffffffffffffffffffffffffffffffffffffffffff23
:203dc000ffffffffffffffffffffffffffffffffffffffffffffffffffffffffffffffff03
:203de000fffffffffffffffffffffffffffffffffffffbe4cef19a43ef8924ef8924ef89aa
:203e000024ef8924ef8720ef8821fce9d5f8c695ee8116ef8924f08d2cfdf0e3ffffffff11
:203e2000fffffffffffffffffffffffffffffffffffffffffffffffffffffffffffdf1e5cc
:203e4000f18e2fef851ef4a558fbe2c9f08722f18f30fdf3e8ffffffffffffffffffffff75
:203e6000fffffffffffffffffffffffffffffffffffffff3a85eef8a26ee8419f8c693fae7
:203e8000dbbaee851def8a26ef8b26f09133f8cda2fffefcffffffffffffffffffffffffb6
:203ea000ffffffffffffffffffffffffffffffffffffffffffffffffffffffffffffffff22
:203ec000fffffffffffffff9d4abf0932cf0932cf0932cf0932cf0932cf0932cf0932cf0b8
:203ee000932cf8cd9dffffffffffffffffffffffffffffffffffffffffffffffffffffffbc
:203f0000fffffff9d4abf0932cf0932cf0932cf7c58ef7c58ef0932cf0932cf19a3af093e5
:203f20002cf0932cf0932cf0932cf0932cf0932cf0932cf0932cf0932cf0932cf4b064f036
:203f4000932cf0932cf19a3af9d4abffffffffffffffffffffffffffffffffffffffffffcb
:203f6000fffffffffffffffffffffffff4b064f0932cf0932cf0932cf4b064ffffffffff35
:203f8000ffffffffffffffffffffffffffffffffffffffffffffffffffffffffffffffff41
:203fa000ffffffffffffffffffffffffffffffffffffffffffffffffffffffffffffffff21
:203fc000fffffffffffffffffffffffffffffffffffffffffffef4ebf5ad66f08925f089fa
:203fe00025f08925f08925ef851ef2963dfef5ebf5b16eef8116f08926f6bb81ffffffffc4
:20400000fffffffffffffffffffffffffffffffffffffffffffffffffffffffffffef9f5d1
:20402000f1963def8822f1963cfbe1c7f08e2def8b27fcedddffffffffffffffffffffffb6
:20404000fffffffffffffffffffffffffffffffffef9f4f1973def8a24f08e2dfdf1e5f3b2
:20406000a456ee861eef8b27f3a558fcedddffffffffffffffffffffffffffffffffffff6f
:20408000ffffffffffffffffffffffffffffffffffffffffffffffffffffffffffffffff40
:2040a000fffffffffffffffdf1e3f0932cf0932cf0932cf0932cf0932cf0932cf0932cf17c
:2040c0009a3afdf1e3ffffffffffffffffffffffffffffffffffffffffffffffffffffff56
:2040e000fffffff9d4abf0932cf0932cf5b772f0932cf0932cf0932cf0932cf5b772f4b051
:2041000064f4b064f8cd9df8cd9dfbe2c7f8cd9df0932cf0932cf0932cf0932cf4b064ffa6
:20412000ffffffffffffffffffffffffffffffffffffffffffffffffffffffffffffffff9f
:20414000fffffffffffffffffffffffff4b064f0932cf0932cf0932cf4b064ffffffffff53
:20416000ffffffffffffffffffffffffffffffffffffffffffffffffffffffffffffffff5f
:20418000ffffffffffffffffffffffffffffffffffffffffffffffffffffffffffffffff3f
:2041a000fffffffffffffffffffffffffffffffffffffffffffffffffffefcf8c89af08a4a
:2041c00029f08926f08926f08a27ef831af3a65afef3e9f29f4cee841cef8c2bfce9d5ffb4
:2041e000fffffffffffffffffffffffffffffffffffffffffffffffffffffffffffef8f2f4
:20420000f0953aef8a25f0902efbe1c8f1963cef8923fbe0c5fffffffffffffffffffffffc
:20422000fffffffffffffffffffffffffffffffffcecdbef8d29ee851af6bc82fbdfc2eedb
:20424000881fef8c27f5b574fefaf5ffffffffffffffffffffffffffffffffffffffffff1f
:20426000ffffffffffffffffffffffffffffffffffffffffffffffffffffffffffffffff5e
:20428000fffffffffffffffffffff0932cf0932cf0932cf0932cf0932cf0932cf3a956fc20
:2042a000e9d5ffffffffffffffffffffffffffffffffffffffffffffffffffffffffffff5e
:2042c000fffffffffffff6be80f0932cfbe2c7f2a148f0932cf0932cf0932cfadbb9ffffe9
:2042e000fffffffffffffffffffffffffffffffff9d4abfbe2c7f0932cf0932cf4b064ff4d
:20430000ffffffffffffffffffffffffffffffffffffffffffffffffffffffffffffffffbd
:20432000fffffffffffffffffffffffff4b064f0932cf0932cf0932cf4b064ffffffffff71
:20434000ffffffffffffffffffffffffffffffffffffffffffffffffffffffffffffffff7d
:20436000ffffffffffffffffffffffffffffffffffffffffffffffffffffffffffffffff5d
:20438000fffffffffffffffffffffffffffffffffffffffffffffffffffffffffffffbdf61
:2043a000c4f29c48ef8a26ef8b27ef8b27ee8217f6bb81fdefe0f08f2fef8821f3a456ffcb
:2043c000fcf9fffffffffffffffffffffffffffffffffffffffffffffffffffffffdefe136
:2043e000ef8f2cef8b26ef8922fbe2c9f3a85cee871ff7c28dffffffffffffffffffffff6d
:20440000fffffffffffffffffffffffffffffffffad9b7ef8b25f09130fdf0e2f3a656ee26
:20442000881ff4ae66fefbf8fffffffffffffffffffffffffffffffffffffffffffffffff4
:20444000ffffffffffffffffffffffffffffffffffffffffffffffffffffffffffffffff7c
:20446000fffffffffffffffffffffce9d5fbe2c7fbe2c7fbe2c7fbe2c7fef8f1ffffffff19
:20448000ffffffffffffffffffffffffffffffffffffffffffffffffffffffffffffffff3c
:2044a000fffffffffffffffffff6be80fffffff9d4abf8cd9df8cd9dfdf1e3ffffffffffcc
:2044c000fffffffffffffffffffffffffffffffffffffffbe2c7f0932cf0932cf4b064ffe6
:2044e000ffffffffffffffffffffffffffffffffffffffffffffffffffffffffffffffffdc
:20450000fffffffffffffffffffffffff7c58ef4b064f4b064f4b064f7c58effffffffff00
:20452000ffffffffffffffffffffffffffffffffffffffffffffffffffffffffffffffff9b
:20454000ffffffffffffffffffffffffffffffffffffffffffffffffffffffffffffffff7b
:20456000ffffffffffffffffffffffffffffffffffffffffffffffffffffffffffffffff5b
:20458000fffef6eef5b372ef8b27ef8b27ef8b27ee8419f9cfa5fbe2c8ee8720ef8a24f777
:2045a000c899fffffffffffffffffffffffffffffffffffffffffffffffffffffff9d3ac3d
:2045c000ef8c27ef8d28ee871dfadbbcf6ba7cee871cf3a759ffffffffffffffffffffffcd
:2045e000fffffffffffffffffffffffffffffffff6bc82ee861af6bf85fbe2c9ef881ff1a2
:204600009232fdf1e4ffffffffffffffffffffffffffffffffffffffffffffffffffffff1f
:20462000ffffffffffffffffffffffffffffffffffffffffffffffffffffffffffffffff9a
:20464000ffffffffffffffffffffffffffffffffffffffffffffffffffffffffffffffff7a
:20466000ffffffffffffffffffffffffffffffffffffffffffffffffffffffffffffffff5a
:20468000ffffffffffffffffffffffffffffffffffffffffffffffffffffffffffffffff3a
:2046a000ffffffffffffffffffffffffffffffffffffffffffffffffffffffffffffffff1a
:2046c000fffffffffffffffffffffffffffffffffffffffffffffffffffffffffffffffffa
:2046e000ffffffffffffffffffffffffffffffffffffffffffffffffffffffffffffffffda
:20470000ffffffffffffffffffffffffffffffffffffffffffffffffffffffffffffffffb9
:20472000ffffffffffffffffffffffffffffffffffffffffffffffffffffffffffffffff99
:20474000ffffffffffffffffffffffffffffffffffffffffffffffffffffffffffffffff79
:20476000fffffffffffffff7c897ef8d2aef8c27ef8b24ef8c26fce5cef8c999ee861befdc
:204780008e2bfbe0c4fffffffffffffffffffffffffffffffffffffffffffefaf5f19d4615
:2047a000ef8d28ef8d28ee871dfad8b5f7c795ee861bf0902efdedddffffffffffffffff49
:2047c000fffffffffffffffffffffffffffef8f2f2993ff19333fdeddcf3a556ef8920f839
:2047e000c999ffffffffffffffffffffffffffffffffffffffffffffffffffffffffffff75
:20480000ffffffffffffffffffffffffffffffffffffffffffffffffffffffffffffffffb8
:20482000ffffffffffffffffffffffffffffffffffffffffffffffffffffffffffffffff98
:20484000ffffffffffffffffffffffffffffffffffffffffffffffffffffffffffffffff78
:20486000ffffffffffffffffffffffffffffffffffffffffffffffffffffffffffffffff58
:20488000ffffffffffffffffffffffffffffffffffffffffffffffffffffffffffffffff38
:2048a000ffffffffffffffffffffffffffffffffffffffffffffffffffffffffffffffff18
:2048c000fffffffffffffffffffffffffffffffffffffffffffffffffffffffffffffffff8
:2048e000ffffffffffffffffffffffffffffffffffffffffffffffffffffffffffffffffd8
:20490000ffffffffffffffffffffffffffffffffffffffffffffffffffffffffffffffffb7
:20492000ffffffffffffffffffffffffffffffffffffffffffffffffffffffffffffffff97
:20494000fffffffffffffffffffff9d7b4f09232ef8d28ef8a21f09434fef5eaf5b878ee43
:20496000861bf09536fbddbffffffffffffffffffffffffffffffffefbf7f5b676f08d289d
:20498000f08d28f08d28ef881efbe0c4fad5afef871cf08d28f4ad65fffefcffffffffffea
:2049a000fffffffffffffffffffffffffff6be84ef861af9c998fbdec1ef881cf29b41feea
:2049c000faf5ffffffffffffffffffffffffffffffffffffffffffffffffffffffffffff06
:2049e000ffffffffffffffffffffffffffffffffffffffffffffffffffffffffffffffffd7
:204a0000ffffffffffffffffffffffffffffffffffffffffffffffffffffffffffffffffb6
:204a2000ffffffffffffffffffffffffffffffffffffffffffffffffffffffffffffffff96
:204a4000ffffffffffffffffffffffffffffffffffffffffffffffffffffffffffffffff76
:204a6000ffffffffffffffffffffffffffffffffffffffffffffffffffffffffffffffff56
:204a8000ffffffffffffffffffffffffffffffffffffffffffffffffffffffffffffffff36
:204aa000ffffffffffffffffffffffffffffffffffffffffffffffffffffffffffffffff16
:204ac000fffffffffffffffffffffffffffffffffffffffffffffffffffffffffffffffff6
:204ae000ffffffffffffffffffffffffffffffffffffffffffffffffffffffffffffffffd6
:204b0000ffffffffffffffffffffffffffffffffffffffffffffffffffffffffffffffffb5
:204b2000fffffffffffffffffffffffffffbe4ccf1963af08d28ef881ef3a250fef8f2f41b
:204b4000a656ef861bf08e29f5b26dfbe3c9fdf3e8fdf0e2fad6b1f3a452f08e29f08e2908
:204b6000f08e29f08d27f08d27fdf2e6fce7d2ef8920f08e29f08e29f4af68fdefe0ffff01
:204b8000fffffffffffffffef6eef6bb7eef8b22f29d45fef3e9f2a04aef8b22f9d4adffd0
:204ba000ffffffffffffffffffffffffffffffffffffffffffffffffffffffffffffffff15
:204bc000fffffffffffffffffffffffffffffffffffffffffffffffffffffffffffffffff5
:204be000ffffffffffffffffffffffffffffffffffffffffffffffffffffffffffffffffd5
:204c0000ffffffffffffffffffffffffffffffffffffffffffffffffffffffffffffffffb4
:204c2000ffffffffffffffffffffffffffffffffffffffffffffffffffffffffffffffff94
:204c4000ffffffffffffffffffffffffffffffffffffffffffffffffffffffffffffffff74
:204c6000ffffffffffffffffffffffffffffffffffffffffffffffffffffffffffffffff54
:204c8000ffffffffffffffffffffffffffffffffffffffffffffffffffffffffffffffff34
:204ca000ffffffffffffffffffffffffffffffffffffffffffffffffffffffffffffffff14
:204cc000fffffffffffffffffffffffffffffffffffffffffffffffffffffffffffffffff4
:204ce000ffffffffffffffffffffffffffffffffffffffffffffffffffffffffffffffffd4
:204d0000fffffffffffffffffffffffffffffffffbe3cbf19434f08e29ef871cf5b573feed
:204d2000f4eaf29e47ef881df08e2af08e29f19434f19231f08e29f08e29f08e29f08e29d2
:204d4000f08f29ef891ef5af67fdebd8fdedddf3a451ef8a20f08f29ef8f29f09636f3ad57
:204d600062f5b97af4b26cf19a3fef8f28ee891cfadfc0f9d0a4ee881bf19c41fefaf6ff42
:204d8000ffffffffffffffffffffffffffffffffffffffffffffffffffffffffffffffff33
:204da000ffffffffffffffffffffffffffffffffffffffffffffffffffffffffffffffff13
:204dc000fffffffffffffffffffffffffffffffffffffffffffffffffffffffffffffffff3
:204de000ffffffffffffffffffffffffffffffffffffffffffffffffffffffffffffffffd3
:204e0000ffffffffffffffffffffffffffffffffffffffffffffffffffffffffffffffffb2
:204e2000ffffffffffffffffffffffffffffffffffffffffffffffffffffffffffffffff92
:204e4000ffffffffffffffffffffffffffffffffffffffffffffffffffffffffffffffff72
:204e6000ffffffffffffffffffffffffffffffffffffffffffffffffffffffffffffffff52
:204e8000ffffffffffffffffffffffffffffffffffffffffffffffffffffffffffffffff32
:204ea000ffffffffffffffffffffffffffffffffffffffffffffffffffffffffffffffff12
:204ec000fffffffffffffffffffffffffffffffffffffffffffffffffffffffffffffffff2
:204ee000fffffffffffffffffffffffffffffffffffffffbe0c3f0902cf08e29ef871cf64c
:204f0000c188fef2e7f3a452ef8719ef8e28f08f29ef8f29ef8f29ef8f29ef8f29ef8f2a68
:204f2000ef8d25ee8b21fce9d5f5b570f7bf85fce8d3ee8b21ee8c22ef902aef902aef9069
:204f40002aef902aef902aef8e27ee8719f8cc9dfce8d2ef912cef8f27f8cd9effffffffdc
:204f6000ffffffffffffffffffffffffffffffffffffffffffffffffffffffffffffffff51
:204f8000ffffffffffffffffffffffffffffffffffffffffffffffffffffffffffffffff31
:204fa000ffffffffffffffffffffffffffffffffffffffffffffffffffffffffffffffff11
:204fc000fffffffffffffffffffffffffffffffffffffffffffffffffffffffffffffffff1
:204fe000ffffffffffffffffffffffffffffffffffffffffffffffffffffffffffffffffd1
:00000001FF
