:0400000002002332A5
:01000B0032C2
:0100130032BA
:03001B000216DCEE
:03007C0002001E61
:03001E0002007F5E
:20007F00901B5CE493FEA3E493FFC007C006120092800CC006C00790C20075F001E422D0F4
:0B009F0006D00712078C1207B880FB88
:2000AA00E582900001F0E0FFBF30004009EF24C640047582012275820022E582900002F0FE
:2000CA00E0FFF582C0071200AAE582D0077021BF2802801CBF29028017BF2D028012BF2BFE
:2000EA0002800DBF2A028008BF2F028003BF0D047582012275820022E582900013F0E0F5AF
:20010A00821200AAE582700122900653E070069006537401F0900652E0FFBF0F0050189083
:20012A000652EF04F0EF2403FFE43400FE900013E0FD8F828E83F022E582900094F0E0FF41
:20014A00BF0D02803DBF28028029BF2902802BBF2A028017BF2B02800ABF2D028005BF2F8A
:20016A002980089000957403F080259000957402F0801D900095E4F08016900095747FF0D4
:20018A00800E9000957480F0800690009574FFF0900095E0F58222E582900096F09000976E
:2001AA00E4F0900653E07010900096E0FFBF2D089006547401F0801B900096E0F5821201A5
:2001CA0042AF82BFFF02800B9000977401F0900653EFF0900655E0FFBF8000501E90009765
:2001EA00E06018900655EF04F0EF2414FFE43400FE900096E0FD8F828E83F022900098E450
:20020A00F0A3F0A3F0A3F07F00900652E0FEC3EF9E5066900098E0FBA3E0FCA3E0FDA3E05B
:20022A00FE9005B6EBF0ECA3F0EDA3F0EEA3F090000AE4F5F0C007120B8C8582088583091D
:20024A0085F00AF50BD007EF2403F582E43400F583E07A0024D0F9EA34FFF83395E0FAFE25
:20026A00900098E92508F0E83509A3F0EA350AA3F0EE350BA3F00F8090900652E4F090069F
:20028A0054E06021900098E0FCA3E0FDA3E0FEA3E0FF900098C3E49CF0E49DA3F0E49EA384
:2002AA00F0E49FA3F0900654E4F0900098E0FCA3E0FDA3E0FEA3E08C828D838EF022AF82F9
:2002CA00AE83ADF0FC90049CEFF0EEA3F0EDA3F0ECA3F0900656E0FFBFFF01228F069006E4
:2002EA0056EF04F0EE75F004A4249CFE740035F0FF90049CE0FAA3E0FBA3E0FCA3E0FD8E55
:20030A00828F83EAF0EBA3F0ECA3F0EDA3F022900656E0FFE07007900000E4F5F022EF1426
:20032A00900656F0E075F004A4249CF582740035F0F583E0FCA3E0FDA3E0FEA3E08C828DA7
:20034A00838EF022900657E4F0900656F0900652F0900653F0900654F0900655F0901B5E64
:20036A00E493FEA3E493FFC0078E828F83120021AE82D007EE60E6901B68E493FEA3E493EC
:20038A00FFC0068E828F83120021AF82D006BF48028003020499901B6CE493FDA3E493FE64
:2003AA00C007C006C0057401C0E0E4C0E01203BC800BC005C006901B0F75F08022158115F5
:2003CA0081D005D006D007901B6CE493FDA3E493FEC007C006C0057401C0E0E4C0E012036D
:2003EA00ED800BC005C006901B1175F0802215811581D005D006D007901B6CE493FDA3E46D
:20040A0093FEC007C006C0057401C0E0E4C0E012041E800BC005C006901B0F75F080221536
:20042A00811581D005D006D007900657E0FE24A0F582E43404F583E0FD7003020528BD0D36
:20044A0003020528BEFF004003020528901B6CE493FCA3E493FD900657EE04F0EE24A0FE11
:20046A00E43404FB7A00C007C005C0047401C0E0E4C0E0120482800BC004C0058E828B832E
:20048A008AF02215811581D004D005D007809ABF0870900657E0606A901B6CE493FDA3E410
:2004AA0093FEC007C006C0057401C0E0E4C0E01204BE800BC005C006901B1175F0802215F4
:2004CA00811581D005D006D007901B6CE493FDA3E493FEC007C006C0057401C0E0E4C0E0EB
:2004EA001204EF800BC005C006901B0F75F0802215811581D005D006D007900657E014F097
:20050A00801C900657E0FEBEFF005012900657EE04F0EE24A0F582E43404F583EFF0BF0D14
:20052A00028003020367900657E024A0F582E43404F583E4F022901B6CE493FEA3E493FF89
:20054A00C007C0067429C0E0E4C0E012055A800BC006C007901B1375F0802215811581D0F9
:20056A0006D00722901B6CE493FEA3E493FFC007C0067413C0E0E4C0E0120588800BC006A5
:20058A00C007901B3D75F0802215811581D006D00722900655E0FFBF0200500475820022A8
:2005AA00EF14900655F0E02414F582E43400F583E0FF9005A0F0900655E0FFE0700302070A
:2005CA0065EF142414F582E43400F583E0FF9005A1F08F82120142AF829005A0E0FEF58244
:2005EA00C007C006120142AD82D006D007C3ED9F50030207529005A1E0FFBF280302072C02
:20060A00BF2A0302069AE4BF2B0104FD700DBF2D028008BF2F02807802074E900656E0FF75
:20062A00BF020050047582FF22C00512031985821085831185F012F51312031985820C850B
:20064A00830D85F00EF50FD005ED601EE510250CF8E511350DF9E512350EFDE513350F88EF
:20066A008289838DF01202C8801DE50CC39510FBE50D9511FCE50E9512FDE50F95138B82C4
:20068A008C838DF01202C8900655E014F00205C0900656E0FFBF020050047582FF22120345
:2006AA0019AB82AC83ADF0FFC007C005C004C00312031985821085831185F012F513D0034C
:2006CA00D004D005D0079005A1E0FABA2A2C9005B6EBF0ECA3F0EDA3F0EFA3F0851082852D
:2006EA0011838512F0E513120B8C85820C85830D85F00EF50F1202C8801F9005A2EBF0EC0C
:20070A00A3F0EDA3F0EFA3F08510828511838512F0E5131209B01202C8900655E014F00213
:20072A0005C0BE2908900655E014F08013900655E0FF04F0EF2414F582E43400F583EEF0CF
:20074A00758200227582FF22900655E0FF04F0EF2414F582E43400F583EEF0900655E0FFCA
:20076A00701C9005A0E0FEBE0D028012900655EF04F0EF2414F582E43400F583EEF07582A0
:20078A000022901B5CE493FEA3E493FFC007C00612079F800CC006C00790C20075F001E49E
:2007AA0022D006D0079003E8E4F5F002113B12054012034E901B6CE493FEA3E493FFC007A8
:2007CA00C0067401C0E0E4C0E01207D8800BC006C007901B5175F0802215811581D006D0D2
:2007EA0007901B6CE493FEA3E493FFC007C0067401C0E0E4C0E0120805800BC006C0079056
:20080A001B5375F0802215811581D006D007901B6CE493FEA3E493FFC007C0067401C0E039
:20082A00E4C0E0120832800BC006C007901B5175F0802215811581D006D007901B6CE4935C
:20084A00FEA3E493FFC007C0067401C0E0E4C0E012085F800BC006C007901B5375F08022BB
:20086A0015811581D006D0077F00900657E0FEC3EF9E5061EF24A0F582E43404F583E0FEAE
:20088A00F582C007C0061200C4E582D006D00760418E82C007C006120102D0068E82C00661
:2008AA001201A1D0068E821200AAE582D0077022900652E0600AC0071202061202C8D00742
:2008CA00C00712059CE582D0076007C00712056ED0070F8095900655E0600D900014E0FFED
:2008EA00BF0D02800302056E901B6CE493FEA3E493FFC007C0067406C0E0E4C0E012090C31
:20090A00800BC006C007901B5575F0802215811581D006D007901B64E493FEA3E493FF90A8
:20092A00009CE0FAA3E0FBA3E0FCA3E0FDC007C006E4C0E0120943800CC006C0078A828B9B
:20094A00838CF0ED221581D006D007901B6CE493FEA3E493FFC007C0067401C0E0E4C0E071
:20096A0012096F800BC006C007901B5175F0802215811581D006D007901B6CE493FEA3E4DC
:20098A0093FFC007C0067401C0E0E4C0E012099C800BC006C007901B5375F0802215811516
:0609AA0081D006D00722F7
:201B0F0008002000506C6561736520696E70757420616E2065787072657373696F6E2074F1
:201B2F006F206576616C756174653A0D0A0045787072657373696F6E206572726F72210DB7
:0D1B4F000A000D000A00616E73203D2000A9
:061B72000000000000006D
:2009B000AF82AE83ADF0FC9005A6EFF0EEA3F0EDA3F0ECA3F09005A6E0FCA3E0FDA3E0FE7A
:2009D000A3E0FF33E433FB6013C3E49CF514E49DF515E49EF516E49FF51780088C148D1510
:2009F0008E168F17AC14AD15AE16AF179005A2E0F514A3E0F515A3E0F516A3E0F51733E4B0
:200A100033FA6017C3E49514F518E49515F519E49516F51AE49517F51B800C851418851514
:200A30001985161A85171B9005AAE518F0E519A3F0E51AA3F0E51BA3F08C828D838EF0EFB4
:200A5000C003C002120A81AC82AD83AEF0FFD002D003EA6B6013C3E49CF8E49DF9E49EFACB
:110A7000E49F888289838AF0228C828D838EF0EF2293
:200A8100AF82AE83ADF0FC9005AEEFF0EEA3F0EDA3F0ECA3F09005B2E4F0A3F0A3F0A3F0E4
:200AA1009005AAE0FCA3E0FDA3E0FEA3E0FF7534209005AEE0F8A3E0F9A3E0FAA3E0FB3309
:200AC1009200E828F8E933F9EA33FAEB33FB9005AEE8F0E9A3F0EAA3F0EBA3F09005B2E07D
:200AE100F8A3E0F9A3E0FAA3E0FBE828F8E933F9EA33FAEB33FB9005B2E8F0E9A3F0EAA311
:200B0100F0EBA3F030001E9005B2E0F8A3E0F9A3E0FAA3E0FB9005B2740148F0E9A3F0EA28
:200B2100A3F0EBA3F09005B2E0F8A3E0F9A3E0FAA3E0FBC3E89CE99DEA9EEB9F4031900528
:200B4100B2E8C39CF0E99DA3F0EA9EA3F0EB9FA3F09005AEE0F8A3E0F9A3E0FAA3E0FB9038
:200B610005AE740148F0E9A3F0EAA3F0EBA3F0D534028003020AB29005AEE0FCA3E0FDA30F
:0B0B8100E0FEA3E08C828D838EF0224A
:06005200E4787FF6D8FD02
:20003000790FE94400601B7A01901B72785275E706E493F2A308B8000205E7D9F4DAF275F4
:02005000E7FFC8
:200B8C00A882A983AAF0FB88F09005B6E0A4FCADF089F0E0A42DFDE435F0FE88F0A3E0A4B1
:200BAC002DFDE5F03EFEE433FF89F0E0A42EFEE5F03FFF88F0A3E0A42EFEE5F03FFF8AF044
:200BCC009005B6E0A42EFEE5F03FFF8BF0E0A42FFF8AF0A3E0A42FFF89F0A3E0A42FFF88A9
:0C0BEC00F0A3E0A42F8EF08D838C8222F9
:200BF800E5829005BAF0E0F5F80022E5829005BCF0E0FFC423541FFE74075FF5F005F07441
:200C180001800225E0D5F0FBFFEE700F9005BBE06004EF42F122EFF452F122BE010F900585
:200C3800BBE06004EF42F222EFF4FF52F222E5829005BEF0E0FFC423541FFE74075FF5F070
:200C580005F07401800225E0D5F0FBFFEE700F9005BDE06004EF428022EFF4528022BE0160
:200C78000F9005BDE06004EF429022EFF4FF529022E5829005BFF0E0FFC423541FFE740791
:200C98005FF5F005F07401800225E0D5F0FBFFEE700EEF558060047D0180027D008D822206
:200CB800BE010EEF559060047F0180027F008F82227582FF22E5829005C0F0C29C9005C0EC
:200CD800E0F59910990280FB22E5829005C1F0E0FFBF0A0050088F0674302EF582227437EE
:200CF8002FF58222E5829005C2F0E0FF30E71475822DC007120CCDD0079005C2EFF4F0E0A5
:200D18002401F09005C2E0FFC2D575F064EF30E704B2D5F4048430D502F404FF600C8F8288
:200D3800C007120CE1120CCDD0079005C2E0FE3395E0FDEF75F064A4D39EF4B3FEED95F055
:200D5800FD900636740AF0E4A3F08E828D831217BFAE82AF83EE60088E82120CE1120CCD13
:200D78009005C2E0FF75F00AC2D530E704D2D5F40484E5F030D502F404F582120CE1020C89
:200D9800CDAF82AE83ADF0FC9005C3EFF0EEA3F0EDA3F0ECA3F09005C3E0FCA3E0FDA3E085
:200DB800FEA3E0FF30E73E75822DC007C006C005C004120CCDD004D005D006D0079005C373
:200DD800ECF4F0EDF4A3F0EEF4A3F0EFF4A3F09005C3E02401F0A3E03400F0A3E03400F031
:200DF800A3E03400F07F00EF24C7F521E43405F5229005C3E0F523A3E0F524A3E0F525A365
:200E1800E0F526900640740AF0E4A3F0A3F0A3F08523828524838525F0E526C0071218CA28
:200E3800A882852182852283E8F09005A2740AF0E4A3F0A3F0A3F08523828524838525F014
:200E5800E5261209B0AB82AC83ADF0FED0079005C3EBF0ECA3F0EDA3F0EEA3F09005C3E0EB
:200E7800F5F0A3E042F0A3E042F0A3E045F060090FBF0A005003020DFFEF24C7F582E43448
:200E980005F583E0F582C007120CE1120CCDD0078F061FEE70E322AF82AE83ADF0FC900537
:200EB800D1EFF0EEA3F0EDA3F0ECA3F07F00EF24D5FDE43405FE9005D1E0F9A3E0FAA3E02C
:200ED800FBA3E0FC890053000F8D828E83E8F0EAC4C9C4540F69C9540FC969C9FAEBC45472
:200EF800F04AFAECC4CBC4540F6BCB540FCB6BCBFC9005D1E9F0EAA3F0EBA3F0ECA3F09025
:200F180005D1E0F5F0A3E042F0A3E042F0A3E045F060060FBF08004095EF24D5F582E43474
:200F380005F583E0F582C007120CE1120CCDD0078F061FEE70E322AF82AE83ADF0FC900596
:200F5800DDEFF0EEA3F0EDA3F0ECA3F07F00EF24E1FDE43405FE9005DDE0F9A3E0FAA3E067
:200F7800FBA3E0FC89005300078D828E83E8F0EAC423C9C423541F69C9541FC969C9FAEB8B
:200F9800C42354E04AFAECC423CBC423541F6BCB541FCB6BCBFC9005DDE9F0EAA3F0EBA3E6
:200FB800F0ECA3F09005DDE0F5F0A3E042F0A3E042F0A3E045F060060FBF0B004090EF242F
:200FD800E1F582E43405F583E0F582C007120CE1120CCDD0078F061FEE70E322AF82AE83B4
:200FF800ADF0FC9005ECEFF0EEA3F0EDA3F0ECA3F07F00EF24F0FDE43405FE9005ECE0F96C
:20101800A3E0FAA3E0FBA3E0FC89005300018D828E83E8F0ECC313FCEB13FBEA13FAE913BF
:20103800F99005ECF0EAA3F0EBA3F0ECA3F09005ECE0F5F0A3E042F0A3E042F0A3E045F04C
:2010580060060FBF200040ABEF24F0F582E43405F583E0F582C007120CE1120CCDD0078FBC
:20107800061FEE70E322C01C85811CC082C083C0F0C0E0E51C24FDF8B6011AA81C088602BE
:201098000886030886060886078A828B838EF0EF120FF48054E51C24FDF8B6031AA81C0855
:2010B80086040886050886060886078C828D838EF0EF120EAF8032E51C24FDF8B6021AA832
:2010D8001C0886040886050886060886078C828D838EF0EF120F4F8010A81C0886820886A1
:2010F800830886F008E6120D99851C81D01C22D29C900610E599F0C298900610E0F5822206
:20111800D29CC2983098FDC29C900611E599F0E0F58222209C02D29C3098047582012275B7
:20113800820022AF82AE83ADF0FC900612EFF0EEA3F0EDA3F0ECA3F0900612E0FCA3E0FDED
:20115800A3E0FEA3E0FF9005B6ECF0EDA3F0EEA3F0EFA3F0900177E4F5F0120B8CAC82AD75
:2011780083AEF0FF9005AA7441F07403A3F0E4A3F0A3F08C828D838EF0EF120A81AC82AD3C
:2011980083AEF0FF7B00EC4D4E4F6018C28F308FFD0BBB7FF11CBCFF091DBDFF051EBEFF72
:2011B800011F80E222AF82AE83ADF0FC900616EFF0EEA3F0EDA3F0ECA3F0900616E0FCA342
:2011D800E0FDA3E0FEA3E0FF9005B6ECF0EDA3F0EEA3F0EFA3F0900003E4F5F0120B8CACBC
:2011F80082AD83AEF0FF9005AA7408F0741AA3F0E4A3F0A3F08C828D838EF0EF120A81ACDE
:2012180082AD83AEF0FF7B00EC4D4E4F6018C28F308FFD0BBB7FF11CBCFF091DBDFF051E7F
:20123800BEFF011F80E222AF82AE83ADF0FC90061AEFF0EEA3F0EDA3F0ECA3F0C2ABC2AF4D
:201258000000000090061AE0FCA3E0FDA3E0FEA3E0FF9005AAECF0EDA3F0EEA3F0EFA3F0C9
:2012780090D80075F0B87405120A81AC82AD83AEF0FFE4C39CFCE49DFD74019EFEE49FFF70
:201298008C8B8D8D758910D28E7598C00000D2ABD2AF22759800000022C01C85811CAC824F
:2012B800AD83AEF0FFE51C24FDF8E6C0E08C828D838EF0EF12107E158175820A120CCDD02C
:2012D8001C22AF82AE83ADF0FC90061EEFF0EEA3F0EDA3F0ECA3F090061EE0FCA3E0FDA3F7
:2012F800E0FEA3E0FF9005B6ECF0EDA3F0EEA3F0EFA3F0900177E4F5F0120B8CAC82AD83F4
:20131800AEF0FF9005AA7441F07403A3F0E4A3F0A3F08C828D838EF0EF120A81AC82AD839A
:20133800AEF0FF900658ECF0EDA3F0EEA3F0EFA3F022AFF0AE83E582900623F0EEA3F0EF39
:20135800A3F0900626E4F0900623E0FDA3E0FEA3E0FF900622E0FC7B00EC606CC007C00665
:20137800C005C004C003121107AA82D003D004D005D006D007BA0D2D900623E0F527A3E05E
:20139800F528A3E0F5298527828528838529F0E4121AF4900623042527F0E43528A3F0E5C5
:2013B80029A3F080238D828E838FF0EA121AF4A3AD82AE83900623EDF0EEA3F0EFA3F01C55
:2013D8000B900626EBF08091900626E0F58222C01C85811CAD82AE83AFF0E51C24FCF89067
:2013F8000622E6F08D828E838FF012134AD01C22AFF0AE83E582900629F0EEA3F0EFA3F0D2
:20141800900658E0FCA3E0FDA3E0FEA3E0FF90062CECF0EDA3F0EEA3F0EFA3F0EC4D4E4F70
:201438007060900629E0FDA3E0FEA3E0FF900627E0FBA3E0FCEB4C603AC007C006C005C02B
:2014580004C003121107AA82D003D004D005D006D0078D828E838FF0EA121AF4A3AD82AE05
:2014780083900629EDF0EEA3F0EFA3F01BBBFF011C80C2900629EDF0EEA3F0EFA3F0758268
:201498000022D29C7F0090062CE0F5F0A3E042F0A3E042F0A3E045F070030215C9C28F9048
:2014B8000629E0FCA3E0FDA3E0FE900627E0F52AA3E0F52B208F5F3098FAC007900658E044
:2014D800F8A3E0F9A3E0FBA3E0FF90062CE8F0E9A3F0EBA3F0EFA3F08C828D838EF0E59950
:2014F800121AF4A3AC82AD83900629ECF0EDA3F0EEA3F0C298152A74FFB52A02152B900654
:2015180027E52AF0E52BA3F0D007E52A452B70A4C29C75820022309868900658E0FBA3E08D
:20153800FCA3E0FDA3E0FE90062CEBF0ECA3F0EDA3F0EEA3F0900629E0FCA3E0FDA3E0FEDD
:201558008C828D838EF0E599121AF490062974012CF0E43DA3F0EEA3F0C298900627E02499
:20157800FFFDA3E034FFFE900627EDF0EEA3F0900627E0F5F0A3E045F07006C29C75820083
:20159800220FBF7F02800302149E90062CE024FFFBA3E034FFFCA3E034FFFDA3E034FFFEB2
:2015B80090062CEBF0ECA3F0EDA3F0EEA3F002149EC29C7582FF22C01C85811CAD82AE836E
:2015D800AFF0E51C24FCF8900627E6F008E6A3F08D828E838FF0121408D01C22AFF0AE837C
:2015F800E582900632F0EEA3F0EFA3F0900630E0FEA3E0FF900630E0F5F0A3E045F060499F
:20161800900632E0FBA3E0FCA3E0FDEE4F60748B828C838DF0121AD4FAA3AB82AC839006D7
:2016380032EBF0ECA3F0EDA3F08A82C007C006C005C004C003120CCDD003D004D005D00664
:20165800D0071EBEFF011F80C2900632E0FAA3E0FEA3E0FF8A828E838FF0121AD4F9602F95
:201678000ABA00010E900632EAF0EEA3F0EFA3F08982C007C006C002120CCDD002D006D01D
:201698000780D1900632EBF0ECA3F0EDA3F022900632EAF0EEA3F0EFA3F022C01C85811C51
:2016B800AD82AE83AFF0E51C24FCF8900630E6F008E6A3F08D828E838FF01215F4D01C2215
:2016D80075C00122C0E0C082C083C007C0D075D00075C00190065CE02401F0E0FFBF7F1689
:2016F80090065DE02401F0A3E03400F0A3E03400F0A3E03400F0D0D0D007D083D082D0E029
:2017180032C2AF90065DE0FCA3E0FDA3E0FEA3E0FFD2AF9005B6ECF0EDA3F0EEA3F0EFA381
:20173800F0900341E4F5F0120B8CAC82AD83AEF0FF9005AA7477F07401A3F0E4A3F0A3F034
:201758008C828D838EF0EF020A81C2AF90065DE0FCA3E0FDA3E0FEA3E0FFD2AF9005B6ECDE
:20177800F0EDA3F0EEA3F0EFA3F0901A08E4F5F0120B8CAC82AD83AEF0FF9005AA7403F019
:20179800E4A3F0A3F0A3F08C828D838EF0EF020A810022E582900635F0E0FF7E00C3EE9F8B
:0717B8005004000E80F7222F
:161B5C003F122B117E10AF0EB112CD0C0711CF15B316DA12AB1291
:091B780000000000000000000064
:2017BF00AF83E582900638F0EFA3F0900638E0FEA3E0FF33E433FD6009C3E49EFBE49FFC94
:2017DF0080048E038F04900636E0FEA3E0FF33E433FA6009C3E49EF8E49FF980048E008F0F
:2017FF000190063AE8F0E9A3F08B828C83C005C002121830AE82AF83D002D005EA6D600CDC
:11181F00C3E49EFCE49FFD8C828D83228E828F832273
:200058007800E84400600A790175E700E4F309D8FC7851E84406600C7907900001E4F0A301
:04007800D8FCD9FADD
:20183000AF83E58290063CF0EFA3F090063EE4F0A3F090063AE0FEA3E0FF7D1090063CE011
:20185000FBA3E0FC339201ECCB25E0CB33FC90063CEBF0ECA3F090063EE0FBA3E0CB25E054
:20187000CB33FC90063EEBF0ECA3F030011290063EE0FBA3E0FC90063E74014BF0ECA3F0BC
:2018900090063EE0FBA3E0FCC3EB9EEC9F401D90063EEBC39EF0EC9FA3F090063CE0FBA358
:1A18B000E0FC90063C74014BF0ECA3F0DD8E90063CE0FEA3E08E82F58322F9
:2018CA00AF82AE83ADF0FC900644EFF0EEA3F0EDA3F0ECA3F0900644E0FCA3E0FDA3E0FE13
:2018EA00A3E0FF33E433FB6013C3E49CF52CE49DF52DE49EF52EE49FF52F80088C2C8D2D57
:20190A008E2E8F2FAC2CAD2DAE2EAF2F900640E0F52CA3E0F52DA3E0F52EA3E0F52F30E7F7
:20192A0017C3E4952CF530E4952DF531E4952EF532E4952FF533800C852C30852D31852E8C
:20194A0032852F33900648E530F0E531A3F0E532A3F0E533A3F08C828D838EF0EFC0031223
:20196A001993AC82AD83AEF0FFD003EB6013C3E49CF8E49DF9E49EFAE49F888289838AF041
:09198A00228C828D838EF0EF2285
:20199300AF82AE83ADF0FC90064CEFF0EEA3F0EDA3F0ECA3F0900650E4F090064CE0FCA3DD
:2019B300E0FDA3E0FEA3E0FF7B00900648E0F534A3E0F535A3E0F536A3E0F537235401FA56
:2019D3007074C003E5342534F8E53533F9E53633FAE53733FB900648E8F0E9A3F0EAA3F05C
:2019F300EBA3F0900648E0F534A3E0F535A3E0F536A3E0F537C3EC9534ED9535EE9536EF8E
:201A13009537D0035027E537C313F537E53613F536E53513F535E53413F534900648F0E5C7
:201A330035A3F0E536A3F0E537A3F080090B900650EBF00219BD900650E0FF90064CE0FBBF
:201A5300A3E0FCA3E0FDA3E0FE900648E0F534A3E0F535A3E0F536A3E0F537C3EB9534EC9F
:201A73009535ED9536EE9537401790064CEBC39534F0EC9535A3F0ED9536A3F0EE9537A386
:201A9300F0900648E0FBA3E0FCA3E0FDA3E0C313FEED13FDEC13FCEB13FB900648F0ECA3E6
:201AB300F0EDA3F0EEA3F08F061FEE708E90064CE0FCA3E0FDA3E0FEA3E08C828D838EF0A4
:011AD30022F0
:02002100E47386
:0D002300758137121AF0E582600302001E9D
:1C1AD40020F71430F6148883A88220F507E6A88375830022E280F7E49322E02221
:041AF00075820022D9
:1B1AF40020F71130F6138883A88220F509F6A8837583002280FEF280F5F022F1
:00000001FF
