:0400000002003B328D
:01000B0032C2
:0300130002111FB8
:03001B00020EC80A
:0100230032AA
:03002B000210C6FA
:0300330002106D4B
:0300A00002003625
:030036000200A322
:2000A300901821E493FEA3E493FFC000A81405140514EFF208EEF2D0001200C1800CC0067A
:1A00C300C00790100075F00EE422A81418E218E288141200DD1200E980FB92
:2000DD009001017401F075820D0201129001057401F075820D12016D900001E4F5F0120701
:1500FD00C7900105E4F075820D12016D900001E4F5F00207C70F
:20011200E582900102F0E0FFC423541FFE900103F074075FF5F005F07401800225E0D5F0B3
:20013200FB900104F0EE7015900101E06007900104E042F122900104E0F452F122900103B5
:20015200E0FFBF0115900101E06007900104E042F222900104E0F4FF52F222E58290010669
:20017200F0E0FFC423541FFE900107F074075FF5F005F07401800225E0D5F0FB900108F0C5
:20019200EE7015900105E06007900108E0428022900108E0F4528022900107E0FFBF0115F3
:2001B200900105E06007900108E0429022900108E0F4FF529022E582900109F0E0FFC423BC
:2001D200541FFE90010AF074075FF5F005F07401800225E0D5F0FB90010BF0EE7012900114
:2001F2000BE0FF558060047F0180027F008F822290010AE0FFBF011290010BE0FF5590600A
:20021200047F0180027F008F82227582FF22E58290010CF0C29C90010CE0F5991099028074
:20023200FB22E58290010DF0E0FFBF0A00500990010DE02430F5822290010DE024F6244131
:20025200F58222E58290010EF0E0FF30E71175822D12022090010EE0FFF4F0E02401F090B7
:20027200010EE0FFC2D575F064EF30E704B2D5F4048430D502F404FF90010FF0EF600C9098
:20029200010FE0F58212023412022090010EE0FF3395E0FE90010FE075F064A4D39FF4B33F
:2002B200FFEE95F0FE9001C3740AF0E4A3F08F828E831214E6AE82AF8390010FEEF0E06035
:2002D2000C90010FE0F58212023412022090010EE0FF75F00AC2D530E704D2D5F40484E5E6
:2002F200F030D502F404F582120234020220AF82AE83ADF0FC900110EFF0EEA3F0EDA3F09E
:20031200ECA3F0900110E0FCA3E0FDA3E0FEA3E0FF30E73C75822D120220900110E0FCA381
:20033200E0FDA3E0FEA3E0FF900110ECF4F0EDF4A3F0EEF4A3F0EFF4A3F0900110E0240155
:20035200F0A3E03400F0A3E03400F0A3E03400F0900114E4F0900114E02415F508E4340159
:20037200F509900110E0FAA3E0FBA3E0FCA3E0FD9001CE740AF0E4A3F0A3F0A3F0C000E566
:2003920014F82404F514EDF208ECF208EBF208EAF2D0008A828B838CF0ED121608A882C013
:2003B20000A81418E2FA18E2FB18E2FC18E2FD8814D000850882850983E8F090019D740A89
:2003D200F0E4A3F0A3F0A3F08A828B838CF0ED121178AC82AD83AEF0FF900110ECF0EDA358
:2003F200F0EEA3F0EFA3F0900110E0F5F0A3E042F0A3E042F0A3E045F06011900114E02456
:2004120001F0E0FFBF0A005003020367900114E0FF2415F582E43401F583E0FEC000EFA878
:20043200140514F2D0008E82120234AE82A81418E2FF1514C000EFA8140514F2D0008E82FF
:20045200120220A81418E2FF1514EFFE14900114F0EE70B822AF82AE83ADF0FC90011FEF10
:20047200F0EEA3F0EDA3F0ECA3F0900123E4F0900123E02424FFE43401FE90011FE0FAA353
:20049200E0FBA3E0FCA3E0FD8A0153010F8F828E83E9F0EBC4CAC4540F6ACA540FCA6ACA52
:2004B200FBECC454F04BFBEDC4CCC4540F6CCC540FCC6CCCFD90011FEAF0EBA3F0ECA3F02E
:2004D200EDA3F090011FE0F5F0A3E042F0A3E042F0A3E045F0600E900123E02401F0E0FFFD
:2004F200BF0800408A900123E0FF2424F582E43401F583E0FEC000EFA8140514F2D0008EC4
:2005120082120234AE82A81418E2FF1514C000EFA8140514F2D0008E82120220A81418E2B1
:20053200FF1514EFFE14900123F0EE70B822AF82AE83ADF0FC90012CEFF0EEA3F0EDA3F00C
:20055200ECA3F0900130E4F0900130E02431FFE43401FE90012CE0FAA3E0FBA3E0FCA3E052
:20057200FD8A015301078F828E83E9F0EBC423CAC423541F6ACA541FCA6ACAFBECC42354CE
:20059200E04BFBEDC423CCC423541F6CCC541FCC6CCCFD90012CEAF0EBA3F0ECA3F0EDA359
:2005B200F090012CE0F5F0A3E042F0A3E042F0A3E045F06011900130E02401F0E0FFBF0BC5
:2005D20000500302055A900130E0FF2431F582E43401F583E0FEC000EFA8140514F2D00034
:2005F2008E82120234AE82A81418E2FF1514C000EFA8140514F2D0008E82120220A8141825
:20061200E2FF1514EFFE14900130F0EE70B822AF82AE83ADF0FC90013CEFF0EEA3F0EDA31C
:20063200F0ECA3F0900140E4F0900140E02441FFE43401FE90013CE0FAA3E0FBA3E0FCA321
:20065200E0FD8A015301018F828E83E9F0EDC313FDEC13FCEB13FBEA13FA90013CF0EBA3DA
:20067200F0ECA3F0EDA3F090013CE0F5F0A3E042F0A3E042F0A3E045F0600E900140E02482
:2006920001F0E0FFBF200040A0900140E0FF2441F582E43401F583E0FEC000EFA81405143A
:2006B200F2D0008E82120234AE82A81418E2FF1514C000EFA8140514F2D0008E8212022076
:2006D200A81418E2FF1514EFFE14900140F0EE70B822A8140514C513F208E8C513051405AB
:2006F2001405140514AF82AE83ADF0FCA813EFF208EEF208EDF208ECF2A8131818E2FFBFCB
:200712000117A813E2FC08E2FD08E2FE08E28C828D838EF01206218055A8131818E2FFBF28
:200732000317A813E2FC08E2FD08E2FE08E28C828D838EF01204678035A8131818E2FFBFE2
:200752000217A813E2FC08E2FD08E2FE08E28C828D838EF01205408015A813E2FC08E2FD14
:2007720008E2FE08E28C828D838EF0120300C513F818E2C513881422D29C900161E599F0B6
:20079200C298900161E0F58222C298000000D29C0000003098FD900162E599F0C2989001A9
:2007B20062E0F58222209C02D29C3098047582012275820022AF82AE83ADF0FC900163EF43
:2007D200F0EEA3F0EDA3F0ECA3F0900167E4F0900163E0FCA3E0FDA3E0FEA3E0FF9001B334
:2007F200ECF0EDA3F0EEA3F0EFA3F0900177E4F5F0121365AC82AD83AEF0FF9001DFE0F8EA
:20081200A3E0F9A3E0FAA3E0FB9001A5E8F0E9A3F0EAA3F0EBA3F08C828D838EF0EF12121B
:2008320038AC82AD83AEF0FF900168ECF0EDA3F0EEA3F0EFA3F0900168E0F5F0A3E042F0A8
:20085200A3E042F0A3E045F06037C28F308FFD900167E02401F0E0FFBF7FDB900168E02493
:20087200FFFCA3E034FFFDA3E034FFFEA3E034FFFF900168ECF0EDA3F0EEA3F0EFA3F08077
:20089200B522AF82AE83ADF0FC90016CEFF0EEA3F0EDA3F0ECA3F0900170E4F090016CE066
:2008B200FCA3E0FDA3E0FEA3E0FF9001B3ECF0EDA3F0EEA3F0EFA3F0900003E4F5F0121383
:2008D20065AC82AD83AEF0FF9001DFE0F8A3E0F9A3E0FAA3E0C40354F8CAC403CA6ACA54EC
:2008F200F8CA6AFBE9C40354074AFAE9C40354F8C8C403C868C854F8C868F99001A5E8F06A
:20091200E9A3F0EAA3F0EBA3F08C828D838EF0EF121238AC82AD83AEF0FF900171ECF0EDA1
:20093200A3F0EEA3F0EFA3F0900171E0F5F0A3E042F0A3E042F0A3E045F06037C28F308F7F
:20095200FD900170E02401F0E0FFBF7FDB900171E024FFFCA3E034FFFDA3E034FFFEA3E0AF
:2009720034FFFF900171ECF0EDA3F0EEA3F0EFA3F080B522AF82AE83ADF0FC900175EFF09B
:20099200EEA3F0EDA3F0ECA3F0C28EC2ABC2AF00000000900175E0FCA3E0FDA3E0FEA3E031
:2009B200FF9001A5ECF0EDA3F0EEA3F0EFA3F090D80075F0B87405121238AC82AD83AEF03B
:2009D200FF9001DFECF0EDA3F0EEA3F0EFA3F0E4C39CFCE49DFD74019EFEE49FFF8C8B8D43
:2009F2008D758911D28E7598C00000D2ABD2AF22759800000022A8140514C513F208E8C579
:200A1200130514051405140514AF82AE83ADF0FCA813EFF208EEF208EDF208ECF2A813E264
:200A3200FC08E2FD08E2FE08E2FFA8131818A9140514E2F3098C828D838EF0EF1206E415B5
:200A52001475820A120220C513F818E2C513881422AF82AE83ADF0FC900179EFF0EEA3F076
:200A7200EDA3F0ECA3F0900179E0FCA3E0FDA3E0FEA3E0FF9001B3ECF0EDA3F0EEA3F0EFEC
:200A9200A3F0900177E4F5F0121365AC82AD83AEF0FF9001A57441F07403A3F0E4A3F0A35C
:200AB200F08C828D838EF0EF121238AC82AD83AEF0FF9001E3ECF0EDA3F0EEA3F0EFA3F07F
:200AD20022AFF0AE83E58290017EF0EEA3F0EFA3F0900181E4F090017DE0606712078AAFBC
:200AF20082900182EFF0BF0D2490017EE0FDA3E0FEA3E0FF8D828E838FF0E412134A90010E
:200B12007E042DF0E43EA3F0EFA3F0803690017EE0FDA3E0FEA3E0FF900182E0FC8D828EBC
:200B3200838FF012134A90017E74012DF0E43EA3F0EFA3F090017DE014F0900181E0240151
:200B5200F08093900181E0F58222A8140514C513F208E8C513051405140514AFF0AE83E58E
:200B720082A813F208EEF208EFF2A813E2FD08E2FE08E2FFE51324FDF8E2FB08E290017D12
:200B9200EBF08D828E838FF0120AD3C513F818E2C513881422AFF0AE83E582900185F0EE4F
:200BB200A3F0EFA3F0900188E4F09001E3E0FCA3E0FDA3E0FEA3E0FF900189ECF0EDA3F0D8
:200BD200EEA3F0EFA3F0EC4D4E4F706E900183E0F5F0A3E045F0605E900185E0FDA3E0FE89
:200BF200A3E0FFC000E514F82403F514EFF208EEF208EDF2D00012079BAC82A81418E2FD6B
:200C120018E2FE18E2FF88148D828E838FF0EC12134A90018574012DF0E43EA3F0EFA3F05C
:200C3200900183E024FFFEA3E034FFFF900183EEF0EFA3F0809675820022D29C900189E0CD
:200C5200F5F0A3E042F0A3E042F0A3E045F07003020D78C28F208F6B3098FA9001E3E0FC04
:200C7200A3E0FDA3E0FEA3E0FF900189ECF0EDA3F0EEA3F0EFA3F0900185E0FDA3E0FEA34F
:200C9200E0FF8D828E838FF0E59912134A90018574012DF0E43EA3F0EFA3F0C2989001838A
:200CB200E024FFFEA3E034FFFF900183EEF0EFA3F0900183E0F5F0A3E045F07098C29C758C
:200CD2008200223098689001E3E0FCA3E0FDA3E0FEA3E0FF900189ECF0EDA3F0EEA3F0EF75
:200CF200A3F0900185E0FDA3E0FEA3E0FF8D828E838FF0E59912134A90018574012DF0E441
:200D12003EA3F0EFA3F0C298900183E024FFFEA3E034FFFF900183EEF0EFA3F0900183E0E2
:200D3200F5F0A3E045F07006C29C75820022900188E02401F0E0FFBF7F028003020C4E907B
:200D52000189E024FFFCA3E034FFFDA3E034FFFEA3E034FFFF900189ECF0EDA3F0EEA3F0E5
:200D7200EFA3F0020C4EC29C7582FF22A8140514C513F208E8C513051405140514AFF0AE0E
:200D920083E582A813F208EEF208EFF2A813E2FD08E2FE08E2FFE51324FDF8E2FB08E2FC9A
:200DB200900183EBF0ECA3F08D828E838FF0120BA7C513F818E2C513881422AFF0AE83E53B
:200DD2008290018FF0EEA3F0EFA3F090018DE0F5F0A3E045F0604B90018DE0F5F0A3E0457B
:200DF200F070012290018FE0FDA3E0FEA3E0FF8D828E838FF0121801FC90018F74012DF0E6
:200E1200E43EA3F0EFA3F08C8212022090018DE024FFFEA3E034FFFF90018DEEF0EFA3F0F5
:200E320080B590018FE0FDA3E0FEA3E0FF8D828E838FF0121801602A90018FE0FDA3E0FE99
:200E5200A3E0FF8D828E838FF0121801FC90018F74012DF0E43EA3F0EFA3F08C821202200D
:200E720080C022A8140514C513F208E8C513051405140514AFF0AE83E582A813F208EEF280
:200E920008EFF2A813E2FD08E2FE08E2FFE51324FDF8E2FB08E2FC90018DEBF0ECA3F08D13
:200EB200828E838FF0120DCDC513F818E2C51388142275C00122C0E0C082C083C007C0D0EE
:200ED20075D00075C0019001E7E02401F0E0FFBF7F169001E8E02401F0A3E03400F0A3E04D
:200EF2003400F0A3E03400F0D0D0D007D083D082D0E032C2AF9001E8E0FCA3E0FDA3E0FE50
:200F1200A3E0FFD2AF9001DFE0F8A3E0F9A3E0FAA3E0FB9001B3E8F0E9A3F0EAA3F0EBA35A
:200F3200F08C828D838EF0EF121365AC82AD83AEF0FF9001A57477F07401A3F0E4A3F0A36C
:200F5200F08C828D838EF0EF021238C2AF9001E8E0FCA3E0FDA3E0FEA3E0FFD2AF9001DF7E
:200F7200E0F8A3E0F9A3E0FAA3E0FB9001B3E8F0E9A3F0EAA3F0EBA3F08C828D838EF0EFF2
:200F9200121365AC82AD83AEF0C40354F8CEC403CE6ECE54F8CE6EFFEDC40354074EFEED38
:200FB200C40354F8CCC403CC6CCC54F8CC6CFD9001A57403F0E4A3F0A3F0A3F08C828D839C
:200FD2008EF0EF0212380022E582900192F0900193E4F0900192E0FF900193E0FEC39F50FC
:200FF2000A00900193E02401F080ED22D2AF22C2AF22E58290019CF0E0FFBF051A90019A8B
:20101200E0FEA3E0FF900196EEF0EFA3F0EE4F6003D2AD22C2AD2290019CE0FFBF061A908A
:20103200019AE0FEA3E0FF900194EEF0EFA3F0EE4F6003D2AE22C2AE2290019CE0FFBF027D
:201052001990019AE0FEA3E0FF900198EEF0EFA3F0EE4F6003D2AA22C2AA22000000C0D0F5
:20107200C0E0C0F0C082C083C000C001C002C003C004C005C006C00700900194E0F5F0A3E0
:20109200E045F0600E900194E0F8A3E0F5838882120039000000D007D006D005D004D00345
:2010B200D002D001D000D083D082D0F0D0E0D0D000000032000000C0D0C0E0C0F0C082C0E2
:2010D20083C000C001C002C003C004C005C006C00700900196E0F5F0A3E045F0600E9001BC
:2010F20096E0F8A3E0F5838882120039000000D007D006D005D004D003D002D001D000D0B4
:2011120083D082D0F0D0E0D0D000000032000000C0D0C0E0C0F0C082C083C000C001C002FE
:20113200C003C004C005C006C00700900198E0F5F0A3E045F0600E900198E0F8A3E0F583B4
:201152008882120039000000D007D006D005D004D003D002D001D000D083D082D0F0D0E077
:06117200D0D000000032A5
:201821008609B707E4066704080A20028A077E0D750E630A020A4103000000000000000075
:03184100000000A4
:20117800AF82AE83ADF0FC9001A1EFF0EEA3F0EDA3F0ECA3F09001A1E0FCA3E0FDA3E0FEBC
:20119800A3E0FF30E70FC3E49CF8E49DF9E49EFAE49FFB80088C008D018E028F0390019DEE
:2011B800E0FCA3E0FDA3E0FEA3E0FF33E433F50A6013C3E49CF50BE49DF50CE49EF50DE4CF
:2011D8009FF50E80088C0B8D0C8E0D8F0E9001A5E50BF0E50CA3F0E50DA3F0E50EA3F08838
:2011F8008289838AF0EB121238AC82AD83AEF0FF9001A1E0F8A3E0F9A3E0FAA3E0FB33E4F5
:2012180033650A6013C3E49CF8E49DF9E49EFAE49F888289838AF0228C828D838EF0EF228E
:20123800AF82AE83ADF0FC9001A9EFF0EEA3F0EDA3F0ECA3F09001ADE4F0A3F0A3F0A3F037
:201258009001A5E0FCA3E0FDA3E0FEA3E0FF7516209001A9E0F8A3E0F9A3E0FAA3E0FB901D
:2012780001B1235401F0E828F8E933F9EA33FAEB33FB9001A9E8F0E9A3F0EAA3F0EBA3F066
:201298009001ADE0F8A3E0F9A3E0FAA3E0FBE828F8E933F9EA33FAEB33FB9001ADE8F0E95D
:2012B800A3F0EAA3F0EBA3F09001B1E0601E9001ADE0F8A3E0F9A3E0FAA3E0FB9001AD74A9
:2012D8000148F0E9A3F0EAA3F0EBA3F09001ADE0F8A3E0F9A3E0FAA3E0FBC3E89CE99DEA02
:2012F8009EEB9F40319001ADE8C39CF0E99DA3F0EA9EA3F0EB9FA3F09001A9E0F8A3E0F9E9
:20131800A3E0FAA3E0FB9001A9740148F0E9A3F0EAA3F0EBA3F0D5160280030212699001DE
:12133800A9E0FCA3E0FDA3E0FEA3E08C828D838EF022DC
:06007000E4787FF6D8FDE4
:20004E00790DE94400601B7A0190183778DF75E701E493F2A308B8000205E7D9F4DAF2758E
:02006E00E7FFAA
:1B134A0020F71130F6138883A88220F509F6A8837583002280FEF280F5F022A2
:06003E0075E700751401D6
:06009A0075E7007514017A
:20136500AF82AE83ADF0FC9001B7EFF0EEA3F0EDA3F0ECA3F09001B7E0FF9001B5E08FF0FA
:20138500A4FFADF09001BDEFF0EDA3F09001B7E0FF9001B3E08FF0A4FFADF09001BBEFF026
:2013A500EDA3F09001B7E0FF9001B6E08FF0A49001C2F09001B7E0FF9001B4E08FF0A4FF86
:2013C500ADF09001C0EFF0EDA3F09001BFE4F09001BBE0FCA3E0FDA3E0FEA3E0FF9001BF9C
:2013E500E0F8A3E0F9A3E0FAA3E0FBE82CFCE93DFDEA3EFEEB3FFF9001BBECF0EDA3F0EE81
:20140500A3F0EFA3F09001BEE0FF9001BAE0FE9001B3E08EF0A42FFF9001BEF09001B9E07E
:20142500FE9001B4E08EF0A42F9001BEF09001BDE0FEA3E0FF9001B9E0FD9001B3E08DF07E
:20144500A4ABF02EFEEB3FFF9001BDEEF0EFA3F09001B8E0FD9001B4E08DF0A4ABF02EFE12
:20146500EB3FFF9001BDEEF0EFA3F09001B8E0FF9001B5E08FF0A49001C2F09001B8E0FFB4
:201485009001B3E08FF0A4FFADF09001C0EFF0EDA3F09001BFE4F09001BBE0FCA3E0FDA345
:2014A500E0FEA3E0FF9001BFE0F8A3E0F9A3E0FAA3E0FBE82CFCE93DFDEA3EFEEB3FFF9016
:2014C50001BBECF0EDA3F0EEA3F0EFA3F09001BBE0FCA3E0FDA3E0FEA3E08C828D838EF0A4
:0114E50022E4
:2014E600AF83E5829001C5F0EFA3F09001C5E0FEA3E0FF30E709C3E49EFCE49FFD80048EDC
:20150600048F059001C3E0FEA3E0FF33E433FB6009C3E49EF9E49FFA80048E018F029001DB
:20152600C7E9F0EAA3F0C000EBA8140514F2D0008C828D83121567AE82AF83A81418E2FB87
:2015460015149001C5E0FCA3E0FD33E4336B600CC3E49EFCE49FFD8C828D83228E828F8366
:011566002262
:200076007800E84400600A790175E700E4F309D8FC78DEE84400600C7901900101E4F0A361
:04009600D8FCD9FABF
:20156700AF83E5829001C9F0EFA3F09001CBE4F0A3F09001C7E0FEA3E0FF7D109001C9E0BD
:20158700FBA3E0FC9001CD235401F0ECCB25E0CB33FC9001C9EBF0ECA3F09001CBE0FBA3C0
:2015A700E0CB25E0CB33FC9001CBEBF0ECA3F09001CDE060129001CBE0FBA3E0FC9001CB02
:2015C70074014BF0ECA3F09001CBE0FBA3E0FCC3EB9EEC9F401D9001CBEBC39EF0EC9FA325
:2015E700F09001C9E0FBA3E0FC9001C974014BF0ECA3F0DD879001C9E0FEA3E08E82F58310
:0116070022C0
:20160800AF82AE83ADF0FC9001D2EFF0EEA3F0EDA3F0ECA3F09001D2E0FCA3E0FDA3E0FEC5
:20162800A3E0FF30E70FC3E49CF8E49DF9E49EFAE49FFB80088C008D018E028F039001CE28
:20164800E0FCA3E0FDA3E0FEA3E0FF30E713C3E49CF50FE49DF510E49EF511E49FF512809A
:20166800088C0F8D108E118F129001D6E50FF0E510A3F0E511A3F0E512A3F0888289838A5C
:20168800F0EB1216C0AC82AD83AEF0FF9001D2E0F8A3E0F9A3E0FAA3E0FB30E713C3E49C65
:1816A800F8E49DF9E49EFAE49F888289838AF0228C828D838EF0EF225A
:2016C000AF82AE83ADF0FC9001DAEFF0EEA3F0EDA3F0ECA3F09001DEE4F09001DAE0FCA318
:2016E000E0FDA3E0FEA3E0FF7B009001D6E0F516A3E0F517A3E0F518A3E0F519235401FA1B
:201700007074C003E5162516F8E51733F9E51833FAE51933FB9001D6E8F0E9A3F0EAA3F03E
:20172000EBA3F09001D6E0F516A3E0F517A3E0F518A3E0F519C3EC9516ED9517EE9518EFAC
:201740009519D0035027E519C313F519E51813F518E51713F517E51613F5169001D6F0E522
:2017600017A3F0E518A3F0E519A3F080090B9001DEEBF00216EA9001DEE0FF9001DAE0FB2A
:20178000A3E0FCA3E0FDA3E0FE9001D6E0F516A3E0F517A3E0F518A3E0F519C3EB9516EC82
:2017A0009517ED9518EE951940179001DAEBC39516F0EC9517A3F0ED9518A3F0EE9519A3A5
:2017C000F09001D6E0FBA3E0FCA3E0FDA3E0C313FEED13FDEC13FCEB13FB9001D6F0ECA3AA
:2017E000F0EDA3F0EEA3F08F061FEE708E9001DAE0FCA3E0FDA3E0FEA3E08C828D838EF0F1
:0118000022C5
:05003900E4737581195C
:0A00440012181DE582600302003669
:1C18010020F71430F6148883A88220F507E6A88375830022E280F7E49322E022F6
:04181D0075820022AE
:00000001FF
